{
	"contracts/Licence.sol": {
		"LicenseToken": {
			"abi": [
				{
					"inputs": [],
					"stateMutability": "nonpayable",
					"type": "constructor"
				},
				{
					"anonymous": false,
					"inputs": [
						{
							"indexed": false,
							"internalType": "address",
							"name": "owner",
							"type": "address"
						},
						{
							"indexed": false,
							"internalType": "address",
							"name": "approved",
							"type": "address"
						},
						{
							"indexed": false,
							"internalType": "uint256",
							"name": "tokenId",
							"type": "uint256"
						}
					],
					"name": "Approval",
					"type": "event"
				},
				{
					"anonymous": false,
					"inputs": [
						{
							"indexed": false,
							"internalType": "address",
							"name": "account",
							"type": "address"
						},
						{
							"indexed": false,
							"internalType": "uint256",
							"name": "tokenId",
							"type": "uint256"
						}
					],
					"name": "LicenseGiven",
					"type": "event"
				},
				{
					"anonymous": false,
					"inputs": [
						{
							"indexed": false,
							"internalType": "address",
							"name": "from",
							"type": "address"
						},
						{
							"indexed": false,
							"internalType": "address",
							"name": "to",
							"type": "address"
						},
						{
							"indexed": false,
							"internalType": "uint256",
							"name": "tokenId",
							"type": "uint256"
						}
					],
					"name": "Transfer",
					"type": "event"
				},
				{
					"inputs": [
						{
							"internalType": "uint256",
							"name": "_tokenId",
							"type": "uint256"
						},
						{
							"internalType": "string",
							"name": "_deviceId",
							"type": "string"
						}
					],
					"name": "activate",
					"outputs": [],
					"stateMutability": "nonpayable",
					"type": "function"
				},
				{
					"inputs": [
						{
							"internalType": "address",
							"name": "_to",
							"type": "address"
						},
						{
							"internalType": "uint256",
							"name": "_tokenId",
							"type": "uint256"
						}
					],
					"name": "approve",
					"outputs": [],
					"stateMutability": "nonpayable",
					"type": "function"
				},
				{
					"inputs": [
						{
							"internalType": "address",
							"name": "_account",
							"type": "address"
						}
					],
					"name": "balanceOf",
					"outputs": [
						{
							"internalType": "uint256",
							"name": "balance",
							"type": "uint256"
						}
					],
					"stateMutability": "view",
					"type": "function"
				},
				{
					"inputs": [
						{
							"internalType": "address",
							"name": "_account",
							"type": "address"
						},
						{
							"internalType": "uint256",
							"name": "_tokenId",
							"type": "uint256"
						}
					],
					"name": "burn",
					"outputs": [],
					"stateMutability": "nonpayable",
					"type": "function"
				},
				{
					"inputs": [
						{
							"internalType": "uint256",
							"name": "_tokenId",
							"type": "uint256"
						}
					],
					"name": "getApproved",
					"outputs": [
						{
							"internalType": "address",
							"name": "",
							"type": "address"
						}
					],
					"stateMutability": "pure",
					"type": "function"
				},
				{
					"inputs": [
						{
							"internalType": "address",
							"name": "_account",
							"type": "address"
						},
						{
							"internalType": "uint256",
							"name": "_type",
							"type": "uint256"
						}
					],
					"name": "giveLicense",
					"outputs": [],
					"stateMutability": "nonpayable",
					"type": "function"
				},
				{
					"inputs": [
						{
							"internalType": "address",
							"name": "_account",
							"type": "address"
						},
						{
							"internalType": "uint256",
							"name": "_tokenId",
							"type": "uint256"
						}
					],
					"name": "handleExpiredLicense",
					"outputs": [],
					"stateMutability": "nonpayable",
					"type": "function"
				},
				{
					"inputs": [
						{
							"internalType": "address",
							"name": "_owner",
							"type": "address"
						},
						{
							"internalType": "address",
							"name": "_operator",
							"type": "address"
						}
					],
					"name": "isApprovedForAll",
					"outputs": [
						{
							"internalType": "bool",
							"name": "",
							"type": "bool"
						}
					],
					"stateMutability": "pure",
					"type": "function"
				},
				{
					"inputs": [
						{
							"internalType": "address",
							"name": "_account",
							"type": "address"
						},
						{
							"internalType": "uint256",
							"name": "_tokenId",
							"type": "uint256"
						}
					],
					"name": "isLicenseActive",
					"outputs": [
						{
							"internalType": "uint256",
							"name": "state",
							"type": "uint256"
						}
					],
					"stateMutability": "view",
					"type": "function"
				},
				{
					"inputs": [
						{
							"internalType": "uint256",
							"name": "_tokenId",
							"type": "uint256"
						}
					],
					"name": "ownerOf",
					"outputs": [
						{
							"internalType": "address",
							"name": "owner",
							"type": "address"
						}
					],
					"stateMutability": "view",
					"type": "function"
				},
				{
					"inputs": [
						{
							"internalType": "address",
							"name": "_from",
							"type": "address"
						},
						{
							"internalType": "address",
							"name": "_to",
							"type": "address"
						},
						{
							"internalType": "uint256",
							"name": "_tokenId",
							"type": "uint256"
						}
					],
					"name": "safeTransferFrom",
					"outputs": [],
					"stateMutability": "nonpayable",
					"type": "function"
				},
				{
					"inputs": [
						{
							"internalType": "address",
							"name": "_from",
							"type": "address"
						},
						{
							"internalType": "address",
							"name": "_to",
							"type": "address"
						},
						{
							"internalType": "uint256",
							"name": "_tokenId",
							"type": "uint256"
						},
						{
							"internalType": "bytes",
							"name": "data",
							"type": "bytes"
						}
					],
					"name": "safeTransferFrom",
					"outputs": [],
					"stateMutability": "nonpayable",
					"type": "function"
				},
				{
					"inputs": [
						{
							"internalType": "address",
							"name": "_operator",
							"type": "address"
						},
						{
							"internalType": "bool",
							"name": "_approved",
							"type": "bool"
						}
					],
					"name": "setApprovalForAll",
					"outputs": [],
					"stateMutability": "pure",
					"type": "function"
				},
				{
					"inputs": [
						{
							"internalType": "uint256",
							"name": "",
							"type": "uint256"
						}
					],
					"name": "tokenIndexToApproved",
					"outputs": [
						{
							"internalType": "address",
							"name": "",
							"type": "address"
						}
					],
					"stateMutability": "view",
					"type": "function"
				},
				{
					"inputs": [
						{
							"internalType": "uint256",
							"name": "",
							"type": "uint256"
						}
					],
					"name": "tokenIndexToOwner",
					"outputs": [
						{
							"internalType": "address",
							"name": "",
							"type": "address"
						}
					],
					"stateMutability": "view",
					"type": "function"
				},
				{
					"inputs": [],
					"name": "totalSupply",
					"outputs": [
						{
							"internalType": "uint256",
							"name": "total",
							"type": "uint256"
						}
					],
					"stateMutability": "view",
					"type": "function"
				},
				{
					"inputs": [
						{
							"internalType": "address",
							"name": "_from",
							"type": "address"
						},
						{
							"internalType": "address",
							"name": "_to",
							"type": "address"
						},
						{
							"internalType": "uint256",
							"name": "_tokenId",
							"type": "uint256"
						}
					],
					"name": "transferFrom",
					"outputs": [],
					"stateMutability": "nonpayable",
					"type": "function"
				},
				{
					"inputs": [
						{
							"internalType": "address",
							"name": "newOwner",
							"type": "address"
						}
					],
					"name": "transferOwnership",
					"outputs": [],
					"stateMutability": "nonpayable",
					"type": "function"
				}
			],
			"devdoc": {
				"kind": "dev",
				"methods": {},
				"version": 1
			},
			"evm": {
				"assembly": "    /* \"contracts/Licence.sol\":312:5471  contract LicenseToken is owned {\r... */\n  mstore(0x40, 0x80)\n    /* \"contracts/Licence.sol\":1040:1061  constructor()  {\r... */\n  callvalue\n  dup1\n  iszero\n  tag_1\n  jumpi\n  0x00\n  dup1\n  revert\ntag_1:\n  pop\n    /* \"contracts/Licence.sol\":108:118  msg.sender */\n  caller\n    /* \"contracts/Licence.sol\":100:105  owner */\n  0x00\n  dup1\n    /* \"contracts/Licence.sol\":100:118  owner = msg.sender */\n  0x0100\n  exp\n  dup2\n  sload\n  dup2\n  0xffffffffffffffffffffffffffffffffffffffff\n  mul\n  not\n  and\n  swap1\n  dup4\n  0xffffffffffffffffffffffffffffffffffffffff\n  and\n  mul\n  or\n  swap1\n  sstore\n  pop\n    /* \"contracts/Licence.sol\":312:5471  contract LicenseToken is owned {\r... */\n  dataSize(sub_0)\n  dup1\n  dataOffset(sub_0)\n  0x00\n  codecopy\n  0x00\n  return\nstop\n\nsub_0: assembly {\n        /* \"contracts/Licence.sol\":312:5471  contract LicenseToken is owned {\r... */\n      mstore(0x40, 0x80)\n      callvalue\n      dup1\n      iszero\n      tag_1\n      jumpi\n      0x00\n      dup1\n      revert\n    tag_1:\n      pop\n      jumpi(tag_2, lt(calldatasize, 0x04))\n      shr(0xe0, calldataload(0x00))\n      dup1\n      0x6352211e\n      gt\n      tag_21\n      jumpi\n      dup1\n      0xa8bd9c32\n      gt\n      tag_22\n      jumpi\n      dup1\n      0xa8bd9c32\n      eq\n      tag_16\n      jumpi\n      dup1\n      0xb88d4fde\n      eq\n      tag_17\n      jumpi\n      dup1\n      0xe1721ec8\n      eq\n      tag_18\n      jumpi\n      dup1\n      0xe985e9c5\n      eq\n      tag_19\n      jumpi\n      dup1\n      0xf2fde38b\n      eq\n      tag_20\n      jumpi\n      jump(tag_2)\n    tag_22:\n      dup1\n      0x6352211e\n      eq\n      tag_12\n      jumpi\n      dup1\n      0x70a08231\n      eq\n      tag_13\n      jumpi\n      dup1\n      0x9dc29fac\n      eq\n      tag_14\n      jumpi\n      dup1\n      0xa22cb465\n      eq\n      tag_15\n      jumpi\n      jump(tag_2)\n    tag_21:\n      dup1\n      0x21ea02f9\n      gt\n      tag_23\n      jumpi\n      dup1\n      0x21ea02f9\n      eq\n      tag_7\n      jumpi\n      dup1\n      0x23b872dd\n      eq\n      tag_8\n      jumpi\n      dup1\n      0x42842e0e\n      eq\n      tag_9\n      jumpi\n      dup1\n      0x48c20f3d\n      eq\n      tag_10\n      jumpi\n      dup1\n      0x5690d0d9\n      eq\n      tag_11\n      jumpi\n      jump(tag_2)\n    tag_23:\n      dup1\n      0x081812fc\n      eq\n      tag_3\n      jumpi\n      dup1\n      0x095ea7b3\n      eq\n      tag_4\n      jumpi\n      dup1\n      0x18160ddd\n      eq\n      tag_5\n      jumpi\n      dup1\n      0x1d36e06c\n      eq\n      tag_6\n      jumpi\n    tag_2:\n      0x00\n      dup1\n      revert\n        /* \"contracts/Licence.sol\":2546:2724  function getApproved(uint256 _tokenId) public pure returns (address) {\r... */\n    tag_3:\n      tag_24\n      0x04\n      dup1\n      calldatasize\n      sub\n      dup2\n      add\n      swap1\n      tag_25\n      swap2\n      swap1\n      tag_26\n      jump\t// in\n    tag_25:\n      tag_27\n      jump\t// in\n    tag_24:\n      mload(0x40)\n      tag_28\n      swap2\n      swap1\n      tag_29\n      jump\t// in\n    tag_28:\n      mload(0x40)\n      dup1\n      swap2\n      sub\n      swap1\n      return\n        /* \"contracts/Licence.sol\":1766:2004  function approve(address _to, uint256 _tokenId) public {\r... */\n    tag_4:\n      tag_30\n      0x04\n      dup1\n      calldatasize\n      sub\n      dup2\n      add\n      swap1\n      tag_31\n      swap2\n      swap1\n      tag_32\n      jump\t// in\n    tag_31:\n      tag_33\n      jump\t// in\n    tag_30:\n      stop\n        /* \"contracts/Licence.sol\":1094:1186  function totalSupply() public view returns (uint256 total) {\r... */\n    tag_5:\n      tag_34\n      tag_35\n      jump\t// in\n    tag_34:\n      mload(0x40)\n      tag_36\n      swap2\n      swap1\n      tag_37\n      jump\t// in\n    tag_36:\n      mload(0x40)\n      dup1\n      swap2\n      sub\n      swap1\n      return\n        /* \"contracts/Licence.sol\":670:723  mapping (uint256 => address) public tokenIndexToOwner */\n    tag_6:\n      tag_38\n      0x04\n      dup1\n      calldatasize\n      sub\n      dup2\n      add\n      swap1\n      tag_39\n      swap2\n      swap1\n      tag_26\n      jump\t// in\n    tag_39:\n      tag_40\n      jump\t// in\n    tag_38:\n      mload(0x40)\n      tag_41\n      swap2\n      swap1\n      tag_29\n      jump\t// in\n    tag_41:\n      mload(0x40)\n      dup1\n      swap2\n      sub\n      swap1\n      return\n        /* \"contracts/Licence.sol\":2956:3120  function giveLicense(address _account, uint _type) onlyOwner public {\r... */\n    tag_7:\n      tag_42\n      0x04\n      dup1\n      calldatasize\n      sub\n      dup2\n      add\n      swap1\n      tag_43\n      swap2\n      swap1\n      tag_32\n      jump\t// in\n    tag_43:\n      tag_44\n      jump\t// in\n    tag_42:\n      stop\n        /* \"contracts/Licence.sol\":1516:1757  function transferFrom(address _from, address _to, uint256 _tokenId) onlyOwner public {\r... */\n    tag_8:\n      tag_45\n      0x04\n      dup1\n      calldatasize\n      sub\n      dup2\n      add\n      swap1\n      tag_46\n      swap2\n      swap1\n      tag_47\n      jump\t// in\n    tag_46:\n      tag_48\n      jump\t// in\n    tag_45:\n      stop\n        /* \"contracts/Licence.sol\":2013:2177  function safeTransferFrom(address _from, address _to, uint256 _tokenId) public {\r... */\n    tag_9:\n      tag_49\n      0x04\n      dup1\n      calldatasize\n      sub\n      dup2\n      add\n      swap1\n      tag_50\n      swap2\n      swap1\n      tag_47\n      jump\t// in\n    tag_50:\n      tag_51\n      jump\t// in\n    tag_49:\n      stop\n        /* \"contracts/Licence.sol\":3791:4170  function isLicenseActive(address _account, uint256 _tokenId) public view returns (uint state){\r... */\n    tag_10:\n      tag_52\n      0x04\n      dup1\n      calldatasize\n      sub\n      dup2\n      add\n      swap1\n      tag_53\n      swap2\n      swap1\n      tag_32\n      jump\t// in\n    tag_53:\n      tag_54\n      jump\t// in\n    tag_52:\n      mload(0x40)\n      tag_55\n      swap2\n      swap1\n      tag_37\n      jump\t// in\n    tag_55:\n      mload(0x40)\n      dup1\n      swap2\n      sub\n      swap1\n      return\n        /* \"contracts/Licence.sol\":3129:3490  function activate(uint _tokenId, string memory _deviceId) onlyOwner public {\r... */\n    tag_11:\n      tag_56\n      0x04\n      dup1\n      calldatasize\n      sub\n      dup2\n      add\n      swap1\n      tag_57\n      swap2\n      swap1\n      tag_58\n      jump\t// in\n    tag_57:\n      tag_59\n      jump\t// in\n    tag_56:\n      stop\n        /* \"contracts/Licence.sol\":1329:1507  function ownerOf(uint256 _tokenId) public view returns (address owner) {\r... */\n    tag_12:\n      tag_60\n      0x04\n      dup1\n      calldatasize\n      sub\n      dup2\n      add\n      swap1\n      tag_61\n      swap2\n      swap1\n      tag_26\n      jump\t// in\n    tag_61:\n      tag_62\n      jump\t// in\n    tag_60:\n      mload(0x40)\n      tag_63\n      swap2\n      swap1\n      tag_29\n      jump\t// in\n    tag_63:\n      mload(0x40)\n      dup1\n      swap2\n      sub\n      swap1\n      return\n        /* \"contracts/Licence.sol\":1195:1320  function balanceOf(address _account) public view returns (uint256 balance) {\r... */\n    tag_13:\n      tag_64\n      0x04\n      dup1\n      calldatasize\n      sub\n      dup2\n      add\n      swap1\n      tag_65\n      swap2\n      swap1\n      tag_66\n      jump\t// in\n    tag_65:\n      tag_67\n      jump\t// in\n    tag_64:\n      mload(0x40)\n      tag_68\n      swap2\n      swap1\n      tag_37\n      jump\t// in\n    tag_68:\n      mload(0x40)\n      dup1\n      swap2\n      sub\n      swap1\n      return\n        /* \"contracts/Licence.sol\":3499:3782  function burn(address _account, uint _tokenId) onlyOwner public {\r... */\n    tag_14:\n      tag_69\n      0x04\n      dup1\n      calldatasize\n      sub\n      dup2\n      add\n      swap1\n      tag_70\n      swap2\n      swap1\n      tag_32\n      jump\t// in\n    tag_70:\n      tag_71\n      jump\t// in\n    tag_69:\n      stop\n        /* \"contracts/Licence.sol\":2378:2537  function setApprovalForAll(address _operator, bool _approved) public  pure{\r... */\n    tag_15:\n      tag_72\n      0x04\n      dup1\n      calldatasize\n      sub\n      dup2\n      add\n      swap1\n      tag_73\n      swap2\n      swap1\n      tag_74\n      jump\t// in\n    tag_73:\n      tag_75\n      jump\t// in\n    tag_72:\n      stop\n        /* \"contracts/Licence.sol\":781:837  mapping (uint256 => address) public tokenIndexToApproved */\n    tag_16:\n      tag_76\n      0x04\n      dup1\n      calldatasize\n      sub\n      dup2\n      add\n      swap1\n      tag_77\n      swap2\n      swap1\n      tag_26\n      jump\t// in\n    tag_77:\n      tag_78\n      jump\t// in\n    tag_76:\n      mload(0x40)\n      tag_79\n      swap2\n      swap1\n      tag_29\n      jump\t// in\n    tag_79:\n      mload(0x40)\n      dup1\n      swap2\n      sub\n      swap1\n      return\n        /* \"contracts/Licence.sol\":2186:2369  function safeTransferFrom(address _from, address _to, uint256 _tokenId, bytes memory data) public {\r... */\n    tag_17:\n      tag_80\n      0x04\n      dup1\n      calldatasize\n      sub\n      dup2\n      add\n      swap1\n      tag_81\n      swap2\n      swap1\n      tag_82\n      jump\t// in\n    tag_81:\n      tag_83\n      jump\t// in\n    tag_80:\n      stop\n        /* \"contracts/Licence.sol\":4179:4504  function handleExpiredLicense(address _account, uint256 _tokenId) onlyOwner public {\r... */\n    tag_18:\n      tag_84\n      0x04\n      dup1\n      calldatasize\n      sub\n      dup2\n      add\n      swap1\n      tag_85\n      swap2\n      swap1\n      tag_32\n      jump\t// in\n    tag_85:\n      tag_86\n      jump\t// in\n    tag_84:\n      stop\n        /* \"contracts/Licence.sol\":2733:2925  function isApprovedForAll(address _owner, address _operator) public pure returns (bool) {\r... */\n    tag_19:\n      tag_87\n      0x04\n      dup1\n      calldatasize\n      sub\n      dup2\n      add\n      swap1\n      tag_88\n      swap2\n      swap1\n      tag_89\n      jump\t// in\n    tag_88:\n      tag_90\n      jump\t// in\n    tag_87:\n      mload(0x40)\n      tag_91\n      swap2\n      swap1\n      tag_92\n      jump\t// in\n    tag_91:\n      mload(0x40)\n      dup1\n      swap2\n      sub\n      swap1\n      return\n        /* \"contracts/Licence.sol\":210:302  function transferOwnership(address newOwner) onlyOwner  public {\r... */\n    tag_20:\n      tag_93\n      0x04\n      dup1\n      calldatasize\n      sub\n      dup2\n      add\n      swap1\n      tag_94\n      swap2\n      swap1\n      tag_66\n      jump\t// in\n    tag_94:\n      tag_95\n      jump\t// in\n    tag_93:\n      stop\n        /* \"contracts/Licence.sol\":2546:2724  function getApproved(uint256 _tokenId) public pure returns (address) {\r... */\n    tag_27:\n        /* \"contracts/Licence.sol\":2606:2613  address */\n      0x00\n        /* \"contracts/Licence.sol\":2546:2724  function getApproved(uint256 _tokenId) public pure returns (address) {\r... */\n      swap2\n      swap1\n      pop\n      jump\t// out\n        /* \"contracts/Licence.sol\":1766:2004  function approve(address _to, uint256 _tokenId) public {\r... */\n    tag_33:\n        /* \"contracts/Licence.sol\":1836:1863  _owns(msg.sender, _tokenId) */\n      tag_98\n        /* \"contracts/Licence.sol\":1842:1852  msg.sender */\n      caller\n        /* \"contracts/Licence.sol\":1854:1862  _tokenId */\n      dup3\n        /* \"contracts/Licence.sol\":1836:1841  _owns */\n      tag_99\n        /* \"contracts/Licence.sol\":1836:1863  _owns(msg.sender, _tokenId) */\n      jump\t// in\n    tag_98:\n        /* \"contracts/Licence.sol\":1828:1864  require(_owns(msg.sender, _tokenId)) */\n      tag_100\n      jumpi\n      0x00\n      dup1\n      revert\n    tag_100:\n        /* \"contracts/Licence.sol\":1904:1907  _to */\n      dup2\n        /* \"contracts/Licence.sol\":1871:1891  tokenIndexToApproved */\n      0x04\n        /* \"contracts/Licence.sol\":1871:1901  tokenIndexToApproved[_tokenId] */\n      0x00\n        /* \"contracts/Licence.sol\":1892:1900  _tokenId */\n      dup4\n        /* \"contracts/Licence.sol\":1871:1901  tokenIndexToApproved[_tokenId] */\n      dup2\n      mstore\n      0x20\n      add\n      swap1\n      dup2\n      mstore\n      0x20\n      add\n      0x00\n      keccak256\n      0x00\n        /* \"contracts/Licence.sol\":1871:1907  tokenIndexToApproved[_tokenId] = _to */\n      0x0100\n      exp\n      dup2\n      sload\n      dup2\n      0xffffffffffffffffffffffffffffffffffffffff\n      mul\n      not\n      and\n      swap1\n      dup4\n      0xffffffffffffffffffffffffffffffffffffffff\n      and\n      mul\n      or\n      swap1\n      sstore\n      pop\n        /* \"contracts/Licence.sol\":1919:1998  Approval(tokenIndexToOwner[_tokenId], tokenIndexToApproved[_tokenId], _tokenId) */\n      0x8c5be1e5ebec7d5bd14f71427d1e84f3dd0314c0f7b2291e5b200ac8c7c3b925\n        /* \"contracts/Licence.sol\":1928:1945  tokenIndexToOwner */\n      0x02\n        /* \"contracts/Licence.sol\":1928:1955  tokenIndexToOwner[_tokenId] */\n      0x00\n        /* \"contracts/Licence.sol\":1946:1954  _tokenId */\n      dup4\n        /* \"contracts/Licence.sol\":1928:1955  tokenIndexToOwner[_tokenId] */\n      dup2\n      mstore\n      0x20\n      add\n      swap1\n      dup2\n      mstore\n      0x20\n      add\n      0x00\n      keccak256\n      0x00\n      swap1\n      sload\n      swap1\n      0x0100\n      exp\n      swap1\n      div\n      0xffffffffffffffffffffffffffffffffffffffff\n      and\n        /* \"contracts/Licence.sol\":1957:1977  tokenIndexToApproved */\n      0x04\n        /* \"contracts/Licence.sol\":1957:1987  tokenIndexToApproved[_tokenId] */\n      0x00\n        /* \"contracts/Licence.sol\":1978:1986  _tokenId */\n      dup5\n        /* \"contracts/Licence.sol\":1957:1987  tokenIndexToApproved[_tokenId] */\n      dup2\n      mstore\n      0x20\n      add\n      swap1\n      dup2\n      mstore\n      0x20\n      add\n      0x00\n      keccak256\n      0x00\n      swap1\n      sload\n      swap1\n      0x0100\n      exp\n      swap1\n      div\n      0xffffffffffffffffffffffffffffffffffffffff\n      and\n        /* \"contracts/Licence.sol\":1989:1997  _tokenId */\n      dup4\n        /* \"contracts/Licence.sol\":1919:1998  Approval(tokenIndexToOwner[_tokenId], tokenIndexToApproved[_tokenId], _tokenId) */\n      mload(0x40)\n      tag_101\n      swap4\n      swap3\n      swap2\n      swap1\n      tag_102\n      jump\t// in\n    tag_101:\n      mload(0x40)\n      dup1\n      swap2\n      sub\n      swap1\n      log1\n        /* \"contracts/Licence.sol\":1766:2004  function approve(address _to, uint256 _tokenId) public {\r... */\n      pop\n      pop\n      jump\t// out\n        /* \"contracts/Licence.sol\":1094:1186  function totalSupply() public view returns (uint256 total) {\r... */\n    tag_35:\n        /* \"contracts/Licence.sol\":1138:1151  uint256 total */\n      0x00\n        /* \"contracts/Licence.sol\":1167:1173  tokens */\n      0x01\n        /* \"contracts/Licence.sol\":1167:1180  tokens.length */\n      dup1\n      sload\n      swap1\n      pop\n        /* \"contracts/Licence.sol\":1160:1180  return tokens.length */\n      swap1\n      pop\n        /* \"contracts/Licence.sol\":1094:1186  function totalSupply() public view returns (uint256 total) {\r... */\n      swap1\n      jump\t// out\n        /* \"contracts/Licence.sol\":670:723  mapping (uint256 => address) public tokenIndexToOwner */\n    tag_40:\n      mstore(0x20, 0x02)\n      dup1\n      0x00\n      mstore\n      keccak256(0x00, 0x40)\n      0x00\n      swap2\n      pop\n      sload\n      swap1\n      0x0100\n      exp\n      swap1\n      div\n      0xffffffffffffffffffffffffffffffffffffffff\n      and\n      dup2\n      jump\t// out\n        /* \"contracts/Licence.sol\":2956:3120  function giveLicense(address _account, uint _type) onlyOwner public {\r... */\n    tag_44:\n        /* \"contracts/Licence.sol\":181:186  owner */\n      0x00\n      dup1\n      sload\n      swap1\n      0x0100\n      exp\n      swap1\n      div\n      0xffffffffffffffffffffffffffffffffffffffff\n      and\n        /* \"contracts/Licence.sol\":167:186  msg.sender == owner */\n      0xffffffffffffffffffffffffffffffffffffffff\n      and\n        /* \"contracts/Licence.sol\":167:177  msg.sender */\n      caller\n        /* \"contracts/Licence.sol\":167:186  msg.sender == owner */\n      0xffffffffffffffffffffffffffffffffffffffff\n      and\n      eq\n        /* \"contracts/Licence.sol\":159:187  require(msg.sender == owner) */\n      tag_105\n      jumpi\n      0x00\n      dup1\n      revert\n    tag_105:\n        /* \"contracts/Licence.sol\":3031:3046  uint256 tokenId */\n      0x00\n        /* \"contracts/Licence.sol\":3049:3071  _mint(_account, _type) */\n      tag_107\n        /* \"contracts/Licence.sol\":3055:3063  _account */\n      dup4\n        /* \"contracts/Licence.sol\":3065:3070  _type */\n      dup4\n        /* \"contracts/Licence.sol\":3049:3054  _mint */\n      tag_108\n        /* \"contracts/Licence.sol\":3049:3071  _mint(_account, _type) */\n      jump\t// in\n    tag_107:\n        /* \"contracts/Licence.sol\":3031:3071  uint256 tokenId = _mint(_account, _type) */\n      swap1\n      pop\n        /* \"contracts/Licence.sol\":3083:3114  LicenseGiven(_account, tokenId) */\n      0x438c1191298866ed823d6b9068bc5bdcdea4883fb9ad0584b7c51354efa3c44e\n        /* \"contracts/Licence.sol\":3096:3104  _account */\n      dup4\n        /* \"contracts/Licence.sol\":3106:3113  tokenId */\n      dup3\n        /* \"contracts/Licence.sol\":3083:3114  LicenseGiven(_account, tokenId) */\n      mload(0x40)\n      tag_109\n      swap3\n      swap2\n      swap1\n      tag_110\n      jump\t// in\n    tag_109:\n      mload(0x40)\n      dup1\n      swap2\n      sub\n      swap1\n      log1\n        /* \"contracts/Licence.sol\":3024:3120  {\r... */\n      pop\n        /* \"contracts/Licence.sol\":2956:3120  function giveLicense(address _account, uint _type) onlyOwner public {\r... */\n      pop\n      pop\n      jump\t// out\n        /* \"contracts/Licence.sol\":1516:1757  function transferFrom(address _from, address _to, uint256 _tokenId) onlyOwner public {\r... */\n    tag_48:\n        /* \"contracts/Licence.sol\":181:186  owner */\n      0x00\n      dup1\n      sload\n      swap1\n      0x0100\n      exp\n      swap1\n      div\n      0xffffffffffffffffffffffffffffffffffffffff\n      and\n        /* \"contracts/Licence.sol\":167:186  msg.sender == owner */\n      0xffffffffffffffffffffffffffffffffffffffff\n      and\n        /* \"contracts/Licence.sol\":167:177  msg.sender */\n      caller\n        /* \"contracts/Licence.sol\":167:186  msg.sender == owner */\n      0xffffffffffffffffffffffffffffffffffffffff\n      and\n      eq\n        /* \"contracts/Licence.sol\":159:187  require(msg.sender == owner) */\n      tag_112\n      jumpi\n      0x00\n      dup1\n      revert\n    tag_112:\n        /* \"contracts/Licence.sol\":1631:1632  0 */\n      0x00\n        /* \"contracts/Licence.sol\":1616:1633  _to != address(0) */\n      0xffffffffffffffffffffffffffffffffffffffff\n      and\n        /* \"contracts/Licence.sol\":1616:1619  _to */\n      dup3\n        /* \"contracts/Licence.sol\":1616:1633  _to != address(0) */\n      0xffffffffffffffffffffffffffffffffffffffff\n      and\n      eq\n      iszero\n        /* \"contracts/Licence.sol\":1608:1634  require(_to != address(0)) */\n      tag_114\n      jumpi\n      0x00\n      dup1\n      revert\n    tag_114:\n        /* \"contracts/Licence.sol\":1664:1668  this */\n      address\n        /* \"contracts/Licence.sol\":1649:1669  _to != address(this) */\n      0xffffffffffffffffffffffffffffffffffffffff\n      and\n        /* \"contracts/Licence.sol\":1649:1652  _to */\n      dup3\n        /* \"contracts/Licence.sol\":1649:1669  _to != address(this) */\n      0xffffffffffffffffffffffffffffffffffffffff\n      and\n      eq\n      iszero\n        /* \"contracts/Licence.sol\":1641:1670  require(_to != address(this)) */\n      tag_115\n      jumpi\n      0x00\n      dup1\n      revert\n    tag_115:\n        /* \"contracts/Licence.sol\":1685:1707  _owns(_from, _tokenId) */\n      tag_116\n        /* \"contracts/Licence.sol\":1691:1696  _from */\n      dup4\n        /* \"contracts/Licence.sol\":1698:1706  _tokenId */\n      dup3\n        /* \"contracts/Licence.sol\":1685:1690  _owns */\n      tag_99\n        /* \"contracts/Licence.sol\":1685:1707  _owns(_from, _tokenId) */\n      jump\t// in\n    tag_116:\n        /* \"contracts/Licence.sol\":1677:1708  require(_owns(_from, _tokenId)) */\n      tag_117\n      jumpi\n      0x00\n      dup1\n      revert\n    tag_117:\n        /* \"contracts/Licence.sol\":1720:1751  _transfer(_from, _to, _tokenId) */\n      tag_118\n        /* \"contracts/Licence.sol\":1730:1735  _from */\n      dup4\n        /* \"contracts/Licence.sol\":1737:1740  _to */\n      dup4\n        /* \"contracts/Licence.sol\":1742:1750  _tokenId */\n      dup4\n        /* \"contracts/Licence.sol\":1720:1729  _transfer */\n      tag_119\n        /* \"contracts/Licence.sol\":1720:1751  _transfer(_from, _to, _tokenId) */\n      jump\t// in\n    tag_118:\n        /* \"contracts/Licence.sol\":1516:1757  function transferFrom(address _from, address _to, uint256 _tokenId) onlyOwner public {\r... */\n      pop\n      pop\n      pop\n      jump\t// out\n        /* \"contracts/Licence.sol\":2013:2177  function safeTransferFrom(address _from, address _to, uint256 _tokenId) public {\r... */\n    tag_51:\n      pop\n      pop\n      pop\n      jump\t// out\n        /* \"contracts/Licence.sol\":3791:4170  function isLicenseActive(address _account, uint256 _tokenId) public view returns (uint state){\r... */\n    tag_54:\n        /* \"contracts/Licence.sol\":3873:3883  uint state */\n      0x00\n        /* \"contracts/Licence.sol\":3930:3938  _account */\n      dup3\n        /* \"contracts/Licence.sol\":3899:3938  tokenIndexToOwner[_tokenId] == _account */\n      0xffffffffffffffffffffffffffffffffffffffff\n      and\n        /* \"contracts/Licence.sol\":3899:3916  tokenIndexToOwner */\n      0x02\n        /* \"contracts/Licence.sol\":3899:3926  tokenIndexToOwner[_tokenId] */\n      0x00\n        /* \"contracts/Licence.sol\":3917:3925  _tokenId */\n      dup5\n        /* \"contracts/Licence.sol\":3899:3926  tokenIndexToOwner[_tokenId] */\n      dup2\n      mstore\n      0x20\n      add\n      swap1\n      dup2\n      mstore\n      0x20\n      add\n      0x00\n      keccak256\n      0x00\n      swap1\n      sload\n      swap1\n      0x0100\n      exp\n      swap1\n      div\n      0xffffffffffffffffffffffffffffffffffffffff\n      and\n        /* \"contracts/Licence.sol\":3899:3938  tokenIndexToOwner[_tokenId] == _account */\n      0xffffffffffffffffffffffffffffffffffffffff\n      and\n      eq\n        /* \"contracts/Licence.sol\":3891:3939  require(tokenIndexToOwner[_tokenId] == _account) */\n      tag_122\n      jumpi\n      0x00\n      dup1\n      revert\n    tag_122:\n        /* \"contracts/Licence.sol\":3951:3975  LicenseInfo memory token */\n      0x00\n        /* \"contracts/Licence.sol\":3978:3984  tokens */\n      0x01\n        /* \"contracts/Licence.sol\":3985:3993  _tokenId */\n      dup4\n        /* \"contracts/Licence.sol\":3978:3994  tokens[_tokenId] */\n      dup2\n      sload\n      dup2\n      lt\n      tag_123\n      jumpi\n      tag_124\n      tag_125\n      jump\t// in\n    tag_124:\n    tag_123:\n      swap1\n      0x00\n      mstore\n      keccak256(0x00, 0x20)\n      swap1\n      0x05\n      mul\n      add\n        /* \"contracts/Licence.sol\":3951:3994  LicenseInfo memory token = tokens[_tokenId] */\n      mload(0x40)\n      dup1\n      0xa0\n      add\n      0x40\n      mstore\n      swap1\n      dup2\n      0x00\n      dup3\n      add\n      0x00\n      swap1\n      sload\n      swap1\n      0x0100\n      exp\n      swap1\n      div\n      0xff\n      and\n      0x01\n      dup2\n      gt\n      iszero\n      tag_127\n      jumpi\n      tag_128\n      tag_129\n      jump\t// in\n    tag_128:\n    tag_127:\n      0x01\n      dup2\n      gt\n      iszero\n      tag_130\n      jumpi\n      tag_131\n      tag_129\n      jump\t// in\n    tag_131:\n    tag_130:\n      dup2\n      mstore\n      0x20\n      add\n      0x01\n      dup3\n      add\n      sload\n      dup2\n      mstore\n      0x20\n      add\n      0x02\n      dup3\n      add\n      sload\n      dup2\n      mstore\n      0x20\n      add\n      0x03\n      dup3\n      add\n      0x00\n      swap1\n      sload\n      swap1\n      0x0100\n      exp\n      swap1\n      div\n      0xff\n      and\n      0x02\n      dup2\n      gt\n      iszero\n      tag_132\n      jumpi\n      tag_133\n      tag_129\n      jump\t// in\n    tag_133:\n    tag_132:\n      0x02\n      dup2\n      gt\n      iszero\n      tag_134\n      jumpi\n      tag_135\n      tag_129\n      jump\t// in\n    tag_135:\n    tag_134:\n      dup2\n      mstore\n      0x20\n      add\n      0x04\n      dup3\n      add\n      dup1\n      sload\n      tag_136\n      swap1\n      tag_137\n      jump\t// in\n    tag_136:\n      dup1\n      0x1f\n      add\n      0x20\n      dup1\n      swap2\n      div\n      mul\n      0x20\n      add\n      mload(0x40)\n      swap1\n      dup2\n      add\n      0x40\n      mstore\n      dup1\n      swap3\n      swap2\n      swap1\n      dup2\n      dup2\n      mstore\n      0x20\n      add\n      dup3\n      dup1\n      sload\n      tag_138\n      swap1\n      tag_137\n      jump\t// in\n    tag_138:\n      dup1\n      iszero\n      tag_139\n      jumpi\n      dup1\n      0x1f\n      lt\n      tag_140\n      jumpi\n      0x0100\n      dup1\n      dup4\n      sload\n      div\n      mul\n      dup4\n      mstore\n      swap2\n      0x20\n      add\n      swap2\n      jump(tag_139)\n    tag_140:\n      dup3\n      add\n      swap2\n      swap1\n      0x00\n      mstore\n      keccak256(0x00, 0x20)\n      swap1\n    tag_141:\n      dup2\n      sload\n      dup2\n      mstore\n      swap1\n      0x01\n      add\n      swap1\n      0x20\n      add\n      dup1\n      dup4\n      gt\n      tag_141\n      jumpi\n      dup3\n      swap1\n      sub\n      0x1f\n      and\n      dup3\n      add\n      swap2\n    tag_139:\n      pop\n      pop\n      pop\n      pop\n      pop\n      dup2\n      mstore\n      pop\n      pop\n      swap1\n      pop\n        /* \"contracts/Licence.sol\":4023:4038  block.timestamp */\n      timestamp\n        /* \"contracts/Licence.sol\":4005:4010  token */\n      dup2\n        /* \"contracts/Licence.sol\":4005:4020  token.expiresOn */\n      0x40\n      add\n      mload\n        /* \"contracts/Licence.sol\":4005:4038  token.expiresOn < block.timestamp */\n      lt\n        /* \"contracts/Licence.sol\":4005:4076  token.expiresOn < block.timestamp && token.state == LicenseState.ACTIVE */\n      dup1\n      iszero\n      tag_142\n      jumpi\n      pop\n        /* \"contracts/Licence.sol\":4057:4076  LicenseState.ACTIVE */\n      0x00\n        /* \"contracts/Licence.sol\":4042:4076  token.state == LicenseState.ACTIVE */\n      0x02\n      dup2\n      gt\n      iszero\n      tag_143\n      jumpi\n      tag_144\n      tag_129\n      jump\t// in\n    tag_144:\n    tag_143:\n        /* \"contracts/Licence.sol\":4042:4047  token */\n      dup2\n        /* \"contracts/Licence.sol\":4042:4053  token.state */\n      0x60\n      add\n      mload\n        /* \"contracts/Licence.sol\":4042:4076  token.state == LicenseState.ACTIVE */\n      0x02\n      dup2\n      gt\n      iszero\n      tag_145\n      jumpi\n      tag_146\n      tag_129\n      jump\t// in\n    tag_146:\n    tag_145:\n      eq\n        /* \"contracts/Licence.sol\":4005:4076  token.expiresOn < block.timestamp && token.state == LicenseState.ACTIVE */\n    tag_142:\n        /* \"contracts/Licence.sol\":4001:4129  if (token.expiresOn < block.timestamp && token.state == LicenseState.ACTIVE) {\r... */\n      iszero\n      tag_147\n      jumpi\n        /* \"contracts/Licence.sol\":4100:4120  LicenseState.EXPIRED */\n      0x02\n        /* \"contracts/Licence.sol\":4095:4121  uint(LicenseState.EXPIRED) */\n      dup1\n      dup2\n      gt\n      iszero\n      tag_148\n      jumpi\n      tag_149\n      tag_129\n      jump\t// in\n    tag_149:\n    tag_148:\n        /* \"contracts/Licence.sol\":4088:4121  return uint(LicenseState.EXPIRED) */\n      swap2\n      pop\n      pop\n      jump(tag_121)\n        /* \"contracts/Licence.sol\":4001:4129  if (token.expiresOn < block.timestamp && token.state == LicenseState.ACTIVE) {\r... */\n    tag_147:\n        /* \"contracts/Licence.sol\":4152:4157  token */\n      dup1\n        /* \"contracts/Licence.sol\":4152:4163  token.state */\n      0x60\n      add\n      mload\n        /* \"contracts/Licence.sol\":4147:4164  uint(token.state) */\n      0x02\n      dup2\n      gt\n      iszero\n      tag_150\n      jumpi\n      tag_151\n      tag_129\n      jump\t// in\n    tag_151:\n    tag_150:\n        /* \"contracts/Licence.sol\":4140:4164  return uint(token.state) */\n      swap2\n      pop\n      pop\n        /* \"contracts/Licence.sol\":3791:4170  function isLicenseActive(address _account, uint256 _tokenId) public view returns (uint state){\r... */\n    tag_121:\n      swap3\n      swap2\n      pop\n      pop\n      jump\t// out\n        /* \"contracts/Licence.sol\":3129:3490  function activate(uint _tokenId, string memory _deviceId) onlyOwner public {\r... */\n    tag_59:\n        /* \"contracts/Licence.sol\":181:186  owner */\n      0x00\n      dup1\n      sload\n      swap1\n      0x0100\n      exp\n      swap1\n      div\n      0xffffffffffffffffffffffffffffffffffffffff\n      and\n        /* \"contracts/Licence.sol\":167:186  msg.sender == owner */\n      0xffffffffffffffffffffffffffffffffffffffff\n      and\n        /* \"contracts/Licence.sol\":167:177  msg.sender */\n      caller\n        /* \"contracts/Licence.sol\":167:186  msg.sender == owner */\n      0xffffffffffffffffffffffffffffffffffffffff\n      and\n      eq\n        /* \"contracts/Licence.sol\":159:187  require(msg.sender == owner) */\n      tag_153\n      jumpi\n      0x00\n      dup1\n      revert\n    tag_153:\n        /* \"contracts/Licence.sol\":3211:3236  LicenseInfo storage token */\n      0x00\n        /* \"contracts/Licence.sol\":3239:3245  tokens */\n      0x01\n        /* \"contracts/Licence.sol\":3246:3254  _tokenId */\n      dup4\n        /* \"contracts/Licence.sol\":3239:3255  tokens[_tokenId] */\n      dup2\n      sload\n      dup2\n      lt\n      tag_155\n      jumpi\n      tag_156\n      tag_125\n      jump\t// in\n    tag_156:\n    tag_155:\n      swap1\n      0x00\n      mstore\n      keccak256(0x00, 0x20)\n      swap1\n      0x05\n      mul\n      add\n        /* \"contracts/Licence.sol\":3211:3255  LicenseInfo storage token = tokens[_tokenId] */\n      swap1\n      pop\n        /* \"contracts/Licence.sol\":3292:3293  0 */\n      0x00\n        /* \"contracts/Licence.sol\":3270:3275  token */\n      dup2\n        /* \"contracts/Licence.sol\":3270:3288  token.registeredOn */\n      0x01\n      add\n      sload\n        /* \"contracts/Licence.sol\":3270:3293  token.registeredOn != 0 */\n      eq\n      iszero\n        /* \"contracts/Licence.sol\":3262:3294  require(token.registeredOn != 0) */\n      tag_158\n      jumpi\n      0x00\n      dup1\n      revert\n    tag_158:\n        /* \"contracts/Licence.sol\":3324:3345  LicenseState.INACTIVE */\n      0x01\n        /* \"contracts/Licence.sol\":3309:3345  token.state == LicenseState.INACTIVE */\n      0x02\n      dup2\n      gt\n      iszero\n      tag_159\n      jumpi\n      tag_160\n      tag_129\n      jump\t// in\n    tag_160:\n    tag_159:\n        /* \"contracts/Licence.sol\":3309:3314  token */\n      dup2\n        /* \"contracts/Licence.sol\":3309:3320  token.state */\n      0x03\n      add\n      0x00\n      swap1\n      sload\n      swap1\n      0x0100\n      exp\n      swap1\n      div\n      0xff\n      and\n        /* \"contracts/Licence.sol\":3309:3345  token.state == LicenseState.INACTIVE */\n      0x02\n      dup2\n      gt\n      iszero\n      tag_161\n      jumpi\n      tag_162\n      tag_129\n      jump\t// in\n    tag_162:\n    tag_161:\n      eq\n        /* \"contracts/Licence.sol\":3301:3346  require(token.state == LicenseState.INACTIVE) */\n      tag_163\n      jumpi\n      0x00\n      dup1\n      revert\n    tag_163:\n        /* \"contracts/Licence.sol\":3372:3391  LicenseState.ACTIVE */\n      0x00\n        /* \"contracts/Licence.sol\":3358:3363  token */\n      dup2\n        /* \"contracts/Licence.sol\":3358:3369  token.state */\n      0x03\n      add\n      0x00\n        /* \"contracts/Licence.sol\":3358:3391  token.state = LicenseState.ACTIVE */\n      0x0100\n      exp\n      dup2\n      sload\n      dup2\n      0xff\n      mul\n      not\n      and\n      swap1\n      dup4\n      0x02\n      dup2\n      gt\n      iszero\n      tag_164\n      jumpi\n      tag_165\n      tag_129\n      jump\t// in\n    tag_165:\n    tag_164:\n      mul\n      or\n      swap1\n      sstore\n      pop\n        /* \"contracts/Licence.sol\":467:474  30 days */\n      0x278d00\n        /* \"contracts/Licence.sol\":3416:3431  block.timestamp */\n      timestamp\n        /* \"contracts/Licence.sol\":3416:3451  block.timestamp + LICENSE_LIFE_TIME */\n      tag_166\n      swap2\n      swap1\n      tag_167\n      jump\t// in\n    tag_166:\n        /* \"contracts/Licence.sol\":3398:3403  token */\n      dup2\n        /* \"contracts/Licence.sol\":3398:3413  token.expiresOn */\n      0x02\n      add\n        /* \"contracts/Licence.sol\":3398:3451  token.expiresOn = block.timestamp + LICENSE_LIFE_TIME */\n      dup2\n      swap1\n      sstore\n      pop\n        /* \"contracts/Licence.sol\":3475:3484  _deviceId */\n      dup2\n        /* \"contracts/Licence.sol\":3458:3463  token */\n      dup2\n        /* \"contracts/Licence.sol\":3458:3472  token.deviceId */\n      0x04\n      add\n        /* \"contracts/Licence.sol\":3458:3484  token.deviceId = _deviceId */\n      swap1\n      dup1\n      mload\n      swap1\n      0x20\n      add\n      swap1\n      tag_168\n      swap3\n      swap2\n      swap1\n      tag_169\n      jump\t// in\n    tag_168:\n      pop\n        /* \"contracts/Licence.sol\":3204:3490  {\r... */\n      pop\n        /* \"contracts/Licence.sol\":3129:3490  function activate(uint _tokenId, string memory _deviceId) onlyOwner public {\r... */\n      pop\n      pop\n      jump\t// out\n        /* \"contracts/Licence.sol\":1329:1507  function ownerOf(uint256 _tokenId) public view returns (address owner) {\r... */\n    tag_62:\n        /* \"contracts/Licence.sol\":1385:1398  address owner */\n      0x00\n        /* \"contracts/Licence.sol\":1415:1432  tokenIndexToOwner */\n      0x02\n        /* \"contracts/Licence.sol\":1415:1442  tokenIndexToOwner[_tokenId] */\n      0x00\n        /* \"contracts/Licence.sol\":1433:1441  _tokenId */\n      dup4\n        /* \"contracts/Licence.sol\":1415:1442  tokenIndexToOwner[_tokenId] */\n      dup2\n      mstore\n      0x20\n      add\n      swap1\n      dup2\n      mstore\n      0x20\n      add\n      0x00\n      keccak256\n      0x00\n      swap1\n      sload\n      swap1\n      0x0100\n      exp\n      swap1\n      div\n      0xffffffffffffffffffffffffffffffffffffffff\n      and\n        /* \"contracts/Licence.sol\":1407:1442  owner = tokenIndexToOwner[_tokenId] */\n      swap1\n      pop\n        /* \"contracts/Licence.sol\":1474:1475  0 */\n      0x00\n        /* \"contracts/Licence.sol\":1457:1476  owner != address(0) */\n      0xffffffffffffffffffffffffffffffffffffffff\n      and\n        /* \"contracts/Licence.sol\":1457:1462  owner */\n      dup2\n        /* \"contracts/Licence.sol\":1457:1476  owner != address(0) */\n      0xffffffffffffffffffffffffffffffffffffffff\n      and\n      eq\n      iszero\n        /* \"contracts/Licence.sol\":1449:1477  require(owner != address(0)) */\n      tag_171\n      jumpi\n      0x00\n      dup1\n      revert\n    tag_171:\n        /* \"contracts/Licence.sol\":1329:1507  function ownerOf(uint256 _tokenId) public view returns (address owner) {\r... */\n      swap2\n      swap1\n      pop\n      jump\t// out\n        /* \"contracts/Licence.sol\":1195:1320  function balanceOf(address _account) public view returns (uint256 balance) {\r... */\n    tag_67:\n        /* \"contracts/Licence.sol\":1253:1268  uint256 balance */\n      0x00\n        /* \"contracts/Licence.sol\":1285:1304  ownershipTokenCount */\n      0x03\n        /* \"contracts/Licence.sol\":1285:1314  ownershipTokenCount[_account] */\n      0x00\n        /* \"contracts/Licence.sol\":1305:1313  _account */\n      dup4\n        /* \"contracts/Licence.sol\":1285:1314  ownershipTokenCount[_account] */\n      0xffffffffffffffffffffffffffffffffffffffff\n      and\n      0xffffffffffffffffffffffffffffffffffffffff\n      and\n      dup2\n      mstore\n      0x20\n      add\n      swap1\n      dup2\n      mstore\n      0x20\n      add\n      0x00\n      keccak256\n      sload\n        /* \"contracts/Licence.sol\":1278:1314  return ownershipTokenCount[_account] */\n      swap1\n      pop\n        /* \"contracts/Licence.sol\":1195:1320  function balanceOf(address _account) public view returns (uint256 balance) {\r... */\n      swap2\n      swap1\n      pop\n      jump\t// out\n        /* \"contracts/Licence.sol\":3499:3782  function burn(address _account, uint _tokenId) onlyOwner public {\r... */\n    tag_71:\n        /* \"contracts/Licence.sol\":181:186  owner */\n      0x00\n      dup1\n      sload\n      swap1\n      0x0100\n      exp\n      swap1\n      div\n      0xffffffffffffffffffffffffffffffffffffffff\n      and\n        /* \"contracts/Licence.sol\":167:186  msg.sender == owner */\n      0xffffffffffffffffffffffffffffffffffffffff\n      and\n        /* \"contracts/Licence.sol\":167:177  msg.sender */\n      caller\n        /* \"contracts/Licence.sol\":167:186  msg.sender == owner */\n      0xffffffffffffffffffffffffffffffffffffffff\n      and\n      eq\n        /* \"contracts/Licence.sol\":159:187  require(msg.sender == owner) */\n      tag_174\n      jumpi\n      0x00\n      dup1\n      revert\n    tag_174:\n        /* \"contracts/Licence.sol\":3609:3617  _account */\n      dup2\n        /* \"contracts/Licence.sol\":3578:3617  tokenIndexToOwner[_tokenId] == _account */\n      0xffffffffffffffffffffffffffffffffffffffff\n      and\n        /* \"contracts/Licence.sol\":3578:3595  tokenIndexToOwner */\n      0x02\n        /* \"contracts/Licence.sol\":3578:3605  tokenIndexToOwner[_tokenId] */\n      0x00\n        /* \"contracts/Licence.sol\":3596:3604  _tokenId */\n      dup4\n        /* \"contracts/Licence.sol\":3578:3605  tokenIndexToOwner[_tokenId] */\n      dup2\n      mstore\n      0x20\n      add\n      swap1\n      dup2\n      mstore\n      0x20\n      add\n      0x00\n      keccak256\n      0x00\n      swap1\n      sload\n      swap1\n      0x0100\n      exp\n      swap1\n      div\n      0xffffffffffffffffffffffffffffffffffffffff\n      and\n        /* \"contracts/Licence.sol\":3578:3617  tokenIndexToOwner[_tokenId] == _account */\n      0xffffffffffffffffffffffffffffffffffffffff\n      and\n      eq\n        /* \"contracts/Licence.sol\":3570:3618  require(tokenIndexToOwner[_tokenId] == _account) */\n      tag_176\n      jumpi\n      0x00\n      dup1\n      revert\n    tag_176:\n        /* \"contracts/Licence.sol\":3630:3649  ownershipTokenCount */\n      0x03\n        /* \"contracts/Licence.sol\":3630:3659  ownershipTokenCount[_account] */\n      0x00\n        /* \"contracts/Licence.sol\":3650:3658  _account */\n      dup4\n        /* \"contracts/Licence.sol\":3630:3659  ownershipTokenCount[_account] */\n      0xffffffffffffffffffffffffffffffffffffffff\n      and\n      0xffffffffffffffffffffffffffffffffffffffff\n      and\n      dup2\n      mstore\n      0x20\n      add\n      swap1\n      dup2\n      mstore\n      0x20\n      add\n      0x00\n      keccak256\n      0x00\n        /* \"contracts/Licence.sol\":3630:3661  ownershipTokenCount[_account]-- */\n      dup2\n      sload\n      dup1\n      swap3\n      swap2\n      swap1\n      tag_177\n      swap1\n      tag_178\n      jump\t// in\n    tag_177:\n      swap2\n      swap1\n      pop\n      sstore\n      pop\n        /* \"contracts/Licence.sol\":3675:3692  tokenIndexToOwner */\n      0x02\n        /* \"contracts/Licence.sol\":3675:3702  tokenIndexToOwner[_tokenId] */\n      0x00\n        /* \"contracts/Licence.sol\":3693:3701  _tokenId */\n      dup3\n        /* \"contracts/Licence.sol\":3675:3702  tokenIndexToOwner[_tokenId] */\n      dup2\n      mstore\n      0x20\n      add\n      swap1\n      dup2\n      mstore\n      0x20\n      add\n      0x00\n      keccak256\n      0x00\n        /* \"contracts/Licence.sol\":3668:3702  delete tokenIndexToOwner[_tokenId] */\n      0x0100\n      exp\n      dup2\n      sload\n      swap1\n      0xffffffffffffffffffffffffffffffffffffffff\n      mul\n      not\n      and\n      swap1\n      sstore\n        /* \"contracts/Licence.sol\":3716:3722  tokens */\n      0x01\n        /* \"contracts/Licence.sol\":3723:3731  _tokenId */\n      dup2\n        /* \"contracts/Licence.sol\":3716:3732  tokens[_tokenId] */\n      dup2\n      sload\n      dup2\n      lt\n      tag_179\n      jumpi\n      tag_180\n      tag_125\n      jump\t// in\n    tag_180:\n    tag_179:\n      swap1\n      0x00\n      mstore\n      keccak256(0x00, 0x20)\n      swap1\n      0x05\n      mul\n      add\n      0x00\n        /* \"contracts/Licence.sol\":3709:3732  delete tokens[_tokenId] */\n      dup1\n      dup3\n      add\n      exp(0x0100, 0x00)\n      dup2\n      sload\n      swap1\n      0xff\n      mul\n      not\n      and\n      swap1\n      sstore\n      0x01\n      dup3\n      add\n      0x00\n      swap1\n      sstore\n      0x02\n      dup3\n      add\n      0x00\n      swap1\n      sstore\n      0x03\n      dup3\n      add\n      exp(0x0100, 0x00)\n      dup2\n      sload\n      swap1\n      0xff\n      mul\n      not\n      and\n      swap1\n      sstore\n      0x04\n      dup3\n      add\n      0x00\n      tag_182\n      swap2\n      swap1\n      tag_183\n      jump\t// in\n    tag_182:\n      pop\n      pop\n        /* \"contracts/Licence.sol\":3746:3766  tokenIndexToApproved */\n      0x04\n        /* \"contracts/Licence.sol\":3746:3776  tokenIndexToApproved[_tokenId] */\n      0x00\n        /* \"contracts/Licence.sol\":3767:3775  _tokenId */\n      dup3\n        /* \"contracts/Licence.sol\":3746:3776  tokenIndexToApproved[_tokenId] */\n      dup2\n      mstore\n      0x20\n      add\n      swap1\n      dup2\n      mstore\n      0x20\n      add\n      0x00\n      keccak256\n      0x00\n        /* \"contracts/Licence.sol\":3739:3776  delete tokenIndexToApproved[_tokenId] */\n      0x0100\n      exp\n      dup2\n      sload\n      swap1\n      0xffffffffffffffffffffffffffffffffffffffff\n      mul\n      not\n      and\n      swap1\n      sstore\n        /* \"contracts/Licence.sol\":3499:3782  function burn(address _account, uint _tokenId) onlyOwner public {\r... */\n      pop\n      pop\n      jump\t// out\n        /* \"contracts/Licence.sol\":2378:2537  function setApprovalForAll(address _operator, bool _approved) public  pure{\r... */\n    tag_75:\n      pop\n      pop\n      jump\t// out\n        /* \"contracts/Licence.sol\":781:837  mapping (uint256 => address) public tokenIndexToApproved */\n    tag_78:\n      mstore(0x20, 0x04)\n      dup1\n      0x00\n      mstore\n      keccak256(0x00, 0x40)\n      0x00\n      swap2\n      pop\n      sload\n      swap1\n      0x0100\n      exp\n      swap1\n      div\n      0xffffffffffffffffffffffffffffffffffffffff\n      and\n      dup2\n      jump\t// out\n        /* \"contracts/Licence.sol\":2186:2369  function safeTransferFrom(address _from, address _to, uint256 _tokenId, bytes memory data) public {\r... */\n    tag_83:\n      pop\n      pop\n      pop\n      pop\n      jump\t// out\n        /* \"contracts/Licence.sol\":4179:4504  function handleExpiredLicense(address _account, uint256 _tokenId) onlyOwner public {\r... */\n    tag_86:\n        /* \"contracts/Licence.sol\":181:186  owner */\n      0x00\n      dup1\n      sload\n      swap1\n      0x0100\n      exp\n      swap1\n      div\n      0xffffffffffffffffffffffffffffffffffffffff\n      and\n        /* \"contracts/Licence.sol\":167:186  msg.sender == owner */\n      0xffffffffffffffffffffffffffffffffffffffff\n      and\n        /* \"contracts/Licence.sol\":167:177  msg.sender */\n      caller\n        /* \"contracts/Licence.sol\":167:186  msg.sender == owner */\n      0xffffffffffffffffffffffffffffffffffffffff\n      and\n      eq\n        /* \"contracts/Licence.sol\":159:187  require(msg.sender == owner) */\n      tag_187\n      jumpi\n      0x00\n      dup1\n      revert\n    tag_187:\n        /* \"contracts/Licence.sol\":4308:4316  _account */\n      dup2\n        /* \"contracts/Licence.sol\":4277:4316  tokenIndexToOwner[_tokenId] == _account */\n      0xffffffffffffffffffffffffffffffffffffffff\n      and\n        /* \"contracts/Licence.sol\":4277:4294  tokenIndexToOwner */\n      0x02\n        /* \"contracts/Licence.sol\":4277:4304  tokenIndexToOwner[_tokenId] */\n      0x00\n        /* \"contracts/Licence.sol\":4295:4303  _tokenId */\n      dup4\n        /* \"contracts/Licence.sol\":4277:4304  tokenIndexToOwner[_tokenId] */\n      dup2\n      mstore\n      0x20\n      add\n      swap1\n      dup2\n      mstore\n      0x20\n      add\n      0x00\n      keccak256\n      0x00\n      swap1\n      sload\n      swap1\n      0x0100\n      exp\n      swap1\n      div\n      0xffffffffffffffffffffffffffffffffffffffff\n      and\n        /* \"contracts/Licence.sol\":4277:4316  tokenIndexToOwner[_tokenId] == _account */\n      0xffffffffffffffffffffffffffffffffffffffff\n      and\n      eq\n        /* \"contracts/Licence.sol\":4269:4317  require(tokenIndexToOwner[_tokenId] == _account) */\n      tag_189\n      jumpi\n      0x00\n      dup1\n      revert\n    tag_189:\n        /* \"contracts/Licence.sol\":4329:4354  LicenseInfo storage token */\n      0x00\n        /* \"contracts/Licence.sol\":4357:4363  tokens */\n      0x01\n        /* \"contracts/Licence.sol\":4364:4372  _tokenId */\n      dup3\n        /* \"contracts/Licence.sol\":4357:4373  tokens[_tokenId] */\n      dup2\n      sload\n      dup2\n      lt\n      tag_190\n      jumpi\n      tag_191\n      tag_125\n      jump\t// in\n    tag_191:\n    tag_190:\n      swap1\n      0x00\n      mstore\n      keccak256(0x00, 0x20)\n      swap1\n      0x05\n      mul\n      add\n        /* \"contracts/Licence.sol\":4329:4373  LicenseInfo storage token = tokens[_tokenId] */\n      swap1\n      pop\n        /* \"contracts/Licence.sol\":4402:4417  block.timestamp */\n      timestamp\n        /* \"contracts/Licence.sol\":4384:4389  token */\n      dup2\n        /* \"contracts/Licence.sol\":4384:4399  token.expiresOn */\n      0x02\n      add\n      sload\n        /* \"contracts/Licence.sol\":4384:4417  token.expiresOn < block.timestamp */\n      lt\n        /* \"contracts/Licence.sol\":4384:4455  token.expiresOn < block.timestamp && token.state == LicenseState.ACTIVE */\n      dup1\n      iszero\n      tag_193\n      jumpi\n      pop\n        /* \"contracts/Licence.sol\":4436:4455  LicenseState.ACTIVE */\n      0x00\n        /* \"contracts/Licence.sol\":4421:4455  token.state == LicenseState.ACTIVE */\n      0x02\n      dup2\n      gt\n      iszero\n      tag_194\n      jumpi\n      tag_195\n      tag_129\n      jump\t// in\n    tag_195:\n    tag_194:\n        /* \"contracts/Licence.sol\":4421:4426  token */\n      dup2\n        /* \"contracts/Licence.sol\":4421:4432  token.state */\n      0x03\n      add\n      0x00\n      swap1\n      sload\n      swap1\n      0x0100\n      exp\n      swap1\n      div\n      0xff\n      and\n        /* \"contracts/Licence.sol\":4421:4455  token.state == LicenseState.ACTIVE */\n      0x02\n      dup2\n      gt\n      iszero\n      tag_196\n      jumpi\n      tag_197\n      tag_129\n      jump\t// in\n    tag_197:\n    tag_196:\n      eq\n        /* \"contracts/Licence.sol\":4384:4455  token.expiresOn < block.timestamp && token.state == LicenseState.ACTIVE */\n    tag_193:\n        /* \"contracts/Licence.sol\":4380:4499  if (token.expiresOn < block.timestamp && token.state == LicenseState.ACTIVE) {\r... */\n      iszero\n      tag_198\n      jumpi\n        /* \"contracts/Licence.sol\":4467:4491  burn(_account, _tokenId) */\n      tag_199\n        /* \"contracts/Licence.sol\":4472:4480  _account */\n      dup4\n        /* \"contracts/Licence.sol\":4482:4490  _tokenId */\n      dup4\n        /* \"contracts/Licence.sol\":4467:4471  burn */\n      tag_71\n        /* \"contracts/Licence.sol\":4467:4491  burn(_account, _tokenId) */\n      jump\t// in\n    tag_199:\n        /* \"contracts/Licence.sol\":4380:4499  if (token.expiresOn < block.timestamp && token.state == LicenseState.ACTIVE) {\r... */\n    tag_198:\n        /* \"contracts/Licence.sol\":4262:4504  {\r... */\n      pop\n        /* \"contracts/Licence.sol\":4179:4504  function handleExpiredLicense(address _account, uint256 _tokenId) onlyOwner public {\r... */\n      pop\n      pop\n      jump\t// out\n        /* \"contracts/Licence.sol\":2733:2925  function isApprovedForAll(address _owner, address _operator) public pure returns (bool) {\r... */\n    tag_90:\n        /* \"contracts/Licence.sol\":2815:2819  bool */\n      0x00\n        /* \"contracts/Licence.sol\":2733:2925  function isApprovedForAll(address _owner, address _operator) public pure returns (bool) {\r... */\n      swap3\n      swap2\n      pop\n      pop\n      jump\t// out\n        /* \"contracts/Licence.sol\":210:302  function transferOwnership(address newOwner) onlyOwner  public {\r... */\n    tag_95:\n        /* \"contracts/Licence.sol\":181:186  owner */\n      0x00\n      dup1\n      sload\n      swap1\n      0x0100\n      exp\n      swap1\n      div\n      0xffffffffffffffffffffffffffffffffffffffff\n      and\n        /* \"contracts/Licence.sol\":167:186  msg.sender == owner */\n      0xffffffffffffffffffffffffffffffffffffffff\n      and\n        /* \"contracts/Licence.sol\":167:177  msg.sender */\n      caller\n        /* \"contracts/Licence.sol\":167:186  msg.sender == owner */\n      0xffffffffffffffffffffffffffffffffffffffff\n      and\n      eq\n        /* \"contracts/Licence.sol\":159:187  require(msg.sender == owner) */\n      tag_202\n      jumpi\n      0x00\n      dup1\n      revert\n    tag_202:\n        /* \"contracts/Licence.sol\":288:296  newOwner */\n      dup1\n        /* \"contracts/Licence.sol\":280:285  owner */\n      0x00\n      dup1\n        /* \"contracts/Licence.sol\":280:296  owner = newOwner */\n      0x0100\n      exp\n      dup2\n      sload\n      dup2\n      0xffffffffffffffffffffffffffffffffffffffff\n      mul\n      not\n      and\n      swap1\n      dup4\n      0xffffffffffffffffffffffffffffffffffffffff\n      and\n      mul\n      or\n      swap1\n      sstore\n      pop\n        /* \"contracts/Licence.sol\":210:302  function transferOwnership(address newOwner) onlyOwner  public {\r... */\n      pop\n      jump\t// out\n        /* \"contracts/Licence.sol\":4536:4677  function _owns(address _claimant, uint256 _tokenId) internal view returns (bool) {\r... */\n    tag_99:\n        /* \"contracts/Licence.sol\":4611:4615  bool */\n      0x00\n        /* \"contracts/Licence.sol\":4662:4671  _claimant */\n      dup3\n        /* \"contracts/Licence.sol\":4631:4671  tokenIndexToOwner[_tokenId] == _claimant */\n      0xffffffffffffffffffffffffffffffffffffffff\n      and\n        /* \"contracts/Licence.sol\":4631:4648  tokenIndexToOwner */\n      0x02\n        /* \"contracts/Licence.sol\":4631:4658  tokenIndexToOwner[_tokenId] */\n      0x00\n        /* \"contracts/Licence.sol\":4649:4657  _tokenId */\n      dup5\n        /* \"contracts/Licence.sol\":4631:4658  tokenIndexToOwner[_tokenId] */\n      dup2\n      mstore\n      0x20\n      add\n      swap1\n      dup2\n      mstore\n      0x20\n      add\n      0x00\n      keccak256\n      0x00\n      swap1\n      sload\n      swap1\n      0x0100\n      exp\n      swap1\n      div\n      0xffffffffffffffffffffffffffffffffffffffff\n      and\n        /* \"contracts/Licence.sol\":4631:4671  tokenIndexToOwner[_tokenId] == _claimant */\n      0xffffffffffffffffffffffffffffffffffffffff\n      and\n      eq\n        /* \"contracts/Licence.sol\":4624:4671  return tokenIndexToOwner[_tokenId] == _claimant */\n      swap1\n      pop\n        /* \"contracts/Licence.sol\":4536:4677  function _owns(address _claimant, uint256 _tokenId) internal view returns (bool) {\r... */\n      swap3\n      swap2\n      pop\n      pop\n      jump\t// out\n        /* \"contracts/Licence.sol\":4686:5144  function _mint(address _account, uint _type) onlyOwner internal returns (uint256 tokenId) {\r... */\n    tag_108:\n        /* \"contracts/Licence.sol\":4759:4774  uint256 tokenId */\n      0x00\n        /* \"contracts/Licence.sol\":181:186  owner */\n      dup1\n      0x00\n      swap1\n      sload\n      swap1\n      0x0100\n      exp\n      swap1\n      div\n      0xffffffffffffffffffffffffffffffffffffffff\n      and\n        /* \"contracts/Licence.sol\":167:186  msg.sender == owner */\n      0xffffffffffffffffffffffffffffffffffffffff\n      and\n        /* \"contracts/Licence.sol\":167:177  msg.sender */\n      caller\n        /* \"contracts/Licence.sol\":167:186  msg.sender == owner */\n      0xffffffffffffffffffffffffffffffffffffffff\n      and\n      eq\n        /* \"contracts/Licence.sol\":159:187  require(msg.sender == owner) */\n      tag_206\n      jumpi\n      0x00\n      dup1\n      revert\n    tag_206:\n        /* \"contracts/Licence.sol\":4808:4832  LicenseInfo memory token */\n      0x00\n        /* \"contracts/Licence.sol\":4835:5022  LicenseInfo({\r... */\n      mload(0x40)\n      dup1\n      0xa0\n      add\n      0x40\n      mstore\n      dup1\n        /* \"contracts/Licence.sol\":4883:4888  _type */\n      dup5\n        /* \"contracts/Licence.sol\":4871:4889  LicenseType(_type) */\n      0x01\n      dup2\n      gt\n      iszero\n      tag_208\n      jumpi\n      tag_209\n      tag_129\n      jump\t// in\n    tag_209:\n    tag_208:\n        /* \"contracts/Licence.sol\":4835:5022  LicenseInfo({\r... */\n      0x01\n      dup2\n      gt\n      iszero\n      tag_210\n      jumpi\n      tag_211\n      tag_129\n      jump\t// in\n    tag_211:\n    tag_210:\n      dup2\n      mstore\n      0x20\n      add\n        /* \"contracts/Licence.sol\":4953:4968  block.timestamp */\n      timestamp\n        /* \"contracts/Licence.sol\":4835:5022  LicenseInfo({\r... */\n      dup2\n      mstore\n      0x20\n      add\n        /* \"contracts/Licence.sol\":4990:4991  0 */\n      0x00\n        /* \"contracts/Licence.sol\":4835:5022  LicenseInfo({\r... */\n      dup2\n      mstore\n      0x20\n      add\n        /* \"contracts/Licence.sol\":4907:4928  LicenseState.INACTIVE */\n      0x01\n        /* \"contracts/Licence.sol\":4835:5022  LicenseInfo({\r... */\n      0x02\n      dup2\n      gt\n      iszero\n      tag_212\n      jumpi\n      tag_213\n      tag_129\n      jump\t// in\n    tag_213:\n    tag_212:\n      dup2\n      mstore\n      0x20\n      add\n      mload(0x40)\n      dup1\n      0x20\n      add\n      0x40\n      mstore\n      dup1\n      0x00\n      dup2\n      mstore\n      pop\n      dup2\n      mstore\n      pop\n        /* \"contracts/Licence.sol\":4808:5022  LicenseInfo memory token = LicenseInfo({\r... */\n      swap1\n      pop\n        /* \"contracts/Licence.sol\":5029:5035  tokens */\n      0x01\n        /* \"contracts/Licence.sol\":5041:5046  token */\n      dup2\n        /* \"contracts/Licence.sol\":5029:5047  tokens.push(token) */\n      swap1\n      dup1\n      0x01\n      dup2\n      sload\n      add\n      dup1\n      dup3\n      sstore\n      dup1\n      swap2\n      pop\n      pop\n      0x01\n      swap1\n      sub\n      swap1\n      0x00\n      mstore\n      keccak256(0x00, 0x20)\n      swap1\n      0x05\n      mul\n      add\n      0x00\n      swap1\n      swap2\n      swap1\n      swap2\n      swap1\n      swap2\n      pop\n      0x00\n      dup3\n      add\n      mload\n      dup2\n      0x00\n      add\n      exp(0x0100, 0x00)\n      dup2\n      sload\n      dup2\n      0xff\n      mul\n      not\n      and\n      swap1\n      dup4\n      0x01\n      dup2\n      gt\n      iszero\n      tag_215\n      jumpi\n      tag_216\n      tag_129\n      jump\t// in\n    tag_216:\n    tag_215:\n      mul\n      or\n      swap1\n      sstore\n      pop\n      0x20\n      dup3\n      add\n      mload\n      dup2\n      0x01\n      add\n      sstore\n      0x40\n      dup3\n      add\n      mload\n      dup2\n      0x02\n      add\n      sstore\n      0x60\n      dup3\n      add\n      mload\n      dup2\n      0x03\n      add\n      exp(0x0100, 0x00)\n      dup2\n      sload\n      dup2\n      0xff\n      mul\n      not\n      and\n      swap1\n      dup4\n      0x02\n      dup2\n      gt\n      iszero\n      tag_217\n      jumpi\n      tag_218\n      tag_129\n      jump\t// in\n    tag_218:\n    tag_217:\n      mul\n      or\n      swap1\n      sstore\n      pop\n      0x80\n      dup3\n      add\n      mload\n      dup2\n      0x04\n      add\n      swap1\n      dup1\n      mload\n      swap1\n      0x20\n      add\n      swap1\n      tag_219\n      swap3\n      swap2\n      swap1\n      tag_169\n      jump\t// in\n    tag_219:\n      pop\n      pop\n      pop\n        /* \"contracts/Licence.sol\":5054:5061  uint id */\n      0x00\n        /* \"contracts/Licence.sol\":5079:5080  1 */\n      0x01\n        /* \"contracts/Licence.sol\":5063:5069  tokens */\n      dup1\n        /* \"contracts/Licence.sol\":5063:5076  tokens.length */\n      dup1\n      sload\n      swap1\n      pop\n        /* \"contracts/Licence.sol\":5063:5080  tokens.length - 1 */\n      tag_220\n      swap2\n      swap1\n      tag_221\n      jump\t// in\n    tag_220:\n        /* \"contracts/Licence.sol\":5054:5080  uint id= tokens.length - 1 */\n      swap1\n      pop\n        /* \"contracts/Licence.sol\":5087:5122  _transfer(address(0), _account, id) */\n      tag_222\n        /* \"contracts/Licence.sol\":5105:5106  0 */\n      0x00\n        /* \"contracts/Licence.sol\":5109:5117  _account */\n      dup7\n        /* \"contracts/Licence.sol\":5119:5121  id */\n      dup4\n        /* \"contracts/Licence.sol\":5087:5096  _transfer */\n      tag_119\n        /* \"contracts/Licence.sol\":5087:5122  _transfer(address(0), _account, id) */\n      jump\t// in\n    tag_222:\n        /* \"contracts/Licence.sol\":5136:5138  id */\n      dup1\n        /* \"contracts/Licence.sol\":5129:5138  return id */\n      swap3\n      pop\n      pop\n      pop\n        /* \"contracts/Licence.sol\":4686:5144  function _mint(address _account, uint _type) onlyOwner internal returns (uint256 tokenId) {\r... */\n      swap3\n      swap2\n      pop\n      pop\n      jump\t// out\n        /* \"contracts/Licence.sol\":5153:5468  function _transfer(address _from, address _to, uint256 _tokenId) internal {\r... */\n    tag_119:\n        /* \"contracts/Licence.sol\":5233:5252  ownershipTokenCount */\n      0x03\n        /* \"contracts/Licence.sol\":5233:5257  ownershipTokenCount[_to] */\n      0x00\n        /* \"contracts/Licence.sol\":5253:5256  _to */\n      dup4\n        /* \"contracts/Licence.sol\":5233:5257  ownershipTokenCount[_to] */\n      0xffffffffffffffffffffffffffffffffffffffff\n      and\n      0xffffffffffffffffffffffffffffffffffffffff\n      and\n      dup2\n      mstore\n      0x20\n      add\n      swap1\n      dup2\n      mstore\n      0x20\n      add\n      0x00\n      keccak256\n      0x00\n        /* \"contracts/Licence.sol\":5233:5259  ownershipTokenCount[_to]++ */\n      dup2\n      sload\n      dup1\n      swap3\n      swap2\n      swap1\n      tag_224\n      swap1\n      tag_225\n      jump\t// in\n    tag_224:\n      swap2\n      swap1\n      pop\n      sstore\n      pop\n        /* \"contracts/Licence.sol\":5295:5298  _to */\n      dup2\n        /* \"contracts/Licence.sol\":5265:5282  tokenIndexToOwner */\n      0x02\n        /* \"contracts/Licence.sol\":5265:5292  tokenIndexToOwner[_tokenId] */\n      0x00\n        /* \"contracts/Licence.sol\":5283:5291  _tokenId */\n      dup4\n        /* \"contracts/Licence.sol\":5265:5292  tokenIndexToOwner[_tokenId] */\n      dup2\n      mstore\n      0x20\n      add\n      swap1\n      dup2\n      mstore\n      0x20\n      add\n      0x00\n      keccak256\n      0x00\n        /* \"contracts/Licence.sol\":5265:5298  tokenIndexToOwner[_tokenId] = _to */\n      0x0100\n      exp\n      dup2\n      sload\n      dup2\n      0xffffffffffffffffffffffffffffffffffffffff\n      mul\n      not\n      and\n      swap1\n      dup4\n      0xffffffffffffffffffffffffffffffffffffffff\n      and\n      mul\n      or\n      swap1\n      sstore\n      pop\n        /* \"contracts/Licence.sol\":5330:5331  0 */\n      0x00\n        /* \"contracts/Licence.sol\":5313:5332  _from != address(0) */\n      0xffffffffffffffffffffffffffffffffffffffff\n      and\n        /* \"contracts/Licence.sol\":5313:5318  _from */\n      dup4\n        /* \"contracts/Licence.sol\":5313:5332  _from != address(0) */\n      0xffffffffffffffffffffffffffffffffffffffff\n      and\n      eq\n        /* \"contracts/Licence.sol\":5309:5422  if (_from != address(0)) {\r... */\n      tag_226\n      jumpi\n        /* \"contracts/Licence.sol\":5342:5361  ownershipTokenCount */\n      0x03\n        /* \"contracts/Licence.sol\":5342:5368  ownershipTokenCount[_from] */\n      0x00\n        /* \"contracts/Licence.sol\":5362:5367  _from */\n      dup5\n        /* \"contracts/Licence.sol\":5342:5368  ownershipTokenCount[_from] */\n      0xffffffffffffffffffffffffffffffffffffffff\n      and\n      0xffffffffffffffffffffffffffffffffffffffff\n      and\n      dup2\n      mstore\n      0x20\n      add\n      swap1\n      dup2\n      mstore\n      0x20\n      add\n      0x00\n      keccak256\n      0x00\n        /* \"contracts/Licence.sol\":5342:5370  ownershipTokenCount[_from]-- */\n      dup2\n      sload\n      dup1\n      swap3\n      swap2\n      swap1\n      tag_227\n      swap1\n      tag_178\n      jump\t// in\n    tag_227:\n      swap2\n      swap1\n      pop\n      sstore\n      pop\n        /* \"contracts/Licence.sol\":5385:5405  tokenIndexToApproved */\n      0x04\n        /* \"contracts/Licence.sol\":5385:5415  tokenIndexToApproved[_tokenId] */\n      0x00\n        /* \"contracts/Licence.sol\":5406:5414  _tokenId */\n      dup3\n        /* \"contracts/Licence.sol\":5385:5415  tokenIndexToApproved[_tokenId] */\n      dup2\n      mstore\n      0x20\n      add\n      swap1\n      dup2\n      mstore\n      0x20\n      add\n      0x00\n      keccak256\n      0x00\n        /* \"contracts/Licence.sol\":5378:5415  delete tokenIndexToApproved[_tokenId] */\n      0x0100\n      exp\n      dup2\n      sload\n      swap1\n      0xffffffffffffffffffffffffffffffffffffffff\n      mul\n      not\n      and\n      swap1\n      sstore\n        /* \"contracts/Licence.sol\":5309:5422  if (_from != address(0)) {\r... */\n    tag_226:\n        /* \"contracts/Licence.sol\":5432:5462  Transfer(_from, _to, _tokenId) */\n      0xddf252ad1be2c89b69c2b068fc378daa952ba7f163c4a11628f55a4df523b3ef\n        /* \"contracts/Licence.sol\":5441:5446  _from */\n      dup4\n        /* \"contracts/Licence.sol\":5448:5451  _to */\n      dup4\n        /* \"contracts/Licence.sol\":5453:5461  _tokenId */\n      dup4\n        /* \"contracts/Licence.sol\":5432:5462  Transfer(_from, _to, _tokenId) */\n      mload(0x40)\n      tag_228\n      swap4\n      swap3\n      swap2\n      swap1\n      tag_102\n      jump\t// in\n    tag_228:\n      mload(0x40)\n      dup1\n      swap2\n      sub\n      swap1\n      log1\n        /* \"contracts/Licence.sol\":5153:5468  function _transfer(address _from, address _to, uint256 _tokenId) internal {\r... */\n      pop\n      pop\n      pop\n      jump\t// out\n    tag_169:\n      dup3\n      dup1\n      sload\n      tag_229\n      swap1\n      tag_137\n      jump\t// in\n    tag_229:\n      swap1\n      0x00\n      mstore\n      keccak256(0x00, 0x20)\n      swap1\n      0x1f\n      add\n      0x20\n      swap1\n      div\n      dup2\n      add\n      swap3\n      dup3\n      tag_231\n      jumpi\n      0x00\n      dup6\n      sstore\n      jump(tag_230)\n    tag_231:\n      dup3\n      0x1f\n      lt\n      tag_232\n      jumpi\n      dup1\n      mload\n      not(0xff)\n      and\n      dup4\n      dup1\n      add\n      or\n      dup6\n      sstore\n      jump(tag_230)\n    tag_232:\n      dup3\n      dup1\n      add\n      0x01\n      add\n      dup6\n      sstore\n      dup3\n      iszero\n      tag_230\n      jumpi\n      swap2\n      dup3\n      add\n    tag_233:\n      dup3\n      dup2\n      gt\n      iszero\n      tag_234\n      jumpi\n      dup3\n      mload\n      dup3\n      sstore\n      swap2\n      0x20\n      add\n      swap2\n      swap1\n      0x01\n      add\n      swap1\n      jump(tag_233)\n    tag_234:\n    tag_230:\n      pop\n      swap1\n      pop\n      tag_235\n      swap2\n      swap1\n      tag_236\n      jump\t// in\n    tag_235:\n      pop\n      swap1\n      jump\t// out\n    tag_183:\n      pop\n      dup1\n      sload\n      tag_237\n      swap1\n      tag_137\n      jump\t// in\n    tag_237:\n      0x00\n      dup3\n      sstore\n      dup1\n      0x1f\n      lt\n      tag_239\n      jumpi\n      pop\n      jump(tag_238)\n    tag_239:\n      0x1f\n      add\n      0x20\n      swap1\n      div\n      swap1\n      0x00\n      mstore\n      keccak256(0x00, 0x20)\n      swap1\n      dup2\n      add\n      swap1\n      tag_240\n      swap2\n      swap1\n      tag_236\n      jump\t// in\n    tag_240:\n    tag_238:\n      pop\n      jump\t// out\n    tag_236:\n    tag_241:\n      dup1\n      dup3\n      gt\n      iszero\n      tag_242\n      jumpi\n      0x00\n      dup2\n      0x00\n      swap1\n      sstore\n      pop\n      0x01\n      add\n      jump(tag_241)\n    tag_242:\n      pop\n      swap1\n      jump\t// out\n        /* \"#utility.yul\":7:417   */\n    tag_244:\n        /* \"#utility.yul\":84:89   */\n      0x00\n        /* \"#utility.yul\":109:174   */\n      tag_246\n        /* \"#utility.yul\":125:173   */\n      tag_247\n        /* \"#utility.yul\":166:172   */\n      dup5\n        /* \"#utility.yul\":125:173   */\n      tag_248\n      jump\t// in\n    tag_247:\n        /* \"#utility.yul\":109:174   */\n      tag_249\n      jump\t// in\n    tag_246:\n        /* \"#utility.yul\":100:174   */\n      swap1\n      pop\n        /* \"#utility.yul\":197:203   */\n      dup3\n        /* \"#utility.yul\":190:195   */\n      dup2\n        /* \"#utility.yul\":183:204   */\n      mstore\n        /* \"#utility.yul\":235:239   */\n      0x20\n        /* \"#utility.yul\":228:233   */\n      dup2\n        /* \"#utility.yul\":224:240   */\n      add\n        /* \"#utility.yul\":273:276   */\n      dup5\n        /* \"#utility.yul\":264:270   */\n      dup5\n        /* \"#utility.yul\":259:262   */\n      dup5\n        /* \"#utility.yul\":255:271   */\n      add\n        /* \"#utility.yul\":252:277   */\n      gt\n        /* \"#utility.yul\":249:361   */\n      iszero\n      tag_250\n      jumpi\n        /* \"#utility.yul\":280:359   */\n      tag_251\n      tag_252\n      jump\t// in\n    tag_251:\n        /* \"#utility.yul\":249:361   */\n    tag_250:\n        /* \"#utility.yul\":370:411   */\n      tag_253\n        /* \"#utility.yul\":404:410   */\n      dup5\n        /* \"#utility.yul\":399:402   */\n      dup3\n        /* \"#utility.yul\":394:397   */\n      dup6\n        /* \"#utility.yul\":370:411   */\n      tag_254\n      jump\t// in\n    tag_253:\n        /* \"#utility.yul\":90:417   */\n      pop\n        /* \"#utility.yul\":7:417   */\n      swap4\n      swap3\n      pop\n      pop\n      pop\n      jump\t// out\n        /* \"#utility.yul\":423:835   */\n    tag_255:\n        /* \"#utility.yul\":501:506   */\n      0x00\n        /* \"#utility.yul\":526:592   */\n      tag_257\n        /* \"#utility.yul\":542:591   */\n      tag_258\n        /* \"#utility.yul\":584:590   */\n      dup5\n        /* \"#utility.yul\":542:591   */\n      tag_259\n      jump\t// in\n    tag_258:\n        /* \"#utility.yul\":526:592   */\n      tag_249\n      jump\t// in\n    tag_257:\n        /* \"#utility.yul\":517:592   */\n      swap1\n      pop\n        /* \"#utility.yul\":615:621   */\n      dup3\n        /* \"#utility.yul\":608:613   */\n      dup2\n        /* \"#utility.yul\":601:622   */\n      mstore\n        /* \"#utility.yul\":653:657   */\n      0x20\n        /* \"#utility.yul\":646:651   */\n      dup2\n        /* \"#utility.yul\":642:658   */\n      add\n        /* \"#utility.yul\":691:694   */\n      dup5\n        /* \"#utility.yul\":682:688   */\n      dup5\n        /* \"#utility.yul\":677:680   */\n      dup5\n        /* \"#utility.yul\":673:689   */\n      add\n        /* \"#utility.yul\":670:695   */\n      gt\n        /* \"#utility.yul\":667:779   */\n      iszero\n      tag_260\n      jumpi\n        /* \"#utility.yul\":698:777   */\n      tag_261\n      tag_252\n      jump\t// in\n    tag_261:\n        /* \"#utility.yul\":667:779   */\n    tag_260:\n        /* \"#utility.yul\":788:829   */\n      tag_262\n        /* \"#utility.yul\":822:828   */\n      dup5\n        /* \"#utility.yul\":817:820   */\n      dup3\n        /* \"#utility.yul\":812:815   */\n      dup6\n        /* \"#utility.yul\":788:829   */\n      tag_254\n      jump\t// in\n    tag_262:\n        /* \"#utility.yul\":507:835   */\n      pop\n        /* \"#utility.yul\":423:835   */\n      swap4\n      swap3\n      pop\n      pop\n      pop\n      jump\t// out\n        /* \"#utility.yul\":841:980   */\n    tag_263:\n        /* \"#utility.yul\":887:892   */\n      0x00\n        /* \"#utility.yul\":925:931   */\n      dup2\n        /* \"#utility.yul\":912:932   */\n      calldataload\n        /* \"#utility.yul\":903:932   */\n      swap1\n      pop\n        /* \"#utility.yul\":941:974   */\n      tag_265\n        /* \"#utility.yul\":968:973   */\n      dup2\n        /* \"#utility.yul\":941:974   */\n      tag_266\n      jump\t// in\n    tag_265:\n        /* \"#utility.yul\":841:980   */\n      swap3\n      swap2\n      pop\n      pop\n      jump\t// out\n        /* \"#utility.yul\":986:1119   */\n    tag_267:\n        /* \"#utility.yul\":1029:1034   */\n      0x00\n        /* \"#utility.yul\":1067:1073   */\n      dup2\n        /* \"#utility.yul\":1054:1074   */\n      calldataload\n        /* \"#utility.yul\":1045:1074   */\n      swap1\n      pop\n        /* \"#utility.yul\":1083:1113   */\n      tag_269\n        /* \"#utility.yul\":1107:1112   */\n      dup2\n        /* \"#utility.yul\":1083:1113   */\n      tag_270\n      jump\t// in\n    tag_269:\n        /* \"#utility.yul\":986:1119   */\n      swap3\n      swap2\n      pop\n      pop\n      jump\t// out\n        /* \"#utility.yul\":1138:1476   */\n    tag_271:\n        /* \"#utility.yul\":1193:1198   */\n      0x00\n        /* \"#utility.yul\":1242:1245   */\n      dup3\n        /* \"#utility.yul\":1235:1239   */\n      0x1f\n        /* \"#utility.yul\":1227:1233   */\n      dup4\n        /* \"#utility.yul\":1223:1240   */\n      add\n        /* \"#utility.yul\":1219:1246   */\n      slt\n        /* \"#utility.yul\":1209:1331   */\n      tag_273\n      jumpi\n        /* \"#utility.yul\":1250:1329   */\n      tag_274\n      tag_275\n      jump\t// in\n    tag_274:\n        /* \"#utility.yul\":1209:1331   */\n    tag_273:\n        /* \"#utility.yul\":1367:1373   */\n      dup2\n        /* \"#utility.yul\":1354:1374   */\n      calldataload\n        /* \"#utility.yul\":1392:1470   */\n      tag_276\n        /* \"#utility.yul\":1466:1469   */\n      dup5\n        /* \"#utility.yul\":1458:1464   */\n      dup3\n        /* \"#utility.yul\":1451:1455   */\n      0x20\n        /* \"#utility.yul\":1443:1449   */\n      dup7\n        /* \"#utility.yul\":1439:1456   */\n      add\n        /* \"#utility.yul\":1392:1470   */\n      tag_244\n      jump\t// in\n    tag_276:\n        /* \"#utility.yul\":1383:1470   */\n      swap2\n      pop\n        /* \"#utility.yul\":1199:1476   */\n      pop\n        /* \"#utility.yul\":1138:1476   */\n      swap3\n      swap2\n      pop\n      pop\n      jump\t// out\n        /* \"#utility.yul\":1496:1836   */\n    tag_277:\n        /* \"#utility.yul\":1552:1557   */\n      0x00\n        /* \"#utility.yul\":1601:1604   */\n      dup3\n        /* \"#utility.yul\":1594:1598   */\n      0x1f\n        /* \"#utility.yul\":1586:1592   */\n      dup4\n        /* \"#utility.yul\":1582:1599   */\n      add\n        /* \"#utility.yul\":1578:1605   */\n      slt\n        /* \"#utility.yul\":1568:1690   */\n      tag_279\n      jumpi\n        /* \"#utility.yul\":1609:1688   */\n      tag_280\n      tag_275\n      jump\t// in\n    tag_280:\n        /* \"#utility.yul\":1568:1690   */\n    tag_279:\n        /* \"#utility.yul\":1726:1732   */\n      dup2\n        /* \"#utility.yul\":1713:1733   */\n      calldataload\n        /* \"#utility.yul\":1751:1830   */\n      tag_281\n        /* \"#utility.yul\":1826:1829   */\n      dup5\n        /* \"#utility.yul\":1818:1824   */\n      dup3\n        /* \"#utility.yul\":1811:1815   */\n      0x20\n        /* \"#utility.yul\":1803:1809   */\n      dup7\n        /* \"#utility.yul\":1799:1816   */\n      add\n        /* \"#utility.yul\":1751:1830   */\n      tag_255\n      jump\t// in\n    tag_281:\n        /* \"#utility.yul\":1742:1830   */\n      swap2\n      pop\n        /* \"#utility.yul\":1558:1836   */\n      pop\n        /* \"#utility.yul\":1496:1836   */\n      swap3\n      swap2\n      pop\n      pop\n      jump\t// out\n        /* \"#utility.yul\":1842:1981   */\n    tag_282:\n        /* \"#utility.yul\":1888:1893   */\n      0x00\n        /* \"#utility.yul\":1926:1932   */\n      dup2\n        /* \"#utility.yul\":1913:1933   */\n      calldataload\n        /* \"#utility.yul\":1904:1933   */\n      swap1\n      pop\n        /* \"#utility.yul\":1942:1975   */\n      tag_284\n        /* \"#utility.yul\":1969:1974   */\n      dup2\n        /* \"#utility.yul\":1942:1975   */\n      tag_285\n      jump\t// in\n    tag_284:\n        /* \"#utility.yul\":1842:1981   */\n      swap3\n      swap2\n      pop\n      pop\n      jump\t// out\n        /* \"#utility.yul\":1987:2316   */\n    tag_66:\n        /* \"#utility.yul\":2046:2052   */\n      0x00\n        /* \"#utility.yul\":2095:2097   */\n      0x20\n        /* \"#utility.yul\":2083:2092   */\n      dup3\n        /* \"#utility.yul\":2074:2081   */\n      dup5\n        /* \"#utility.yul\":2070:2093   */\n      sub\n        /* \"#utility.yul\":2066:2098   */\n      slt\n        /* \"#utility.yul\":2063:2182   */\n      iszero\n      tag_287\n      jumpi\n        /* \"#utility.yul\":2101:2180   */\n      tag_288\n      tag_289\n      jump\t// in\n    tag_288:\n        /* \"#utility.yul\":2063:2182   */\n    tag_287:\n        /* \"#utility.yul\":2221:2222   */\n      0x00\n        /* \"#utility.yul\":2246:2299   */\n      tag_290\n        /* \"#utility.yul\":2291:2298   */\n      dup5\n        /* \"#utility.yul\":2282:2288   */\n      dup3\n        /* \"#utility.yul\":2271:2280   */\n      dup6\n        /* \"#utility.yul\":2267:2289   */\n      add\n        /* \"#utility.yul\":2246:2299   */\n      tag_263\n      jump\t// in\n    tag_290:\n        /* \"#utility.yul\":2236:2299   */\n      swap2\n      pop\n        /* \"#utility.yul\":2192:2309   */\n      pop\n        /* \"#utility.yul\":1987:2316   */\n      swap3\n      swap2\n      pop\n      pop\n      jump\t// out\n        /* \"#utility.yul\":2322:2796   */\n    tag_89:\n        /* \"#utility.yul\":2390:2396   */\n      0x00\n        /* \"#utility.yul\":2398:2404   */\n      dup1\n        /* \"#utility.yul\":2447:2449   */\n      0x40\n        /* \"#utility.yul\":2435:2444   */\n      dup4\n        /* \"#utility.yul\":2426:2433   */\n      dup6\n        /* \"#utility.yul\":2422:2445   */\n      sub\n        /* \"#utility.yul\":2418:2450   */\n      slt\n        /* \"#utility.yul\":2415:2534   */\n      iszero\n      tag_292\n      jumpi\n        /* \"#utility.yul\":2453:2532   */\n      tag_293\n      tag_289\n      jump\t// in\n    tag_293:\n        /* \"#utility.yul\":2415:2534   */\n    tag_292:\n        /* \"#utility.yul\":2573:2574   */\n      0x00\n        /* \"#utility.yul\":2598:2651   */\n      tag_294\n        /* \"#utility.yul\":2643:2650   */\n      dup6\n        /* \"#utility.yul\":2634:2640   */\n      dup3\n        /* \"#utility.yul\":2623:2632   */\n      dup7\n        /* \"#utility.yul\":2619:2641   */\n      add\n        /* \"#utility.yul\":2598:2651   */\n      tag_263\n      jump\t// in\n    tag_294:\n        /* \"#utility.yul\":2588:2651   */\n      swap3\n      pop\n        /* \"#utility.yul\":2544:2661   */\n      pop\n        /* \"#utility.yul\":2700:2702   */\n      0x20\n        /* \"#utility.yul\":2726:2779   */\n      tag_295\n        /* \"#utility.yul\":2771:2778   */\n      dup6\n        /* \"#utility.yul\":2762:2768   */\n      dup3\n        /* \"#utility.yul\":2751:2760   */\n      dup7\n        /* \"#utility.yul\":2747:2769   */\n      add\n        /* \"#utility.yul\":2726:2779   */\n      tag_263\n      jump\t// in\n    tag_295:\n        /* \"#utility.yul\":2716:2779   */\n      swap2\n      pop\n        /* \"#utility.yul\":2671:2789   */\n      pop\n        /* \"#utility.yul\":2322:2796   */\n      swap3\n      pop\n      swap3\n      swap1\n      pop\n      jump\t// out\n        /* \"#utility.yul\":2802:3421   */\n    tag_47:\n        /* \"#utility.yul\":2879:2885   */\n      0x00\n        /* \"#utility.yul\":2887:2893   */\n      dup1\n        /* \"#utility.yul\":2895:2901   */\n      0x00\n        /* \"#utility.yul\":2944:2946   */\n      0x60\n        /* \"#utility.yul\":2932:2941   */\n      dup5\n        /* \"#utility.yul\":2923:2930   */\n      dup7\n        /* \"#utility.yul\":2919:2942   */\n      sub\n        /* \"#utility.yul\":2915:2947   */\n      slt\n        /* \"#utility.yul\":2912:3031   */\n      iszero\n      tag_297\n      jumpi\n        /* \"#utility.yul\":2950:3029   */\n      tag_298\n      tag_289\n      jump\t// in\n    tag_298:\n        /* \"#utility.yul\":2912:3031   */\n    tag_297:\n        /* \"#utility.yul\":3070:3071   */\n      0x00\n        /* \"#utility.yul\":3095:3148   */\n      tag_299\n        /* \"#utility.yul\":3140:3147   */\n      dup7\n        /* \"#utility.yul\":3131:3137   */\n      dup3\n        /* \"#utility.yul\":3120:3129   */\n      dup8\n        /* \"#utility.yul\":3116:3138   */\n      add\n        /* \"#utility.yul\":3095:3148   */\n      tag_263\n      jump\t// in\n    tag_299:\n        /* \"#utility.yul\":3085:3148   */\n      swap4\n      pop\n        /* \"#utility.yul\":3041:3158   */\n      pop\n        /* \"#utility.yul\":3197:3199   */\n      0x20\n        /* \"#utility.yul\":3223:3276   */\n      tag_300\n        /* \"#utility.yul\":3268:3275   */\n      dup7\n        /* \"#utility.yul\":3259:3265   */\n      dup3\n        /* \"#utility.yul\":3248:3257   */\n      dup8\n        /* \"#utility.yul\":3244:3266   */\n      add\n        /* \"#utility.yul\":3223:3276   */\n      tag_263\n      jump\t// in\n    tag_300:\n        /* \"#utility.yul\":3213:3276   */\n      swap3\n      pop\n        /* \"#utility.yul\":3168:3286   */\n      pop\n        /* \"#utility.yul\":3325:3327   */\n      0x40\n        /* \"#utility.yul\":3351:3404   */\n      tag_301\n        /* \"#utility.yul\":3396:3403   */\n      dup7\n        /* \"#utility.yul\":3387:3393   */\n      dup3\n        /* \"#utility.yul\":3376:3385   */\n      dup8\n        /* \"#utility.yul\":3372:3394   */\n      add\n        /* \"#utility.yul\":3351:3404   */\n      tag_282\n      jump\t// in\n    tag_301:\n        /* \"#utility.yul\":3341:3404   */\n      swap2\n      pop\n        /* \"#utility.yul\":3296:3414   */\n      pop\n        /* \"#utility.yul\":2802:3421   */\n      swap3\n      pop\n      swap3\n      pop\n      swap3\n      jump\t// out\n        /* \"#utility.yul\":3427:4370   */\n    tag_82:\n        /* \"#utility.yul\":3522:3528   */\n      0x00\n        /* \"#utility.yul\":3530:3536   */\n      dup1\n        /* \"#utility.yul\":3538:3544   */\n      0x00\n        /* \"#utility.yul\":3546:3552   */\n      dup1\n        /* \"#utility.yul\":3595:3598   */\n      0x80\n        /* \"#utility.yul\":3583:3592   */\n      dup6\n        /* \"#utility.yul\":3574:3581   */\n      dup8\n        /* \"#utility.yul\":3570:3593   */\n      sub\n        /* \"#utility.yul\":3566:3599   */\n      slt\n        /* \"#utility.yul\":3563:3683   */\n      iszero\n      tag_303\n      jumpi\n        /* \"#utility.yul\":3602:3681   */\n      tag_304\n      tag_289\n      jump\t// in\n    tag_304:\n        /* \"#utility.yul\":3563:3683   */\n    tag_303:\n        /* \"#utility.yul\":3722:3723   */\n      0x00\n        /* \"#utility.yul\":3747:3800   */\n      tag_305\n        /* \"#utility.yul\":3792:3799   */\n      dup8\n        /* \"#utility.yul\":3783:3789   */\n      dup3\n        /* \"#utility.yul\":3772:3781   */\n      dup9\n        /* \"#utility.yul\":3768:3790   */\n      add\n        /* \"#utility.yul\":3747:3800   */\n      tag_263\n      jump\t// in\n    tag_305:\n        /* \"#utility.yul\":3737:3800   */\n      swap5\n      pop\n        /* \"#utility.yul\":3693:3810   */\n      pop\n        /* \"#utility.yul\":3849:3851   */\n      0x20\n        /* \"#utility.yul\":3875:3928   */\n      tag_306\n        /* \"#utility.yul\":3920:3927   */\n      dup8\n        /* \"#utility.yul\":3911:3917   */\n      dup3\n        /* \"#utility.yul\":3900:3909   */\n      dup9\n        /* \"#utility.yul\":3896:3918   */\n      add\n        /* \"#utility.yul\":3875:3928   */\n      tag_263\n      jump\t// in\n    tag_306:\n        /* \"#utility.yul\":3865:3928   */\n      swap4\n      pop\n        /* \"#utility.yul\":3820:3938   */\n      pop\n        /* \"#utility.yul\":3977:3979   */\n      0x40\n        /* \"#utility.yul\":4003:4056   */\n      tag_307\n        /* \"#utility.yul\":4048:4055   */\n      dup8\n        /* \"#utility.yul\":4039:4045   */\n      dup3\n        /* \"#utility.yul\":4028:4037   */\n      dup9\n        /* \"#utility.yul\":4024:4046   */\n      add\n        /* \"#utility.yul\":4003:4056   */\n      tag_282\n      jump\t// in\n    tag_307:\n        /* \"#utility.yul\":3993:4056   */\n      swap3\n      pop\n        /* \"#utility.yul\":3948:4066   */\n      pop\n        /* \"#utility.yul\":4133:4135   */\n      0x60\n        /* \"#utility.yul\":4122:4131   */\n      dup6\n        /* \"#utility.yul\":4118:4136   */\n      add\n        /* \"#utility.yul\":4105:4137   */\n      calldataload\n        /* \"#utility.yul\":4164:4182   */\n      0xffffffffffffffff\n        /* \"#utility.yul\":4156:4162   */\n      dup2\n        /* \"#utility.yul\":4153:4183   */\n      gt\n        /* \"#utility.yul\":4150:4267   */\n      iszero\n      tag_308\n      jumpi\n        /* \"#utility.yul\":4186:4265   */\n      tag_309\n      tag_310\n      jump\t// in\n    tag_309:\n        /* \"#utility.yul\":4150:4267   */\n    tag_308:\n        /* \"#utility.yul\":4291:4353   */\n      tag_311\n        /* \"#utility.yul\":4345:4352   */\n      dup8\n        /* \"#utility.yul\":4336:4342   */\n      dup3\n        /* \"#utility.yul\":4325:4334   */\n      dup9\n        /* \"#utility.yul\":4321:4343   */\n      add\n        /* \"#utility.yul\":4291:4353   */\n      tag_271\n      jump\t// in\n    tag_311:\n        /* \"#utility.yul\":4281:4353   */\n      swap2\n      pop\n        /* \"#utility.yul\":4076:4363   */\n      pop\n        /* \"#utility.yul\":3427:4370   */\n      swap3\n      swap6\n      swap2\n      swap5\n      pop\n      swap3\n      pop\n      jump\t// out\n        /* \"#utility.yul\":4376:4844   */\n    tag_74:\n        /* \"#utility.yul\":4441:4447   */\n      0x00\n        /* \"#utility.yul\":4449:4455   */\n      dup1\n        /* \"#utility.yul\":4498:4500   */\n      0x40\n        /* \"#utility.yul\":4486:4495   */\n      dup4\n        /* \"#utility.yul\":4477:4484   */\n      dup6\n        /* \"#utility.yul\":4473:4496   */\n      sub\n        /* \"#utility.yul\":4469:4501   */\n      slt\n        /* \"#utility.yul\":4466:4585   */\n      iszero\n      tag_313\n      jumpi\n        /* \"#utility.yul\":4504:4583   */\n      tag_314\n      tag_289\n      jump\t// in\n    tag_314:\n        /* \"#utility.yul\":4466:4585   */\n    tag_313:\n        /* \"#utility.yul\":4624:4625   */\n      0x00\n        /* \"#utility.yul\":4649:4702   */\n      tag_315\n        /* \"#utility.yul\":4694:4701   */\n      dup6\n        /* \"#utility.yul\":4685:4691   */\n      dup3\n        /* \"#utility.yul\":4674:4683   */\n      dup7\n        /* \"#utility.yul\":4670:4692   */\n      add\n        /* \"#utility.yul\":4649:4702   */\n      tag_263\n      jump\t// in\n    tag_315:\n        /* \"#utility.yul\":4639:4702   */\n      swap3\n      pop\n        /* \"#utility.yul\":4595:4712   */\n      pop\n        /* \"#utility.yul\":4751:4753   */\n      0x20\n        /* \"#utility.yul\":4777:4827   */\n      tag_316\n        /* \"#utility.yul\":4819:4826   */\n      dup6\n        /* \"#utility.yul\":4810:4816   */\n      dup3\n        /* \"#utility.yul\":4799:4808   */\n      dup7\n        /* \"#utility.yul\":4795:4817   */\n      add\n        /* \"#utility.yul\":4777:4827   */\n      tag_267\n      jump\t// in\n    tag_316:\n        /* \"#utility.yul\":4767:4827   */\n      swap2\n      pop\n        /* \"#utility.yul\":4722:4837   */\n      pop\n        /* \"#utility.yul\":4376:4844   */\n      swap3\n      pop\n      swap3\n      swap1\n      pop\n      jump\t// out\n        /* \"#utility.yul\":4850:5324   */\n    tag_32:\n        /* \"#utility.yul\":4918:4924   */\n      0x00\n        /* \"#utility.yul\":4926:4932   */\n      dup1\n        /* \"#utility.yul\":4975:4977   */\n      0x40\n        /* \"#utility.yul\":4963:4972   */\n      dup4\n        /* \"#utility.yul\":4954:4961   */\n      dup6\n        /* \"#utility.yul\":4950:4973   */\n      sub\n        /* \"#utility.yul\":4946:4978   */\n      slt\n        /* \"#utility.yul\":4943:5062   */\n      iszero\n      tag_318\n      jumpi\n        /* \"#utility.yul\":4981:5060   */\n      tag_319\n      tag_289\n      jump\t// in\n    tag_319:\n        /* \"#utility.yul\":4943:5062   */\n    tag_318:\n        /* \"#utility.yul\":5101:5102   */\n      0x00\n        /* \"#utility.yul\":5126:5179   */\n      tag_320\n        /* \"#utility.yul\":5171:5178   */\n      dup6\n        /* \"#utility.yul\":5162:5168   */\n      dup3\n        /* \"#utility.yul\":5151:5160   */\n      dup7\n        /* \"#utility.yul\":5147:5169   */\n      add\n        /* \"#utility.yul\":5126:5179   */\n      tag_263\n      jump\t// in\n    tag_320:\n        /* \"#utility.yul\":5116:5179   */\n      swap3\n      pop\n        /* \"#utility.yul\":5072:5189   */\n      pop\n        /* \"#utility.yul\":5228:5230   */\n      0x20\n        /* \"#utility.yul\":5254:5307   */\n      tag_321\n        /* \"#utility.yul\":5299:5306   */\n      dup6\n        /* \"#utility.yul\":5290:5296   */\n      dup3\n        /* \"#utility.yul\":5279:5288   */\n      dup7\n        /* \"#utility.yul\":5275:5297   */\n      add\n        /* \"#utility.yul\":5254:5307   */\n      tag_282\n      jump\t// in\n    tag_321:\n        /* \"#utility.yul\":5244:5307   */\n      swap2\n      pop\n        /* \"#utility.yul\":5199:5317   */\n      pop\n        /* \"#utility.yul\":4850:5324   */\n      swap3\n      pop\n      swap3\n      swap1\n      pop\n      jump\t// out\n        /* \"#utility.yul\":5330:5659   */\n    tag_26:\n        /* \"#utility.yul\":5389:5395   */\n      0x00\n        /* \"#utility.yul\":5438:5440   */\n      0x20\n        /* \"#utility.yul\":5426:5435   */\n      dup3\n        /* \"#utility.yul\":5417:5424   */\n      dup5\n        /* \"#utility.yul\":5413:5436   */\n      sub\n        /* \"#utility.yul\":5409:5441   */\n      slt\n        /* \"#utility.yul\":5406:5525   */\n      iszero\n      tag_323\n      jumpi\n        /* \"#utility.yul\":5444:5523   */\n      tag_324\n      tag_289\n      jump\t// in\n    tag_324:\n        /* \"#utility.yul\":5406:5525   */\n    tag_323:\n        /* \"#utility.yul\":5564:5565   */\n      0x00\n        /* \"#utility.yul\":5589:5642   */\n      tag_325\n        /* \"#utility.yul\":5634:5641   */\n      dup5\n        /* \"#utility.yul\":5625:5631   */\n      dup3\n        /* \"#utility.yul\":5614:5623   */\n      dup6\n        /* \"#utility.yul\":5610:5632   */\n      add\n        /* \"#utility.yul\":5589:5642   */\n      tag_282\n      jump\t// in\n    tag_325:\n        /* \"#utility.yul\":5579:5642   */\n      swap2\n      pop\n        /* \"#utility.yul\":5535:5652   */\n      pop\n        /* \"#utility.yul\":5330:5659   */\n      swap3\n      swap2\n      pop\n      pop\n      jump\t// out\n        /* \"#utility.yul\":5665:6319   */\n    tag_58:\n        /* \"#utility.yul\":5743:5749   */\n      0x00\n        /* \"#utility.yul\":5751:5757   */\n      dup1\n        /* \"#utility.yul\":5800:5802   */\n      0x40\n        /* \"#utility.yul\":5788:5797   */\n      dup4\n        /* \"#utility.yul\":5779:5786   */\n      dup6\n        /* \"#utility.yul\":5775:5798   */\n      sub\n        /* \"#utility.yul\":5771:5803   */\n      slt\n        /* \"#utility.yul\":5768:5887   */\n      iszero\n      tag_327\n      jumpi\n        /* \"#utility.yul\":5806:5885   */\n      tag_328\n      tag_289\n      jump\t// in\n    tag_328:\n        /* \"#utility.yul\":5768:5887   */\n    tag_327:\n        /* \"#utility.yul\":5926:5927   */\n      0x00\n        /* \"#utility.yul\":5951:6004   */\n      tag_329\n        /* \"#utility.yul\":5996:6003   */\n      dup6\n        /* \"#utility.yul\":5987:5993   */\n      dup3\n        /* \"#utility.yul\":5976:5985   */\n      dup7\n        /* \"#utility.yul\":5972:5994   */\n      add\n        /* \"#utility.yul\":5951:6004   */\n      tag_282\n      jump\t// in\n    tag_329:\n        /* \"#utility.yul\":5941:6004   */\n      swap3\n      pop\n        /* \"#utility.yul\":5897:6014   */\n      pop\n        /* \"#utility.yul\":6081:6083   */\n      0x20\n        /* \"#utility.yul\":6070:6079   */\n      dup4\n        /* \"#utility.yul\":6066:6084   */\n      add\n        /* \"#utility.yul\":6053:6085   */\n      calldataload\n        /* \"#utility.yul\":6112:6130   */\n      0xffffffffffffffff\n        /* \"#utility.yul\":6104:6110   */\n      dup2\n        /* \"#utility.yul\":6101:6131   */\n      gt\n        /* \"#utility.yul\":6098:6215   */\n      iszero\n      tag_330\n      jumpi\n        /* \"#utility.yul\":6134:6213   */\n      tag_331\n      tag_310\n      jump\t// in\n    tag_331:\n        /* \"#utility.yul\":6098:6215   */\n    tag_330:\n        /* \"#utility.yul\":6239:6302   */\n      tag_332\n        /* \"#utility.yul\":6294:6301   */\n      dup6\n        /* \"#utility.yul\":6285:6291   */\n      dup3\n        /* \"#utility.yul\":6274:6283   */\n      dup7\n        /* \"#utility.yul\":6270:6292   */\n      add\n        /* \"#utility.yul\":6239:6302   */\n      tag_277\n      jump\t// in\n    tag_332:\n        /* \"#utility.yul\":6229:6302   */\n      swap2\n      pop\n        /* \"#utility.yul\":6024:6312   */\n      pop\n        /* \"#utility.yul\":5665:6319   */\n      swap3\n      pop\n      swap3\n      swap1\n      pop\n      jump\t// out\n        /* \"#utility.yul\":6325:6443   */\n    tag_333:\n        /* \"#utility.yul\":6412:6436   */\n      tag_335\n        /* \"#utility.yul\":6430:6435   */\n      dup2\n        /* \"#utility.yul\":6412:6436   */\n      tag_336\n      jump\t// in\n    tag_335:\n        /* \"#utility.yul\":6407:6410   */\n      dup3\n        /* \"#utility.yul\":6400:6437   */\n      mstore\n        /* \"#utility.yul\":6325:6443   */\n      pop\n      pop\n      jump\t// out\n        /* \"#utility.yul\":6449:6558   */\n    tag_337:\n        /* \"#utility.yul\":6530:6551   */\n      tag_339\n        /* \"#utility.yul\":6545:6550   */\n      dup2\n        /* \"#utility.yul\":6530:6551   */\n      tag_340\n      jump\t// in\n    tag_339:\n        /* \"#utility.yul\":6525:6528   */\n      dup3\n        /* \"#utility.yul\":6518:6552   */\n      mstore\n        /* \"#utility.yul\":6449:6558   */\n      pop\n      pop\n      jump\t// out\n        /* \"#utility.yul\":6564:6682   */\n    tag_341:\n        /* \"#utility.yul\":6651:6675   */\n      tag_343\n        /* \"#utility.yul\":6669:6674   */\n      dup2\n        /* \"#utility.yul\":6651:6675   */\n      tag_344\n      jump\t// in\n    tag_343:\n        /* \"#utility.yul\":6646:6649   */\n      dup3\n        /* \"#utility.yul\":6639:6676   */\n      mstore\n        /* \"#utility.yul\":6564:6682   */\n      pop\n      pop\n      jump\t// out\n        /* \"#utility.yul\":6688:6910   */\n    tag_29:\n        /* \"#utility.yul\":6781:6785   */\n      0x00\n        /* \"#utility.yul\":6819:6821   */\n      0x20\n        /* \"#utility.yul\":6808:6817   */\n      dup3\n        /* \"#utility.yul\":6804:6822   */\n      add\n        /* \"#utility.yul\":6796:6822   */\n      swap1\n      pop\n        /* \"#utility.yul\":6832:6903   */\n      tag_346\n        /* \"#utility.yul\":6900:6901   */\n      0x00\n        /* \"#utility.yul\":6889:6898   */\n      dup4\n        /* \"#utility.yul\":6885:6902   */\n      add\n        /* \"#utility.yul\":6876:6882   */\n      dup5\n        /* \"#utility.yul\":6832:6903   */\n      tag_333\n      jump\t// in\n    tag_346:\n        /* \"#utility.yul\":6688:6910   */\n      swap3\n      swap2\n      pop\n      pop\n      jump\t// out\n        /* \"#utility.yul\":6916:7358   */\n    tag_102:\n        /* \"#utility.yul\":7065:7069   */\n      0x00\n        /* \"#utility.yul\":7103:7105   */\n      0x60\n        /* \"#utility.yul\":7092:7101   */\n      dup3\n        /* \"#utility.yul\":7088:7106   */\n      add\n        /* \"#utility.yul\":7080:7106   */\n      swap1\n      pop\n        /* \"#utility.yul\":7116:7187   */\n      tag_348\n        /* \"#utility.yul\":7184:7185   */\n      0x00\n        /* \"#utility.yul\":7173:7182   */\n      dup4\n        /* \"#utility.yul\":7169:7186   */\n      add\n        /* \"#utility.yul\":7160:7166   */\n      dup7\n        /* \"#utility.yul\":7116:7187   */\n      tag_333\n      jump\t// in\n    tag_348:\n        /* \"#utility.yul\":7197:7269   */\n      tag_349\n        /* \"#utility.yul\":7265:7267   */\n      0x20\n        /* \"#utility.yul\":7254:7263   */\n      dup4\n        /* \"#utility.yul\":7250:7268   */\n      add\n        /* \"#utility.yul\":7241:7247   */\n      dup6\n        /* \"#utility.yul\":7197:7269   */\n      tag_333\n      jump\t// in\n    tag_349:\n        /* \"#utility.yul\":7279:7351   */\n      tag_350\n        /* \"#utility.yul\":7347:7349   */\n      0x40\n        /* \"#utility.yul\":7336:7345   */\n      dup4\n        /* \"#utility.yul\":7332:7350   */\n      add\n        /* \"#utility.yul\":7323:7329   */\n      dup5\n        /* \"#utility.yul\":7279:7351   */\n      tag_341\n      jump\t// in\n    tag_350:\n        /* \"#utility.yul\":6916:7358   */\n      swap5\n      swap4\n      pop\n      pop\n      pop\n      pop\n      jump\t// out\n        /* \"#utility.yul\":7364:7696   */\n    tag_110:\n        /* \"#utility.yul\":7485:7489   */\n      0x00\n        /* \"#utility.yul\":7523:7525   */\n      0x40\n        /* \"#utility.yul\":7512:7521   */\n      dup3\n        /* \"#utility.yul\":7508:7526   */\n      add\n        /* \"#utility.yul\":7500:7526   */\n      swap1\n      pop\n        /* \"#utility.yul\":7536:7607   */\n      tag_352\n        /* \"#utility.yul\":7604:7605   */\n      0x00\n        /* \"#utility.yul\":7593:7602   */\n      dup4\n        /* \"#utility.yul\":7589:7606   */\n      add\n        /* \"#utility.yul\":7580:7586   */\n      dup6\n        /* \"#utility.yul\":7536:7607   */\n      tag_333\n      jump\t// in\n    tag_352:\n        /* \"#utility.yul\":7617:7689   */\n      tag_353\n        /* \"#utility.yul\":7685:7687   */\n      0x20\n        /* \"#utility.yul\":7674:7683   */\n      dup4\n        /* \"#utility.yul\":7670:7688   */\n      add\n        /* \"#utility.yul\":7661:7667   */\n      dup5\n        /* \"#utility.yul\":7617:7689   */\n      tag_341\n      jump\t// in\n    tag_353:\n        /* \"#utility.yul\":7364:7696   */\n      swap4\n      swap3\n      pop\n      pop\n      pop\n      jump\t// out\n        /* \"#utility.yul\":7702:7912   */\n    tag_92:\n        /* \"#utility.yul\":7789:7793   */\n      0x00\n        /* \"#utility.yul\":7827:7829   */\n      0x20\n        /* \"#utility.yul\":7816:7825   */\n      dup3\n        /* \"#utility.yul\":7812:7830   */\n      add\n        /* \"#utility.yul\":7804:7830   */\n      swap1\n      pop\n        /* \"#utility.yul\":7840:7905   */\n      tag_355\n        /* \"#utility.yul\":7902:7903   */\n      0x00\n        /* \"#utility.yul\":7891:7900   */\n      dup4\n        /* \"#utility.yul\":7887:7904   */\n      add\n        /* \"#utility.yul\":7878:7884   */\n      dup5\n        /* \"#utility.yul\":7840:7905   */\n      tag_337\n      jump\t// in\n    tag_355:\n        /* \"#utility.yul\":7702:7912   */\n      swap3\n      swap2\n      pop\n      pop\n      jump\t// out\n        /* \"#utility.yul\":7918:8140   */\n    tag_37:\n        /* \"#utility.yul\":8011:8015   */\n      0x00\n        /* \"#utility.yul\":8049:8051   */\n      0x20\n        /* \"#utility.yul\":8038:8047   */\n      dup3\n        /* \"#utility.yul\":8034:8052   */\n      add\n        /* \"#utility.yul\":8026:8052   */\n      swap1\n      pop\n        /* \"#utility.yul\":8062:8133   */\n      tag_357\n        /* \"#utility.yul\":8130:8131   */\n      0x00\n        /* \"#utility.yul\":8119:8128   */\n      dup4\n        /* \"#utility.yul\":8115:8132   */\n      add\n        /* \"#utility.yul\":8106:8112   */\n      dup5\n        /* \"#utility.yul\":8062:8133   */\n      tag_341\n      jump\t// in\n    tag_357:\n        /* \"#utility.yul\":7918:8140   */\n      swap3\n      swap2\n      pop\n      pop\n      jump\t// out\n        /* \"#utility.yul\":8146:8275   */\n    tag_249:\n        /* \"#utility.yul\":8180:8186   */\n      0x00\n        /* \"#utility.yul\":8207:8227   */\n      tag_359\n      tag_360\n      jump\t// in\n    tag_359:\n        /* \"#utility.yul\":8197:8227   */\n      swap1\n      pop\n        /* \"#utility.yul\":8236:8269   */\n      tag_361\n        /* \"#utility.yul\":8264:8268   */\n      dup3\n        /* \"#utility.yul\":8256:8262   */\n      dup3\n        /* \"#utility.yul\":8236:8269   */\n      tag_362\n      jump\t// in\n    tag_361:\n        /* \"#utility.yul\":8146:8275   */\n      swap2\n      swap1\n      pop\n      jump\t// out\n        /* \"#utility.yul\":8281:8356   */\n    tag_360:\n        /* \"#utility.yul\":8314:8320   */\n      0x00\n        /* \"#utility.yul\":8347:8349   */\n      0x40\n        /* \"#utility.yul\":8341:8350   */\n      mload\n        /* \"#utility.yul\":8331:8350   */\n      swap1\n      pop\n        /* \"#utility.yul\":8281:8356   */\n      swap1\n      jump\t// out\n        /* \"#utility.yul\":8362:8669   */\n    tag_248:\n        /* \"#utility.yul\":8423:8427   */\n      0x00\n        /* \"#utility.yul\":8513:8531   */\n      0xffffffffffffffff\n        /* \"#utility.yul\":8505:8511   */\n      dup3\n        /* \"#utility.yul\":8502:8532   */\n      gt\n        /* \"#utility.yul\":8499:8555   */\n      iszero\n      tag_365\n      jumpi\n        /* \"#utility.yul\":8535:8553   */\n      tag_366\n      tag_367\n      jump\t// in\n    tag_366:\n        /* \"#utility.yul\":8499:8555   */\n    tag_365:\n        /* \"#utility.yul\":8573:8602   */\n      tag_368\n        /* \"#utility.yul\":8595:8601   */\n      dup3\n        /* \"#utility.yul\":8573:8602   */\n      tag_369\n      jump\t// in\n    tag_368:\n        /* \"#utility.yul\":8565:8602   */\n      swap1\n      pop\n        /* \"#utility.yul\":8657:8661   */\n      0x20\n        /* \"#utility.yul\":8651:8655   */\n      dup2\n        /* \"#utility.yul\":8647:8662   */\n      add\n        /* \"#utility.yul\":8639:8662   */\n      swap1\n      pop\n        /* \"#utility.yul\":8362:8669   */\n      swap2\n      swap1\n      pop\n      jump\t// out\n        /* \"#utility.yul\":8675:8983   */\n    tag_259:\n        /* \"#utility.yul\":8737:8741   */\n      0x00\n        /* \"#utility.yul\":8827:8845   */\n      0xffffffffffffffff\n        /* \"#utility.yul\":8819:8825   */\n      dup3\n        /* \"#utility.yul\":8816:8846   */\n      gt\n        /* \"#utility.yul\":8813:8869   */\n      iszero\n      tag_371\n      jumpi\n        /* \"#utility.yul\":8849:8867   */\n      tag_372\n      tag_367\n      jump\t// in\n    tag_372:\n        /* \"#utility.yul\":8813:8869   */\n    tag_371:\n        /* \"#utility.yul\":8887:8916   */\n      tag_373\n        /* \"#utility.yul\":8909:8915   */\n      dup3\n        /* \"#utility.yul\":8887:8916   */\n      tag_369\n      jump\t// in\n    tag_373:\n        /* \"#utility.yul\":8879:8916   */\n      swap1\n      pop\n        /* \"#utility.yul\":8971:8975   */\n      0x20\n        /* \"#utility.yul\":8965:8969   */\n      dup2\n        /* \"#utility.yul\":8961:8976   */\n      add\n        /* \"#utility.yul\":8953:8976   */\n      swap1\n      pop\n        /* \"#utility.yul\":8675:8983   */\n      swap2\n      swap1\n      pop\n      jump\t// out\n        /* \"#utility.yul\":8989:9294   */\n    tag_167:\n        /* \"#utility.yul\":9029:9032   */\n      0x00\n        /* \"#utility.yul\":9048:9068   */\n      tag_375\n        /* \"#utility.yul\":9066:9067   */\n      dup3\n        /* \"#utility.yul\":9048:9068   */\n      tag_344\n      jump\t// in\n    tag_375:\n        /* \"#utility.yul\":9043:9068   */\n      swap2\n      pop\n        /* \"#utility.yul\":9082:9102   */\n      tag_376\n        /* \"#utility.yul\":9100:9101   */\n      dup4\n        /* \"#utility.yul\":9082:9102   */\n      tag_344\n      jump\t// in\n    tag_376:\n        /* \"#utility.yul\":9077:9102   */\n      swap3\n      pop\n        /* \"#utility.yul\":9236:9237   */\n      dup3\n        /* \"#utility.yul\":9168:9234   */\n      0xffffffffffffffffffffffffffffffffffffffffffffffffffffffffffffffff\n        /* \"#utility.yul\":9164:9238   */\n      sub\n        /* \"#utility.yul\":9161:9162   */\n      dup3\n        /* \"#utility.yul\":9158:9239   */\n      gt\n        /* \"#utility.yul\":9155:9262   */\n      iszero\n      tag_377\n      jumpi\n        /* \"#utility.yul\":9242:9260   */\n      tag_378\n      tag_379\n      jump\t// in\n    tag_378:\n        /* \"#utility.yul\":9155:9262   */\n    tag_377:\n        /* \"#utility.yul\":9286:9287   */\n      dup3\n        /* \"#utility.yul\":9283:9284   */\n      dup3\n        /* \"#utility.yul\":9279:9288   */\n      add\n        /* \"#utility.yul\":9272:9288   */\n      swap1\n      pop\n        /* \"#utility.yul\":8989:9294   */\n      swap3\n      swap2\n      pop\n      pop\n      jump\t// out\n        /* \"#utility.yul\":9300:9491   */\n    tag_221:\n        /* \"#utility.yul\":9340:9344   */\n      0x00\n        /* \"#utility.yul\":9360:9380   */\n      tag_381\n        /* \"#utility.yul\":9378:9379   */\n      dup3\n        /* \"#utility.yul\":9360:9380   */\n      tag_344\n      jump\t// in\n    tag_381:\n        /* \"#utility.yul\":9355:9380   */\n      swap2\n      pop\n        /* \"#utility.yul\":9394:9414   */\n      tag_382\n        /* \"#utility.yul\":9412:9413   */\n      dup4\n        /* \"#utility.yul\":9394:9414   */\n      tag_344\n      jump\t// in\n    tag_382:\n        /* \"#utility.yul\":9389:9414   */\n      swap3\n      pop\n        /* \"#utility.yul\":9433:9434   */\n      dup3\n        /* \"#utility.yul\":9430:9431   */\n      dup3\n        /* \"#utility.yul\":9427:9435   */\n      lt\n        /* \"#utility.yul\":9424:9458   */\n      iszero\n      tag_383\n      jumpi\n        /* \"#utility.yul\":9438:9456   */\n      tag_384\n      tag_379\n      jump\t// in\n    tag_384:\n        /* \"#utility.yul\":9424:9458   */\n    tag_383:\n        /* \"#utility.yul\":9483:9484   */\n      dup3\n        /* \"#utility.yul\":9480:9481   */\n      dup3\n        /* \"#utility.yul\":9476:9485   */\n      sub\n        /* \"#utility.yul\":9468:9485   */\n      swap1\n      pop\n        /* \"#utility.yul\":9300:9491   */\n      swap3\n      swap2\n      pop\n      pop\n      jump\t// out\n        /* \"#utility.yul\":9497:9593   */\n    tag_336:\n        /* \"#utility.yul\":9534:9541   */\n      0x00\n        /* \"#utility.yul\":9563:9587   */\n      tag_386\n        /* \"#utility.yul\":9581:9586   */\n      dup3\n        /* \"#utility.yul\":9563:9587   */\n      tag_387\n      jump\t// in\n    tag_386:\n        /* \"#utility.yul\":9552:9587   */\n      swap1\n      pop\n        /* \"#utility.yul\":9497:9593   */\n      swap2\n      swap1\n      pop\n      jump\t// out\n        /* \"#utility.yul\":9599:9689   */\n    tag_340:\n        /* \"#utility.yul\":9633:9640   */\n      0x00\n        /* \"#utility.yul\":9676:9681   */\n      dup2\n        /* \"#utility.yul\":9669:9682   */\n      iszero\n        /* \"#utility.yul\":9662:9683   */\n      iszero\n        /* \"#utility.yul\":9651:9683   */\n      swap1\n      pop\n        /* \"#utility.yul\":9599:9689   */\n      swap2\n      swap1\n      pop\n      jump\t// out\n        /* \"#utility.yul\":9695:9821   */\n    tag_387:\n        /* \"#utility.yul\":9732:9739   */\n      0x00\n        /* \"#utility.yul\":9772:9814   */\n      0xffffffffffffffffffffffffffffffffffffffff\n        /* \"#utility.yul\":9765:9770   */\n      dup3\n        /* \"#utility.yul\":9761:9815   */\n      and\n        /* \"#utility.yul\":9750:9815   */\n      swap1\n      pop\n        /* \"#utility.yul\":9695:9821   */\n      swap2\n      swap1\n      pop\n      jump\t// out\n        /* \"#utility.yul\":9827:9904   */\n    tag_344:\n        /* \"#utility.yul\":9864:9871   */\n      0x00\n        /* \"#utility.yul\":9893:9898   */\n      dup2\n        /* \"#utility.yul\":9882:9898   */\n      swap1\n      pop\n        /* \"#utility.yul\":9827:9904   */\n      swap2\n      swap1\n      pop\n      jump\t// out\n        /* \"#utility.yul\":9910:10064   */\n    tag_254:\n        /* \"#utility.yul\":9994:10000   */\n      dup3\n        /* \"#utility.yul\":9989:9992   */\n      dup2\n        /* \"#utility.yul\":9984:9987   */\n      dup4\n        /* \"#utility.yul\":9971:10001   */\n      calldatacopy\n        /* \"#utility.yul\":10056:10057   */\n      0x00\n        /* \"#utility.yul\":10047:10053   */\n      dup4\n        /* \"#utility.yul\":10042:10045   */\n      dup4\n        /* \"#utility.yul\":10038:10054   */\n      add\n        /* \"#utility.yul\":10031:10058   */\n      mstore\n        /* \"#utility.yul\":9910:10064   */\n      pop\n      pop\n      pop\n      jump\t// out\n        /* \"#utility.yul\":10070:10241   */\n    tag_178:\n        /* \"#utility.yul\":10109:10112   */\n      0x00\n        /* \"#utility.yul\":10132:10156   */\n      tag_393\n        /* \"#utility.yul\":10150:10155   */\n      dup3\n        /* \"#utility.yul\":10132:10156   */\n      tag_344\n      jump\t// in\n    tag_393:\n        /* \"#utility.yul\":10123:10156   */\n      swap2\n      pop\n        /* \"#utility.yul\":10178:10182   */\n      0x00\n        /* \"#utility.yul\":10171:10176   */\n      dup3\n        /* \"#utility.yul\":10168:10183   */\n      eq\n        /* \"#utility.yul\":10165:10206   */\n      iszero\n      tag_394\n      jumpi\n        /* \"#utility.yul\":10186:10204   */\n      tag_395\n      tag_379\n      jump\t// in\n    tag_395:\n        /* \"#utility.yul\":10165:10206   */\n    tag_394:\n        /* \"#utility.yul\":10233:10234   */\n      0x01\n        /* \"#utility.yul\":10226:10231   */\n      dup3\n        /* \"#utility.yul\":10222:10235   */\n      sub\n        /* \"#utility.yul\":10215:10235   */\n      swap1\n      pop\n        /* \"#utility.yul\":10070:10241   */\n      swap2\n      swap1\n      pop\n      jump\t// out\n        /* \"#utility.yul\":10247:10567   */\n    tag_137:\n        /* \"#utility.yul\":10291:10297   */\n      0x00\n        /* \"#utility.yul\":10328:10329   */\n      0x02\n        /* \"#utility.yul\":10322:10326   */\n      dup3\n        /* \"#utility.yul\":10318:10330   */\n      div\n        /* \"#utility.yul\":10308:10330   */\n      swap1\n      pop\n        /* \"#utility.yul\":10375:10376   */\n      0x01\n        /* \"#utility.yul\":10369:10373   */\n      dup3\n        /* \"#utility.yul\":10365:10377   */\n      and\n        /* \"#utility.yul\":10396:10414   */\n      dup1\n        /* \"#utility.yul\":10386:10467   */\n      tag_397\n      jumpi\n        /* \"#utility.yul\":10452:10456   */\n      0x7f\n        /* \"#utility.yul\":10444:10450   */\n      dup3\n        /* \"#utility.yul\":10440:10457   */\n      and\n        /* \"#utility.yul\":10430:10457   */\n      swap2\n      pop\n        /* \"#utility.yul\":10386:10467   */\n    tag_397:\n        /* \"#utility.yul\":10514:10516   */\n      0x20\n        /* \"#utility.yul\":10506:10512   */\n      dup3\n        /* \"#utility.yul\":10503:10517   */\n      lt\n        /* \"#utility.yul\":10483:10501   */\n      dup2\n        /* \"#utility.yul\":10480:10518   */\n      eq\n        /* \"#utility.yul\":10477:10561   */\n      iszero\n      tag_398\n      jumpi\n        /* \"#utility.yul\":10533:10551   */\n      tag_399\n      tag_400\n      jump\t// in\n    tag_399:\n        /* \"#utility.yul\":10477:10561   */\n    tag_398:\n        /* \"#utility.yul\":10298:10567   */\n      pop\n        /* \"#utility.yul\":10247:10567   */\n      swap2\n      swap1\n      pop\n      jump\t// out\n        /* \"#utility.yul\":10573:10854   */\n    tag_362:\n        /* \"#utility.yul\":10656:10683   */\n      tag_402\n        /* \"#utility.yul\":10678:10682   */\n      dup3\n        /* \"#utility.yul\":10656:10683   */\n      tag_369\n      jump\t// in\n    tag_402:\n        /* \"#utility.yul\":10648:10654   */\n      dup2\n        /* \"#utility.yul\":10644:10684   */\n      add\n        /* \"#utility.yul\":10786:10792   */\n      dup2\n        /* \"#utility.yul\":10774:10784   */\n      dup2\n        /* \"#utility.yul\":10771:10793   */\n      lt\n        /* \"#utility.yul\":10750:10768   */\n      0xffffffffffffffff\n        /* \"#utility.yul\":10738:10748   */\n      dup3\n        /* \"#utility.yul\":10735:10769   */\n      gt\n        /* \"#utility.yul\":10732:10794   */\n      or\n        /* \"#utility.yul\":10729:10817   */\n      iszero\n      tag_403\n      jumpi\n        /* \"#utility.yul\":10797:10815   */\n      tag_404\n      tag_367\n      jump\t// in\n    tag_404:\n        /* \"#utility.yul\":10729:10817   */\n    tag_403:\n        /* \"#utility.yul\":10837:10847   */\n      dup1\n        /* \"#utility.yul\":10833:10835   */\n      0x40\n        /* \"#utility.yul\":10826:10848   */\n      mstore\n        /* \"#utility.yul\":10616:10854   */\n      pop\n        /* \"#utility.yul\":10573:10854   */\n      pop\n      pop\n      jump\t// out\n        /* \"#utility.yul\":10860:11093   */\n    tag_225:\n        /* \"#utility.yul\":10899:10902   */\n      0x00\n        /* \"#utility.yul\":10922:10946   */\n      tag_406\n        /* \"#utility.yul\":10940:10945   */\n      dup3\n        /* \"#utility.yul\":10922:10946   */\n      tag_344\n      jump\t// in\n    tag_406:\n        /* \"#utility.yul\":10913:10946   */\n      swap2\n      pop\n        /* \"#utility.yul\":10968:11034   */\n      0xffffffffffffffffffffffffffffffffffffffffffffffffffffffffffffffff\n        /* \"#utility.yul\":10961:10966   */\n      dup3\n        /* \"#utility.yul\":10958:11035   */\n      eq\n        /* \"#utility.yul\":10955:11058   */\n      iszero\n      tag_407\n      jumpi\n        /* \"#utility.yul\":11038:11056   */\n      tag_408\n      tag_379\n      jump\t// in\n    tag_408:\n        /* \"#utility.yul\":10955:11058   */\n    tag_407:\n        /* \"#utility.yul\":11085:11086   */\n      0x01\n        /* \"#utility.yul\":11078:11083   */\n      dup3\n        /* \"#utility.yul\":11074:11087   */\n      add\n        /* \"#utility.yul\":11067:11087   */\n      swap1\n      pop\n        /* \"#utility.yul\":10860:11093   */\n      swap2\n      swap1\n      pop\n      jump\t// out\n        /* \"#utility.yul\":11099:11279   */\n    tag_379:\n        /* \"#utility.yul\":11147:11224   */\n      0x4e487b7100000000000000000000000000000000000000000000000000000000\n        /* \"#utility.yul\":11144:11145   */\n      0x00\n        /* \"#utility.yul\":11137:11225   */\n      mstore\n        /* \"#utility.yul\":11244:11248   */\n      0x11\n        /* \"#utility.yul\":11241:11242   */\n      0x04\n        /* \"#utility.yul\":11234:11249   */\n      mstore\n        /* \"#utility.yul\":11268:11272   */\n      0x24\n        /* \"#utility.yul\":11265:11266   */\n      0x00\n        /* \"#utility.yul\":11258:11273   */\n      revert\n        /* \"#utility.yul\":11285:11465   */\n    tag_129:\n        /* \"#utility.yul\":11333:11410   */\n      0x4e487b7100000000000000000000000000000000000000000000000000000000\n        /* \"#utility.yul\":11330:11331   */\n      0x00\n        /* \"#utility.yul\":11323:11411   */\n      mstore\n        /* \"#utility.yul\":11430:11434   */\n      0x21\n        /* \"#utility.yul\":11427:11428   */\n      0x04\n        /* \"#utility.yul\":11420:11435   */\n      mstore\n        /* \"#utility.yul\":11454:11458   */\n      0x24\n        /* \"#utility.yul\":11451:11452   */\n      0x00\n        /* \"#utility.yul\":11444:11459   */\n      revert\n        /* \"#utility.yul\":11471:11651   */\n    tag_400:\n        /* \"#utility.yul\":11519:11596   */\n      0x4e487b7100000000000000000000000000000000000000000000000000000000\n        /* \"#utility.yul\":11516:11517   */\n      0x00\n        /* \"#utility.yul\":11509:11597   */\n      mstore\n        /* \"#utility.yul\":11616:11620   */\n      0x22\n        /* \"#utility.yul\":11613:11614   */\n      0x04\n        /* \"#utility.yul\":11606:11621   */\n      mstore\n        /* \"#utility.yul\":11640:11644   */\n      0x24\n        /* \"#utility.yul\":11637:11638   */\n      0x00\n        /* \"#utility.yul\":11630:11645   */\n      revert\n        /* \"#utility.yul\":11657:11837   */\n    tag_125:\n        /* \"#utility.yul\":11705:11782   */\n      0x4e487b7100000000000000000000000000000000000000000000000000000000\n        /* \"#utility.yul\":11702:11703   */\n      0x00\n        /* \"#utility.yul\":11695:11783   */\n      mstore\n        /* \"#utility.yul\":11802:11806   */\n      0x32\n        /* \"#utility.yul\":11799:11800   */\n      0x04\n        /* \"#utility.yul\":11792:11807   */\n      mstore\n        /* \"#utility.yul\":11826:11830   */\n      0x24\n        /* \"#utility.yul\":11823:11824   */\n      0x00\n        /* \"#utility.yul\":11816:11831   */\n      revert\n        /* \"#utility.yul\":11843:12023   */\n    tag_367:\n        /* \"#utility.yul\":11891:11968   */\n      0x4e487b7100000000000000000000000000000000000000000000000000000000\n        /* \"#utility.yul\":11888:11889   */\n      0x00\n        /* \"#utility.yul\":11881:11969   */\n      mstore\n        /* \"#utility.yul\":11988:11992   */\n      0x41\n        /* \"#utility.yul\":11985:11986   */\n      0x04\n        /* \"#utility.yul\":11978:11993   */\n      mstore\n        /* \"#utility.yul\":12012:12016   */\n      0x24\n        /* \"#utility.yul\":12009:12010   */\n      0x00\n        /* \"#utility.yul\":12002:12017   */\n      revert\n        /* \"#utility.yul\":12029:12146   */\n    tag_275:\n        /* \"#utility.yul\":12138:12139   */\n      0x00\n        /* \"#utility.yul\":12135:12136   */\n      dup1\n        /* \"#utility.yul\":12128:12140   */\n      revert\n        /* \"#utility.yul\":12152:12269   */\n    tag_252:\n        /* \"#utility.yul\":12261:12262   */\n      0x00\n        /* \"#utility.yul\":12258:12259   */\n      dup1\n        /* \"#utility.yul\":12251:12263   */\n      revert\n        /* \"#utility.yul\":12275:12392   */\n    tag_310:\n        /* \"#utility.yul\":12384:12385   */\n      0x00\n        /* \"#utility.yul\":12381:12382   */\n      dup1\n        /* \"#utility.yul\":12374:12386   */\n      revert\n        /* \"#utility.yul\":12398:12515   */\n    tag_289:\n        /* \"#utility.yul\":12507:12508   */\n      0x00\n        /* \"#utility.yul\":12504:12505   */\n      dup1\n        /* \"#utility.yul\":12497:12509   */\n      revert\n        /* \"#utility.yul\":12521:12623   */\n    tag_369:\n        /* \"#utility.yul\":12562:12568   */\n      0x00\n        /* \"#utility.yul\":12613:12615   */\n      0x1f\n        /* \"#utility.yul\":12609:12616   */\n      not\n        /* \"#utility.yul\":12604:12606   */\n      0x1f\n        /* \"#utility.yul\":12597:12602   */\n      dup4\n        /* \"#utility.yul\":12593:12607   */\n      add\n        /* \"#utility.yul\":12589:12617   */\n      and\n        /* \"#utility.yul\":12579:12617   */\n      swap1\n      pop\n        /* \"#utility.yul\":12521:12623   */\n      swap2\n      swap1\n      pop\n      jump\t// out\n        /* \"#utility.yul\":12629:12751   */\n    tag_266:\n        /* \"#utility.yul\":12702:12726   */\n      tag_420\n        /* \"#utility.yul\":12720:12725   */\n      dup2\n        /* \"#utility.yul\":12702:12726   */\n      tag_336\n      jump\t// in\n    tag_420:\n        /* \"#utility.yul\":12695:12700   */\n      dup2\n        /* \"#utility.yul\":12692:12727   */\n      eq\n        /* \"#utility.yul\":12682:12745   */\n      tag_421\n      jumpi\n        /* \"#utility.yul\":12741:12742   */\n      0x00\n        /* \"#utility.yul\":12738:12739   */\n      dup1\n        /* \"#utility.yul\":12731:12743   */\n      revert\n        /* \"#utility.yul\":12682:12745   */\n    tag_421:\n        /* \"#utility.yul\":12629:12751   */\n      pop\n      jump\t// out\n        /* \"#utility.yul\":12757:12873   */\n    tag_270:\n        /* \"#utility.yul\":12827:12848   */\n      tag_423\n        /* \"#utility.yul\":12842:12847   */\n      dup2\n        /* \"#utility.yul\":12827:12848   */\n      tag_340\n      jump\t// in\n    tag_423:\n        /* \"#utility.yul\":12820:12825   */\n      dup2\n        /* \"#utility.yul\":12817:12849   */\n      eq\n        /* \"#utility.yul\":12807:12867   */\n      tag_424\n      jumpi\n        /* \"#utility.yul\":12863:12864   */\n      0x00\n        /* \"#utility.yul\":12860:12861   */\n      dup1\n        /* \"#utility.yul\":12853:12865   */\n      revert\n        /* \"#utility.yul\":12807:12867   */\n    tag_424:\n        /* \"#utility.yul\":12757:12873   */\n      pop\n      jump\t// out\n        /* \"#utility.yul\":12879:13001   */\n    tag_285:\n        /* \"#utility.yul\":12952:12976   */\n      tag_426\n        /* \"#utility.yul\":12970:12975   */\n      dup2\n        /* \"#utility.yul\":12952:12976   */\n      tag_344\n      jump\t// in\n    tag_426:\n        /* \"#utility.yul\":12945:12950   */\n      dup2\n        /* \"#utility.yul\":12942:12977   */\n      eq\n        /* \"#utility.yul\":12932:12995   */\n      tag_427\n      jumpi\n        /* \"#utility.yul\":12991:12992   */\n      0x00\n        /* \"#utility.yul\":12988:12989   */\n      dup1\n        /* \"#utility.yul\":12981:12993   */\n      revert\n        /* \"#utility.yul\":12932:12995   */\n    tag_427:\n        /* \"#utility.yul\":12879:13001   */\n      pop\n      jump\t// out\n\n    auxdata: 0xa2646970667358221220ec5289e22dee407506b35cedd43f08c6c3505b0e5386fa6e2ef0e121af475d2664736f6c63430008070033\n}\n",
				"bytecode": {
					"linkReferences": {},
					"object": "608060405234801561001057600080fd5b50336000806101000a81548173ffffffffffffffffffffffffffffffffffffffff021916908373ffffffffffffffffffffffffffffffffffffffff160217905550611b8e806100606000396000f3fe608060405234801561001057600080fd5b50600436106101165760003560e01c80636352211e116100a2578063a8bd9c3211610071578063a8bd9c32146102ed578063b88d4fde1461031d578063e1721ec814610339578063e985e9c514610355578063f2fde38b1461038557610116565b80636352211e1461025557806370a08231146102855780639dc29fac146102b5578063a22cb465146102d157610116565b806321ea02f9116100e957806321ea02f9146101b557806323b872dd146101d157806342842e0e146101ed57806348c20f3d146102095780635690d0d91461023957610116565b8063081812fc1461011b578063095ea7b31461014b57806318160ddd146101675780631d36e06c14610185575b600080fd5b6101356004803603810190610130919061165e565b6103a1565b6040516101429190611714565b60405180910390f35b6101656004803603810190610160919061161e565b6103a8565b005b61016f6104b2565b60405161017c91906117aa565b60405180910390f35b61019f600480360381019061019a919061165e565b6104bf565b6040516101ac9190611714565b60405180910390f35b6101cf60048036038101906101ca919061161e565b6104f2565b005b6101eb60048036038101906101e69190611508565b610596565b005b61020760048036038101906102029190611508565b610684565b005b610223600480360381019061021e919061161e565b610689565b60405161023091906117aa565b60405180910390f35b610253600480360381019061024e919061168b565b6108bf565b005b61026f600480360381019061026a919061165e565b6109f3565b60405161027c9190611714565b60405180910390f35b61029f600480360381019061029a919061149b565b610a6a565b6040516102ac91906117aa565b60405180910390f35b6102cf60048036038101906102ca919061161e565b610ab3565b005b6102eb60048036038101906102e691906115de565b610ca8565b005b6103076004803603810190610302919061165e565b610cac565b6040516103149190611714565b60405180910390f35b6103376004803603810190610332919061155b565b610cdf565b005b610353600480360381019061034e919061161e565b610ce5565b005b61036f600480360381019061036a91906114c8565b610e2b565b60405161037c919061178f565b60405180910390f35b61039f600480360381019061039a919061149b565b610e33565b005b6000919050565b6103b23382610ece565b6103bb57600080fd5b816004600083815260200190815260200160002060006101000a81548173ffffffffffffffffffffffffffffffffffffffff021916908373ffffffffffffffffffffffffffffffffffffffff1602179055507f8c5be1e5ebec7d5bd14f71427d1e84f3dd0314c0f7b2291e5b200ac8c7c3b9256002600083815260200190815260200160002060009054906101000a900473ffffffffffffffffffffffffffffffffffffffff166004600084815260200190815260200160002060009054906101000a900473ffffffffffffffffffffffffffffffffffffffff16836040516104a69392919061172f565b60405180910390a15050565b6000600180549050905090565b60026020528060005260406000206000915054906101000a900473ffffffffffffffffffffffffffffffffffffffff1681565b60008054906101000a900473ffffffffffffffffffffffffffffffffffffffff1673ffffffffffffffffffffffffffffffffffffffff163373ffffffffffffffffffffffffffffffffffffffff161461054a57600080fd5b60006105568383610f3a565b90507f438c1191298866ed823d6b9068bc5bdcdea4883fb9ad0584b7c51354efa3c44e8382604051610589929190611766565b60405180910390a1505050565b60008054906101000a900473ffffffffffffffffffffffffffffffffffffffff1673ffffffffffffffffffffffffffffffffffffffff163373ffffffffffffffffffffffffffffffffffffffff16146105ee57600080fd5b600073ffffffffffffffffffffffffffffffffffffffff168273ffffffffffffffffffffffffffffffffffffffff16141561062857600080fd5b3073ffffffffffffffffffffffffffffffffffffffff168273ffffffffffffffffffffffffffffffffffffffff16141561066157600080fd5b61066b8382610ece565b61067457600080fd5b61067f8383836110f2565b505050565b505050565b60008273ffffffffffffffffffffffffffffffffffffffff166002600084815260200190815260200160002060009054906101000a900473ffffffffffffffffffffffffffffffffffffffff1673ffffffffffffffffffffffffffffffffffffffff16146106f657600080fd5b60006001838154811061070c5761070b611a90565b5b90600052602060002090600502016040518060a00160405290816000820160009054906101000a900460ff16600181111561074a57610749611a32565b5b600181111561075c5761075b611a32565b5b815260200160018201548152602001600282015481526020016003820160009054906101000a900460ff16600281111561079957610798611a32565b5b60028111156107ab576107aa611a32565b5b81526020016004820180546107bf90611957565b80601f01602080910402602001604051908101604052809291908181526020018280546107eb90611957565b80156108385780601f1061080d57610100808354040283529160200191610838565b820191906000526020600020905b81548152906001019060200180831161081b57829003601f168201915b505050505081525050905042816040015110801561087e57506000600281111561086557610864611a32565b5b8160600151600281111561087c5761087b611a32565b5b145b1561089e5760028081111561089657610895611a32565b5b9150506108b9565b806060015160028111156108b5576108b4611a32565b5b9150505b92915050565b60008054906101000a900473ffffffffffffffffffffffffffffffffffffffff1673ffffffffffffffffffffffffffffffffffffffff163373ffffffffffffffffffffffffffffffffffffffff161461091757600080fd5b60006001838154811061092d5761092c611a90565b5b9060005260206000209060050201905060008160010154141561094f57600080fd5b6001600281111561096357610962611a32565b5b8160030160009054906101000a900460ff16600281111561098757610986611a32565b5b1461099157600080fd5b60008160030160006101000a81548160ff021916908360028111156109b9576109b8611a32565b5b021790555062278d00426109cd919061184c565b8160020181905550818160040190805190602001906109ed929190611299565b50505050565b60006002600083815260200190815260200160002060009054906101000a900473ffffffffffffffffffffffffffffffffffffffff169050600073ffffffffffffffffffffffffffffffffffffffff168173ffffffffffffffffffffffffffffffffffffffff161415610a6557600080fd5b919050565b6000600360008373ffffffffffffffffffffffffffffffffffffffff1673ffffffffffffffffffffffffffffffffffffffff168152602001908152602001600020549050919050565b60008054906101000a900473ffffffffffffffffffffffffffffffffffffffff1673ffffffffffffffffffffffffffffffffffffffff163373ffffffffffffffffffffffffffffffffffffffff1614610b0b57600080fd5b8173ffffffffffffffffffffffffffffffffffffffff166002600083815260200190815260200160002060009054906101000a900473ffffffffffffffffffffffffffffffffffffffff1673ffffffffffffffffffffffffffffffffffffffff1614610b7657600080fd5b600360008373ffffffffffffffffffffffffffffffffffffffff1673ffffffffffffffffffffffffffffffffffffffff1681526020019081526020016000206000815480929190610bc69061192d565b91905055506002600082815260200190815260200160002060006101000a81549073ffffffffffffffffffffffffffffffffffffffff021916905560018181548110610c1557610c14611a90565b5b9060005260206000209060050201600080820160006101000a81549060ff0219169055600182016000905560028201600090556003820160006101000a81549060ff0219169055600482016000610c6c919061131f565b50506004600082815260200190815260200160002060006101000a81549073ffffffffffffffffffffffffffffffffffffffff02191690555050565b5050565b60046020528060005260406000206000915054906101000a900473ffffffffffffffffffffffffffffffffffffffff1681565b50505050565b60008054906101000a900473ffffffffffffffffffffffffffffffffffffffff1673ffffffffffffffffffffffffffffffffffffffff163373ffffffffffffffffffffffffffffffffffffffff1614610d3d57600080fd5b8173ffffffffffffffffffffffffffffffffffffffff166002600083815260200190815260200160002060009054906101000a900473ffffffffffffffffffffffffffffffffffffffff1673ffffffffffffffffffffffffffffffffffffffff1614610da857600080fd5b600060018281548110610dbe57610dbd611a90565b5b90600052602060002090600502019050428160020154108015610e16575060006002811115610df057610def611a32565b5b8160030160009054906101000a900460ff166002811115610e1457610e13611a32565b5b145b15610e2657610e258383610ab3565b5b505050565b600092915050565b60008054906101000a900473ffffffffffffffffffffffffffffffffffffffff1673ffffffffffffffffffffffffffffffffffffffff163373ffffffffffffffffffffffffffffffffffffffff1614610e8b57600080fd5b806000806101000a81548173ffffffffffffffffffffffffffffffffffffffff021916908373ffffffffffffffffffffffffffffffffffffffff16021790555050565b60008273ffffffffffffffffffffffffffffffffffffffff166002600084815260200190815260200160002060009054906101000a900473ffffffffffffffffffffffffffffffffffffffff1673ffffffffffffffffffffffffffffffffffffffff1614905092915050565b60008060009054906101000a900473ffffffffffffffffffffffffffffffffffffffff1673ffffffffffffffffffffffffffffffffffffffff163373ffffffffffffffffffffffffffffffffffffffff1614610f9557600080fd5b60006040518060a00160405280846001811115610fb557610fb4611a32565b5b6001811115610fc757610fc6611a32565b5b81526020014281526020016000815260200160016002811115610fed57610fec611a32565b5b8152602001604051806020016040528060008152508152509050600181908060018154018082558091505060019003906000526020600020906005020160009091909190915060008201518160000160006101000a81548160ff0219169083600181111561105e5761105d611a32565b5b0217905550602082015181600101556040820151816002015560608201518160030160006101000a81548160ff021916908360028111156110a2576110a1611a32565b5b021790555060808201518160040190805190602001906110c3929190611299565b5050506000600180805490506110d991906118a2565b90506110e7600086836110f2565b809250505092915050565b600360008373ffffffffffffffffffffffffffffffffffffffff1673ffffffffffffffffffffffffffffffffffffffff1681526020019081526020016000206000815480929190611142906119ba565b9190505550816002600083815260200190815260200160002060006101000a81548173ffffffffffffffffffffffffffffffffffffffff021916908373ffffffffffffffffffffffffffffffffffffffff160217905550600073ffffffffffffffffffffffffffffffffffffffff168373ffffffffffffffffffffffffffffffffffffffff161461125957600360008473ffffffffffffffffffffffffffffffffffffffff1673ffffffffffffffffffffffffffffffffffffffff168152602001908152602001600020600081548092919061121d9061192d565b91905055506004600082815260200190815260200160002060006101000a81549073ffffffffffffffffffffffffffffffffffffffff02191690555b7fddf252ad1be2c89b69c2b068fc378daa952ba7f163c4a11628f55a4df523b3ef83838360405161128c9392919061172f565b60405180910390a1505050565b8280546112a590611957565b90600052602060002090601f0160209004810192826112c7576000855561130e565b82601f106112e057805160ff191683800117855561130e565b8280016001018555821561130e579182015b8281111561130d5782518255916020019190600101906112f2565b5b50905061131b919061135f565b5090565b50805461132b90611957565b6000825580601f1061133d575061135c565b601f01602090049060005260206000209081019061135b919061135f565b5b50565b5b80821115611378576000816000905550600101611360565b5090565b600061138f61138a846117ea565b6117c5565b9050828152602081018484840111156113ab576113aa611af3565b5b6113b684828561191e565b509392505050565b60006113d16113cc8461181b565b6117c5565b9050828152602081018484840111156113ed576113ec611af3565b5b6113f884828561191e565b509392505050565b60008135905061140f81611b13565b92915050565b60008135905061142481611b2a565b92915050565b600082601f83011261143f5761143e611aee565b5b813561144f84826020860161137c565b91505092915050565b600082601f83011261146d5761146c611aee565b5b813561147d8482602086016113be565b91505092915050565b60008135905061149581611b41565b92915050565b6000602082840312156114b1576114b0611afd565b5b60006114bf84828501611400565b91505092915050565b600080604083850312156114df576114de611afd565b5b60006114ed85828601611400565b92505060206114fe85828601611400565b9150509250929050565b60008060006060848603121561152157611520611afd565b5b600061152f86828701611400565b935050602061154086828701611400565b925050604061155186828701611486565b9150509250925092565b6000806000806080858703121561157557611574611afd565b5b600061158387828801611400565b945050602061159487828801611400565b93505060406115a587828801611486565b925050606085013567ffffffffffffffff8111156115c6576115c5611af8565b5b6115d28782880161142a565b91505092959194509250565b600080604083850312156115f5576115f4611afd565b5b600061160385828601611400565b925050602061161485828601611415565b9150509250929050565b6000806040838503121561163557611634611afd565b5b600061164385828601611400565b925050602061165485828601611486565b9150509250929050565b60006020828403121561167457611673611afd565b5b600061168284828501611486565b91505092915050565b600080604083850312156116a2576116a1611afd565b5b60006116b085828601611486565b925050602083013567ffffffffffffffff8111156116d1576116d0611af8565b5b6116dd85828601611458565b9150509250929050565b6116f0816118d6565b82525050565b6116ff816118e8565b82525050565b61170e81611914565b82525050565b600060208201905061172960008301846116e7565b92915050565b600060608201905061174460008301866116e7565b61175160208301856116e7565b61175e6040830184611705565b949350505050565b600060408201905061177b60008301856116e7565b6117886020830184611705565b9392505050565b60006020820190506117a460008301846116f6565b92915050565b60006020820190506117bf6000830184611705565b92915050565b60006117cf6117e0565b90506117db8282611989565b919050565b6000604051905090565b600067ffffffffffffffff82111561180557611804611abf565b5b61180e82611b02565b9050602081019050919050565b600067ffffffffffffffff82111561183657611835611abf565b5b61183f82611b02565b9050602081019050919050565b600061185782611914565b915061186283611914565b9250827fffffffffffffffffffffffffffffffffffffffffffffffffffffffffffffffff0382111561189757611896611a03565b5b828201905092915050565b60006118ad82611914565b91506118b883611914565b9250828210156118cb576118ca611a03565b5b828203905092915050565b60006118e1826118f4565b9050919050565b60008115159050919050565b600073ffffffffffffffffffffffffffffffffffffffff82169050919050565b6000819050919050565b82818337600083830152505050565b600061193882611914565b9150600082141561194c5761194b611a03565b5b600182039050919050565b6000600282049050600182168061196f57607f821691505b6020821081141561198357611982611a61565b5b50919050565b61199282611b02565b810181811067ffffffffffffffff821117156119b1576119b0611abf565b5b80604052505050565b60006119c582611914565b91507fffffffffffffffffffffffffffffffffffffffffffffffffffffffffffffffff8214156119f8576119f7611a03565b5b600182019050919050565b7f4e487b7100000000000000000000000000000000000000000000000000000000600052601160045260246000fd5b7f4e487b7100000000000000000000000000000000000000000000000000000000600052602160045260246000fd5b7f4e487b7100000000000000000000000000000000000000000000000000000000600052602260045260246000fd5b7f4e487b7100000000000000000000000000000000000000000000000000000000600052603260045260246000fd5b7f4e487b7100000000000000000000000000000000000000000000000000000000600052604160045260246000fd5b600080fd5b600080fd5b600080fd5b600080fd5b6000601f19601f8301169050919050565b611b1c816118d6565b8114611b2757600080fd5b50565b611b33816118e8565b8114611b3e57600080fd5b50565b611b4a81611914565b8114611b5557600080fd5b5056fea2646970667358221220ec5289e22dee407506b35cedd43f08c6c3505b0e5386fa6e2ef0e121af475d2664736f6c63430008070033",
					"opcodes": "PUSH1 0x80 PUSH1 0x40 MSTORE CALLVALUE DUP1 ISZERO PUSH2 0x10 JUMPI PUSH1 0x0 DUP1 REVERT JUMPDEST POP CALLER PUSH1 0x0 DUP1 PUSH2 0x100 EXP DUP2 SLOAD DUP2 PUSH20 0xFFFFFFFFFFFFFFFFFFFFFFFFFFFFFFFFFFFFFFFF MUL NOT AND SWAP1 DUP4 PUSH20 0xFFFFFFFFFFFFFFFFFFFFFFFFFFFFFFFFFFFFFFFF AND MUL OR SWAP1 SSTORE POP PUSH2 0x1B8E DUP1 PUSH2 0x60 PUSH1 0x0 CODECOPY PUSH1 0x0 RETURN INVALID PUSH1 0x80 PUSH1 0x40 MSTORE CALLVALUE DUP1 ISZERO PUSH2 0x10 JUMPI PUSH1 0x0 DUP1 REVERT JUMPDEST POP PUSH1 0x4 CALLDATASIZE LT PUSH2 0x116 JUMPI PUSH1 0x0 CALLDATALOAD PUSH1 0xE0 SHR DUP1 PUSH4 0x6352211E GT PUSH2 0xA2 JUMPI DUP1 PUSH4 0xA8BD9C32 GT PUSH2 0x71 JUMPI DUP1 PUSH4 0xA8BD9C32 EQ PUSH2 0x2ED JUMPI DUP1 PUSH4 0xB88D4FDE EQ PUSH2 0x31D JUMPI DUP1 PUSH4 0xE1721EC8 EQ PUSH2 0x339 JUMPI DUP1 PUSH4 0xE985E9C5 EQ PUSH2 0x355 JUMPI DUP1 PUSH4 0xF2FDE38B EQ PUSH2 0x385 JUMPI PUSH2 0x116 JUMP JUMPDEST DUP1 PUSH4 0x6352211E EQ PUSH2 0x255 JUMPI DUP1 PUSH4 0x70A08231 EQ PUSH2 0x285 JUMPI DUP1 PUSH4 0x9DC29FAC EQ PUSH2 0x2B5 JUMPI DUP1 PUSH4 0xA22CB465 EQ PUSH2 0x2D1 JUMPI PUSH2 0x116 JUMP JUMPDEST DUP1 PUSH4 0x21EA02F9 GT PUSH2 0xE9 JUMPI DUP1 PUSH4 0x21EA02F9 EQ PUSH2 0x1B5 JUMPI DUP1 PUSH4 0x23B872DD EQ PUSH2 0x1D1 JUMPI DUP1 PUSH4 0x42842E0E EQ PUSH2 0x1ED JUMPI DUP1 PUSH4 0x48C20F3D EQ PUSH2 0x209 JUMPI DUP1 PUSH4 0x5690D0D9 EQ PUSH2 0x239 JUMPI PUSH2 0x116 JUMP JUMPDEST DUP1 PUSH4 0x81812FC EQ PUSH2 0x11B JUMPI DUP1 PUSH4 0x95EA7B3 EQ PUSH2 0x14B JUMPI DUP1 PUSH4 0x18160DDD EQ PUSH2 0x167 JUMPI DUP1 PUSH4 0x1D36E06C EQ PUSH2 0x185 JUMPI JUMPDEST PUSH1 0x0 DUP1 REVERT JUMPDEST PUSH2 0x135 PUSH1 0x4 DUP1 CALLDATASIZE SUB DUP2 ADD SWAP1 PUSH2 0x130 SWAP2 SWAP1 PUSH2 0x165E JUMP JUMPDEST PUSH2 0x3A1 JUMP JUMPDEST PUSH1 0x40 MLOAD PUSH2 0x142 SWAP2 SWAP1 PUSH2 0x1714 JUMP JUMPDEST PUSH1 0x40 MLOAD DUP1 SWAP2 SUB SWAP1 RETURN JUMPDEST PUSH2 0x165 PUSH1 0x4 DUP1 CALLDATASIZE SUB DUP2 ADD SWAP1 PUSH2 0x160 SWAP2 SWAP1 PUSH2 0x161E JUMP JUMPDEST PUSH2 0x3A8 JUMP JUMPDEST STOP JUMPDEST PUSH2 0x16F PUSH2 0x4B2 JUMP JUMPDEST PUSH1 0x40 MLOAD PUSH2 0x17C SWAP2 SWAP1 PUSH2 0x17AA JUMP JUMPDEST PUSH1 0x40 MLOAD DUP1 SWAP2 SUB SWAP1 RETURN JUMPDEST PUSH2 0x19F PUSH1 0x4 DUP1 CALLDATASIZE SUB DUP2 ADD SWAP1 PUSH2 0x19A SWAP2 SWAP1 PUSH2 0x165E JUMP JUMPDEST PUSH2 0x4BF JUMP JUMPDEST PUSH1 0x40 MLOAD PUSH2 0x1AC SWAP2 SWAP1 PUSH2 0x1714 JUMP JUMPDEST PUSH1 0x40 MLOAD DUP1 SWAP2 SUB SWAP1 RETURN JUMPDEST PUSH2 0x1CF PUSH1 0x4 DUP1 CALLDATASIZE SUB DUP2 ADD SWAP1 PUSH2 0x1CA SWAP2 SWAP1 PUSH2 0x161E JUMP JUMPDEST PUSH2 0x4F2 JUMP JUMPDEST STOP JUMPDEST PUSH2 0x1EB PUSH1 0x4 DUP1 CALLDATASIZE SUB DUP2 ADD SWAP1 PUSH2 0x1E6 SWAP2 SWAP1 PUSH2 0x1508 JUMP JUMPDEST PUSH2 0x596 JUMP JUMPDEST STOP JUMPDEST PUSH2 0x207 PUSH1 0x4 DUP1 CALLDATASIZE SUB DUP2 ADD SWAP1 PUSH2 0x202 SWAP2 SWAP1 PUSH2 0x1508 JUMP JUMPDEST PUSH2 0x684 JUMP JUMPDEST STOP JUMPDEST PUSH2 0x223 PUSH1 0x4 DUP1 CALLDATASIZE SUB DUP2 ADD SWAP1 PUSH2 0x21E SWAP2 SWAP1 PUSH2 0x161E JUMP JUMPDEST PUSH2 0x689 JUMP JUMPDEST PUSH1 0x40 MLOAD PUSH2 0x230 SWAP2 SWAP1 PUSH2 0x17AA JUMP JUMPDEST PUSH1 0x40 MLOAD DUP1 SWAP2 SUB SWAP1 RETURN JUMPDEST PUSH2 0x253 PUSH1 0x4 DUP1 CALLDATASIZE SUB DUP2 ADD SWAP1 PUSH2 0x24E SWAP2 SWAP1 PUSH2 0x168B JUMP JUMPDEST PUSH2 0x8BF JUMP JUMPDEST STOP JUMPDEST PUSH2 0x26F PUSH1 0x4 DUP1 CALLDATASIZE SUB DUP2 ADD SWAP1 PUSH2 0x26A SWAP2 SWAP1 PUSH2 0x165E JUMP JUMPDEST PUSH2 0x9F3 JUMP JUMPDEST PUSH1 0x40 MLOAD PUSH2 0x27C SWAP2 SWAP1 PUSH2 0x1714 JUMP JUMPDEST PUSH1 0x40 MLOAD DUP1 SWAP2 SUB SWAP1 RETURN JUMPDEST PUSH2 0x29F PUSH1 0x4 DUP1 CALLDATASIZE SUB DUP2 ADD SWAP1 PUSH2 0x29A SWAP2 SWAP1 PUSH2 0x149B JUMP JUMPDEST PUSH2 0xA6A JUMP JUMPDEST PUSH1 0x40 MLOAD PUSH2 0x2AC SWAP2 SWAP1 PUSH2 0x17AA JUMP JUMPDEST PUSH1 0x40 MLOAD DUP1 SWAP2 SUB SWAP1 RETURN JUMPDEST PUSH2 0x2CF PUSH1 0x4 DUP1 CALLDATASIZE SUB DUP2 ADD SWAP1 PUSH2 0x2CA SWAP2 SWAP1 PUSH2 0x161E JUMP JUMPDEST PUSH2 0xAB3 JUMP JUMPDEST STOP JUMPDEST PUSH2 0x2EB PUSH1 0x4 DUP1 CALLDATASIZE SUB DUP2 ADD SWAP1 PUSH2 0x2E6 SWAP2 SWAP1 PUSH2 0x15DE JUMP JUMPDEST PUSH2 0xCA8 JUMP JUMPDEST STOP JUMPDEST PUSH2 0x307 PUSH1 0x4 DUP1 CALLDATASIZE SUB DUP2 ADD SWAP1 PUSH2 0x302 SWAP2 SWAP1 PUSH2 0x165E JUMP JUMPDEST PUSH2 0xCAC JUMP JUMPDEST PUSH1 0x40 MLOAD PUSH2 0x314 SWAP2 SWAP1 PUSH2 0x1714 JUMP JUMPDEST PUSH1 0x40 MLOAD DUP1 SWAP2 SUB SWAP1 RETURN JUMPDEST PUSH2 0x337 PUSH1 0x4 DUP1 CALLDATASIZE SUB DUP2 ADD SWAP1 PUSH2 0x332 SWAP2 SWAP1 PUSH2 0x155B JUMP JUMPDEST PUSH2 0xCDF JUMP JUMPDEST STOP JUMPDEST PUSH2 0x353 PUSH1 0x4 DUP1 CALLDATASIZE SUB DUP2 ADD SWAP1 PUSH2 0x34E SWAP2 SWAP1 PUSH2 0x161E JUMP JUMPDEST PUSH2 0xCE5 JUMP JUMPDEST STOP JUMPDEST PUSH2 0x36F PUSH1 0x4 DUP1 CALLDATASIZE SUB DUP2 ADD SWAP1 PUSH2 0x36A SWAP2 SWAP1 PUSH2 0x14C8 JUMP JUMPDEST PUSH2 0xE2B JUMP JUMPDEST PUSH1 0x40 MLOAD PUSH2 0x37C SWAP2 SWAP1 PUSH2 0x178F JUMP JUMPDEST PUSH1 0x40 MLOAD DUP1 SWAP2 SUB SWAP1 RETURN JUMPDEST PUSH2 0x39F PUSH1 0x4 DUP1 CALLDATASIZE SUB DUP2 ADD SWAP1 PUSH2 0x39A SWAP2 SWAP1 PUSH2 0x149B JUMP JUMPDEST PUSH2 0xE33 JUMP JUMPDEST STOP JUMPDEST PUSH1 0x0 SWAP2 SWAP1 POP JUMP JUMPDEST PUSH2 0x3B2 CALLER DUP3 PUSH2 0xECE JUMP JUMPDEST PUSH2 0x3BB JUMPI PUSH1 0x0 DUP1 REVERT JUMPDEST DUP2 PUSH1 0x4 PUSH1 0x0 DUP4 DUP2 MSTORE PUSH1 0x20 ADD SWAP1 DUP2 MSTORE PUSH1 0x20 ADD PUSH1 0x0 KECCAK256 PUSH1 0x0 PUSH2 0x100 EXP DUP2 SLOAD DUP2 PUSH20 0xFFFFFFFFFFFFFFFFFFFFFFFFFFFFFFFFFFFFFFFF MUL NOT AND SWAP1 DUP4 PUSH20 0xFFFFFFFFFFFFFFFFFFFFFFFFFFFFFFFFFFFFFFFF AND MUL OR SWAP1 SSTORE POP PUSH32 0x8C5BE1E5EBEC7D5BD14F71427D1E84F3DD0314C0F7B2291E5B200AC8C7C3B925 PUSH1 0x2 PUSH1 0x0 DUP4 DUP2 MSTORE PUSH1 0x20 ADD SWAP1 DUP2 MSTORE PUSH1 0x20 ADD PUSH1 0x0 KECCAK256 PUSH1 0x0 SWAP1 SLOAD SWAP1 PUSH2 0x100 EXP SWAP1 DIV PUSH20 0xFFFFFFFFFFFFFFFFFFFFFFFFFFFFFFFFFFFFFFFF AND PUSH1 0x4 PUSH1 0x0 DUP5 DUP2 MSTORE PUSH1 0x20 ADD SWAP1 DUP2 MSTORE PUSH1 0x20 ADD PUSH1 0x0 KECCAK256 PUSH1 0x0 SWAP1 SLOAD SWAP1 PUSH2 0x100 EXP SWAP1 DIV PUSH20 0xFFFFFFFFFFFFFFFFFFFFFFFFFFFFFFFFFFFFFFFF AND DUP4 PUSH1 0x40 MLOAD PUSH2 0x4A6 SWAP4 SWAP3 SWAP2 SWAP1 PUSH2 0x172F JUMP JUMPDEST PUSH1 0x40 MLOAD DUP1 SWAP2 SUB SWAP1 LOG1 POP POP JUMP JUMPDEST PUSH1 0x0 PUSH1 0x1 DUP1 SLOAD SWAP1 POP SWAP1 POP SWAP1 JUMP JUMPDEST PUSH1 0x2 PUSH1 0x20 MSTORE DUP1 PUSH1 0x0 MSTORE PUSH1 0x40 PUSH1 0x0 KECCAK256 PUSH1 0x0 SWAP2 POP SLOAD SWAP1 PUSH2 0x100 EXP SWAP1 DIV PUSH20 0xFFFFFFFFFFFFFFFFFFFFFFFFFFFFFFFFFFFFFFFF AND DUP2 JUMP JUMPDEST PUSH1 0x0 DUP1 SLOAD SWAP1 PUSH2 0x100 EXP SWAP1 DIV PUSH20 0xFFFFFFFFFFFFFFFFFFFFFFFFFFFFFFFFFFFFFFFF AND PUSH20 0xFFFFFFFFFFFFFFFFFFFFFFFFFFFFFFFFFFFFFFFF AND CALLER PUSH20 0xFFFFFFFFFFFFFFFFFFFFFFFFFFFFFFFFFFFFFFFF AND EQ PUSH2 0x54A JUMPI PUSH1 0x0 DUP1 REVERT JUMPDEST PUSH1 0x0 PUSH2 0x556 DUP4 DUP4 PUSH2 0xF3A JUMP JUMPDEST SWAP1 POP PUSH32 0x438C1191298866ED823D6B9068BC5BDCDEA4883FB9AD0584B7C51354EFA3C44E DUP4 DUP3 PUSH1 0x40 MLOAD PUSH2 0x589 SWAP3 SWAP2 SWAP1 PUSH2 0x1766 JUMP JUMPDEST PUSH1 0x40 MLOAD DUP1 SWAP2 SUB SWAP1 LOG1 POP POP POP JUMP JUMPDEST PUSH1 0x0 DUP1 SLOAD SWAP1 PUSH2 0x100 EXP SWAP1 DIV PUSH20 0xFFFFFFFFFFFFFFFFFFFFFFFFFFFFFFFFFFFFFFFF AND PUSH20 0xFFFFFFFFFFFFFFFFFFFFFFFFFFFFFFFFFFFFFFFF AND CALLER PUSH20 0xFFFFFFFFFFFFFFFFFFFFFFFFFFFFFFFFFFFFFFFF AND EQ PUSH2 0x5EE JUMPI PUSH1 0x0 DUP1 REVERT JUMPDEST PUSH1 0x0 PUSH20 0xFFFFFFFFFFFFFFFFFFFFFFFFFFFFFFFFFFFFFFFF AND DUP3 PUSH20 0xFFFFFFFFFFFFFFFFFFFFFFFFFFFFFFFFFFFFFFFF AND EQ ISZERO PUSH2 0x628 JUMPI PUSH1 0x0 DUP1 REVERT JUMPDEST ADDRESS PUSH20 0xFFFFFFFFFFFFFFFFFFFFFFFFFFFFFFFFFFFFFFFF AND DUP3 PUSH20 0xFFFFFFFFFFFFFFFFFFFFFFFFFFFFFFFFFFFFFFFF AND EQ ISZERO PUSH2 0x661 JUMPI PUSH1 0x0 DUP1 REVERT JUMPDEST PUSH2 0x66B DUP4 DUP3 PUSH2 0xECE JUMP JUMPDEST PUSH2 0x674 JUMPI PUSH1 0x0 DUP1 REVERT JUMPDEST PUSH2 0x67F DUP4 DUP4 DUP4 PUSH2 0x10F2 JUMP JUMPDEST POP POP POP JUMP JUMPDEST POP POP POP JUMP JUMPDEST PUSH1 0x0 DUP3 PUSH20 0xFFFFFFFFFFFFFFFFFFFFFFFFFFFFFFFFFFFFFFFF AND PUSH1 0x2 PUSH1 0x0 DUP5 DUP2 MSTORE PUSH1 0x20 ADD SWAP1 DUP2 MSTORE PUSH1 0x20 ADD PUSH1 0x0 KECCAK256 PUSH1 0x0 SWAP1 SLOAD SWAP1 PUSH2 0x100 EXP SWAP1 DIV PUSH20 0xFFFFFFFFFFFFFFFFFFFFFFFFFFFFFFFFFFFFFFFF AND PUSH20 0xFFFFFFFFFFFFFFFFFFFFFFFFFFFFFFFFFFFFFFFF AND EQ PUSH2 0x6F6 JUMPI PUSH1 0x0 DUP1 REVERT JUMPDEST PUSH1 0x0 PUSH1 0x1 DUP4 DUP2 SLOAD DUP2 LT PUSH2 0x70C JUMPI PUSH2 0x70B PUSH2 0x1A90 JUMP JUMPDEST JUMPDEST SWAP1 PUSH1 0x0 MSTORE PUSH1 0x20 PUSH1 0x0 KECCAK256 SWAP1 PUSH1 0x5 MUL ADD PUSH1 0x40 MLOAD DUP1 PUSH1 0xA0 ADD PUSH1 0x40 MSTORE SWAP1 DUP2 PUSH1 0x0 DUP3 ADD PUSH1 0x0 SWAP1 SLOAD SWAP1 PUSH2 0x100 EXP SWAP1 DIV PUSH1 0xFF AND PUSH1 0x1 DUP2 GT ISZERO PUSH2 0x74A JUMPI PUSH2 0x749 PUSH2 0x1A32 JUMP JUMPDEST JUMPDEST PUSH1 0x1 DUP2 GT ISZERO PUSH2 0x75C JUMPI PUSH2 0x75B PUSH2 0x1A32 JUMP JUMPDEST JUMPDEST DUP2 MSTORE PUSH1 0x20 ADD PUSH1 0x1 DUP3 ADD SLOAD DUP2 MSTORE PUSH1 0x20 ADD PUSH1 0x2 DUP3 ADD SLOAD DUP2 MSTORE PUSH1 0x20 ADD PUSH1 0x3 DUP3 ADD PUSH1 0x0 SWAP1 SLOAD SWAP1 PUSH2 0x100 EXP SWAP1 DIV PUSH1 0xFF AND PUSH1 0x2 DUP2 GT ISZERO PUSH2 0x799 JUMPI PUSH2 0x798 PUSH2 0x1A32 JUMP JUMPDEST JUMPDEST PUSH1 0x2 DUP2 GT ISZERO PUSH2 0x7AB JUMPI PUSH2 0x7AA PUSH2 0x1A32 JUMP JUMPDEST JUMPDEST DUP2 MSTORE PUSH1 0x20 ADD PUSH1 0x4 DUP3 ADD DUP1 SLOAD PUSH2 0x7BF SWAP1 PUSH2 0x1957 JUMP JUMPDEST DUP1 PUSH1 0x1F ADD PUSH1 0x20 DUP1 SWAP2 DIV MUL PUSH1 0x20 ADD PUSH1 0x40 MLOAD SWAP1 DUP2 ADD PUSH1 0x40 MSTORE DUP1 SWAP3 SWAP2 SWAP1 DUP2 DUP2 MSTORE PUSH1 0x20 ADD DUP3 DUP1 SLOAD PUSH2 0x7EB SWAP1 PUSH2 0x1957 JUMP JUMPDEST DUP1 ISZERO PUSH2 0x838 JUMPI DUP1 PUSH1 0x1F LT PUSH2 0x80D JUMPI PUSH2 0x100 DUP1 DUP4 SLOAD DIV MUL DUP4 MSTORE SWAP2 PUSH1 0x20 ADD SWAP2 PUSH2 0x838 JUMP JUMPDEST DUP3 ADD SWAP2 SWAP1 PUSH1 0x0 MSTORE PUSH1 0x20 PUSH1 0x0 KECCAK256 SWAP1 JUMPDEST DUP2 SLOAD DUP2 MSTORE SWAP1 PUSH1 0x1 ADD SWAP1 PUSH1 0x20 ADD DUP1 DUP4 GT PUSH2 0x81B JUMPI DUP3 SWAP1 SUB PUSH1 0x1F AND DUP3 ADD SWAP2 JUMPDEST POP POP POP POP POP DUP2 MSTORE POP POP SWAP1 POP TIMESTAMP DUP2 PUSH1 0x40 ADD MLOAD LT DUP1 ISZERO PUSH2 0x87E JUMPI POP PUSH1 0x0 PUSH1 0x2 DUP2 GT ISZERO PUSH2 0x865 JUMPI PUSH2 0x864 PUSH2 0x1A32 JUMP JUMPDEST JUMPDEST DUP2 PUSH1 0x60 ADD MLOAD PUSH1 0x2 DUP2 GT ISZERO PUSH2 0x87C JUMPI PUSH2 0x87B PUSH2 0x1A32 JUMP JUMPDEST JUMPDEST EQ JUMPDEST ISZERO PUSH2 0x89E JUMPI PUSH1 0x2 DUP1 DUP2 GT ISZERO PUSH2 0x896 JUMPI PUSH2 0x895 PUSH2 0x1A32 JUMP JUMPDEST JUMPDEST SWAP2 POP POP PUSH2 0x8B9 JUMP JUMPDEST DUP1 PUSH1 0x60 ADD MLOAD PUSH1 0x2 DUP2 GT ISZERO PUSH2 0x8B5 JUMPI PUSH2 0x8B4 PUSH2 0x1A32 JUMP JUMPDEST JUMPDEST SWAP2 POP POP JUMPDEST SWAP3 SWAP2 POP POP JUMP JUMPDEST PUSH1 0x0 DUP1 SLOAD SWAP1 PUSH2 0x100 EXP SWAP1 DIV PUSH20 0xFFFFFFFFFFFFFFFFFFFFFFFFFFFFFFFFFFFFFFFF AND PUSH20 0xFFFFFFFFFFFFFFFFFFFFFFFFFFFFFFFFFFFFFFFF AND CALLER PUSH20 0xFFFFFFFFFFFFFFFFFFFFFFFFFFFFFFFFFFFFFFFF AND EQ PUSH2 0x917 JUMPI PUSH1 0x0 DUP1 REVERT JUMPDEST PUSH1 0x0 PUSH1 0x1 DUP4 DUP2 SLOAD DUP2 LT PUSH2 0x92D JUMPI PUSH2 0x92C PUSH2 0x1A90 JUMP JUMPDEST JUMPDEST SWAP1 PUSH1 0x0 MSTORE PUSH1 0x20 PUSH1 0x0 KECCAK256 SWAP1 PUSH1 0x5 MUL ADD SWAP1 POP PUSH1 0x0 DUP2 PUSH1 0x1 ADD SLOAD EQ ISZERO PUSH2 0x94F JUMPI PUSH1 0x0 DUP1 REVERT JUMPDEST PUSH1 0x1 PUSH1 0x2 DUP2 GT ISZERO PUSH2 0x963 JUMPI PUSH2 0x962 PUSH2 0x1A32 JUMP JUMPDEST JUMPDEST DUP2 PUSH1 0x3 ADD PUSH1 0x0 SWAP1 SLOAD SWAP1 PUSH2 0x100 EXP SWAP1 DIV PUSH1 0xFF AND PUSH1 0x2 DUP2 GT ISZERO PUSH2 0x987 JUMPI PUSH2 0x986 PUSH2 0x1A32 JUMP JUMPDEST JUMPDEST EQ PUSH2 0x991 JUMPI PUSH1 0x0 DUP1 REVERT JUMPDEST PUSH1 0x0 DUP2 PUSH1 0x3 ADD PUSH1 0x0 PUSH2 0x100 EXP DUP2 SLOAD DUP2 PUSH1 0xFF MUL NOT AND SWAP1 DUP4 PUSH1 0x2 DUP2 GT ISZERO PUSH2 0x9B9 JUMPI PUSH2 0x9B8 PUSH2 0x1A32 JUMP JUMPDEST JUMPDEST MUL OR SWAP1 SSTORE POP PUSH3 0x278D00 TIMESTAMP PUSH2 0x9CD SWAP2 SWAP1 PUSH2 0x184C JUMP JUMPDEST DUP2 PUSH1 0x2 ADD DUP2 SWAP1 SSTORE POP DUP2 DUP2 PUSH1 0x4 ADD SWAP1 DUP1 MLOAD SWAP1 PUSH1 0x20 ADD SWAP1 PUSH2 0x9ED SWAP3 SWAP2 SWAP1 PUSH2 0x1299 JUMP JUMPDEST POP POP POP POP JUMP JUMPDEST PUSH1 0x0 PUSH1 0x2 PUSH1 0x0 DUP4 DUP2 MSTORE PUSH1 0x20 ADD SWAP1 DUP2 MSTORE PUSH1 0x20 ADD PUSH1 0x0 KECCAK256 PUSH1 0x0 SWAP1 SLOAD SWAP1 PUSH2 0x100 EXP SWAP1 DIV PUSH20 0xFFFFFFFFFFFFFFFFFFFFFFFFFFFFFFFFFFFFFFFF AND SWAP1 POP PUSH1 0x0 PUSH20 0xFFFFFFFFFFFFFFFFFFFFFFFFFFFFFFFFFFFFFFFF AND DUP2 PUSH20 0xFFFFFFFFFFFFFFFFFFFFFFFFFFFFFFFFFFFFFFFF AND EQ ISZERO PUSH2 0xA65 JUMPI PUSH1 0x0 DUP1 REVERT JUMPDEST SWAP2 SWAP1 POP JUMP JUMPDEST PUSH1 0x0 PUSH1 0x3 PUSH1 0x0 DUP4 PUSH20 0xFFFFFFFFFFFFFFFFFFFFFFFFFFFFFFFFFFFFFFFF AND PUSH20 0xFFFFFFFFFFFFFFFFFFFFFFFFFFFFFFFFFFFFFFFF AND DUP2 MSTORE PUSH1 0x20 ADD SWAP1 DUP2 MSTORE PUSH1 0x20 ADD PUSH1 0x0 KECCAK256 SLOAD SWAP1 POP SWAP2 SWAP1 POP JUMP JUMPDEST PUSH1 0x0 DUP1 SLOAD SWAP1 PUSH2 0x100 EXP SWAP1 DIV PUSH20 0xFFFFFFFFFFFFFFFFFFFFFFFFFFFFFFFFFFFFFFFF AND PUSH20 0xFFFFFFFFFFFFFFFFFFFFFFFFFFFFFFFFFFFFFFFF AND CALLER PUSH20 0xFFFFFFFFFFFFFFFFFFFFFFFFFFFFFFFFFFFFFFFF AND EQ PUSH2 0xB0B JUMPI PUSH1 0x0 DUP1 REVERT JUMPDEST DUP2 PUSH20 0xFFFFFFFFFFFFFFFFFFFFFFFFFFFFFFFFFFFFFFFF AND PUSH1 0x2 PUSH1 0x0 DUP4 DUP2 MSTORE PUSH1 0x20 ADD SWAP1 DUP2 MSTORE PUSH1 0x20 ADD PUSH1 0x0 KECCAK256 PUSH1 0x0 SWAP1 SLOAD SWAP1 PUSH2 0x100 EXP SWAP1 DIV PUSH20 0xFFFFFFFFFFFFFFFFFFFFFFFFFFFFFFFFFFFFFFFF AND PUSH20 0xFFFFFFFFFFFFFFFFFFFFFFFFFFFFFFFFFFFFFFFF AND EQ PUSH2 0xB76 JUMPI PUSH1 0x0 DUP1 REVERT JUMPDEST PUSH1 0x3 PUSH1 0x0 DUP4 PUSH20 0xFFFFFFFFFFFFFFFFFFFFFFFFFFFFFFFFFFFFFFFF AND PUSH20 0xFFFFFFFFFFFFFFFFFFFFFFFFFFFFFFFFFFFFFFFF AND DUP2 MSTORE PUSH1 0x20 ADD SWAP1 DUP2 MSTORE PUSH1 0x20 ADD PUSH1 0x0 KECCAK256 PUSH1 0x0 DUP2 SLOAD DUP1 SWAP3 SWAP2 SWAP1 PUSH2 0xBC6 SWAP1 PUSH2 0x192D JUMP JUMPDEST SWAP2 SWAP1 POP SSTORE POP PUSH1 0x2 PUSH1 0x0 DUP3 DUP2 MSTORE PUSH1 0x20 ADD SWAP1 DUP2 MSTORE PUSH1 0x20 ADD PUSH1 0x0 KECCAK256 PUSH1 0x0 PUSH2 0x100 EXP DUP2 SLOAD SWAP1 PUSH20 0xFFFFFFFFFFFFFFFFFFFFFFFFFFFFFFFFFFFFFFFF MUL NOT AND SWAP1 SSTORE PUSH1 0x1 DUP2 DUP2 SLOAD DUP2 LT PUSH2 0xC15 JUMPI PUSH2 0xC14 PUSH2 0x1A90 JUMP JUMPDEST JUMPDEST SWAP1 PUSH1 0x0 MSTORE PUSH1 0x20 PUSH1 0x0 KECCAK256 SWAP1 PUSH1 0x5 MUL ADD PUSH1 0x0 DUP1 DUP3 ADD PUSH1 0x0 PUSH2 0x100 EXP DUP2 SLOAD SWAP1 PUSH1 0xFF MUL NOT AND SWAP1 SSTORE PUSH1 0x1 DUP3 ADD PUSH1 0x0 SWAP1 SSTORE PUSH1 0x2 DUP3 ADD PUSH1 0x0 SWAP1 SSTORE PUSH1 0x3 DUP3 ADD PUSH1 0x0 PUSH2 0x100 EXP DUP2 SLOAD SWAP1 PUSH1 0xFF MUL NOT AND SWAP1 SSTORE PUSH1 0x4 DUP3 ADD PUSH1 0x0 PUSH2 0xC6C SWAP2 SWAP1 PUSH2 0x131F JUMP JUMPDEST POP POP PUSH1 0x4 PUSH1 0x0 DUP3 DUP2 MSTORE PUSH1 0x20 ADD SWAP1 DUP2 MSTORE PUSH1 0x20 ADD PUSH1 0x0 KECCAK256 PUSH1 0x0 PUSH2 0x100 EXP DUP2 SLOAD SWAP1 PUSH20 0xFFFFFFFFFFFFFFFFFFFFFFFFFFFFFFFFFFFFFFFF MUL NOT AND SWAP1 SSTORE POP POP JUMP JUMPDEST POP POP JUMP JUMPDEST PUSH1 0x4 PUSH1 0x20 MSTORE DUP1 PUSH1 0x0 MSTORE PUSH1 0x40 PUSH1 0x0 KECCAK256 PUSH1 0x0 SWAP2 POP SLOAD SWAP1 PUSH2 0x100 EXP SWAP1 DIV PUSH20 0xFFFFFFFFFFFFFFFFFFFFFFFFFFFFFFFFFFFFFFFF AND DUP2 JUMP JUMPDEST POP POP POP POP JUMP JUMPDEST PUSH1 0x0 DUP1 SLOAD SWAP1 PUSH2 0x100 EXP SWAP1 DIV PUSH20 0xFFFFFFFFFFFFFFFFFFFFFFFFFFFFFFFFFFFFFFFF AND PUSH20 0xFFFFFFFFFFFFFFFFFFFFFFFFFFFFFFFFFFFFFFFF AND CALLER PUSH20 0xFFFFFFFFFFFFFFFFFFFFFFFFFFFFFFFFFFFFFFFF AND EQ PUSH2 0xD3D JUMPI PUSH1 0x0 DUP1 REVERT JUMPDEST DUP2 PUSH20 0xFFFFFFFFFFFFFFFFFFFFFFFFFFFFFFFFFFFFFFFF AND PUSH1 0x2 PUSH1 0x0 DUP4 DUP2 MSTORE PUSH1 0x20 ADD SWAP1 DUP2 MSTORE PUSH1 0x20 ADD PUSH1 0x0 KECCAK256 PUSH1 0x0 SWAP1 SLOAD SWAP1 PUSH2 0x100 EXP SWAP1 DIV PUSH20 0xFFFFFFFFFFFFFFFFFFFFFFFFFFFFFFFFFFFFFFFF AND PUSH20 0xFFFFFFFFFFFFFFFFFFFFFFFFFFFFFFFFFFFFFFFF AND EQ PUSH2 0xDA8 JUMPI PUSH1 0x0 DUP1 REVERT JUMPDEST PUSH1 0x0 PUSH1 0x1 DUP3 DUP2 SLOAD DUP2 LT PUSH2 0xDBE JUMPI PUSH2 0xDBD PUSH2 0x1A90 JUMP JUMPDEST JUMPDEST SWAP1 PUSH1 0x0 MSTORE PUSH1 0x20 PUSH1 0x0 KECCAK256 SWAP1 PUSH1 0x5 MUL ADD SWAP1 POP TIMESTAMP DUP2 PUSH1 0x2 ADD SLOAD LT DUP1 ISZERO PUSH2 0xE16 JUMPI POP PUSH1 0x0 PUSH1 0x2 DUP2 GT ISZERO PUSH2 0xDF0 JUMPI PUSH2 0xDEF PUSH2 0x1A32 JUMP JUMPDEST JUMPDEST DUP2 PUSH1 0x3 ADD PUSH1 0x0 SWAP1 SLOAD SWAP1 PUSH2 0x100 EXP SWAP1 DIV PUSH1 0xFF AND PUSH1 0x2 DUP2 GT ISZERO PUSH2 0xE14 JUMPI PUSH2 0xE13 PUSH2 0x1A32 JUMP JUMPDEST JUMPDEST EQ JUMPDEST ISZERO PUSH2 0xE26 JUMPI PUSH2 0xE25 DUP4 DUP4 PUSH2 0xAB3 JUMP JUMPDEST JUMPDEST POP POP POP JUMP JUMPDEST PUSH1 0x0 SWAP3 SWAP2 POP POP JUMP JUMPDEST PUSH1 0x0 DUP1 SLOAD SWAP1 PUSH2 0x100 EXP SWAP1 DIV PUSH20 0xFFFFFFFFFFFFFFFFFFFFFFFFFFFFFFFFFFFFFFFF AND PUSH20 0xFFFFFFFFFFFFFFFFFFFFFFFFFFFFFFFFFFFFFFFF AND CALLER PUSH20 0xFFFFFFFFFFFFFFFFFFFFFFFFFFFFFFFFFFFFFFFF AND EQ PUSH2 0xE8B JUMPI PUSH1 0x0 DUP1 REVERT JUMPDEST DUP1 PUSH1 0x0 DUP1 PUSH2 0x100 EXP DUP2 SLOAD DUP2 PUSH20 0xFFFFFFFFFFFFFFFFFFFFFFFFFFFFFFFFFFFFFFFF MUL NOT AND SWAP1 DUP4 PUSH20 0xFFFFFFFFFFFFFFFFFFFFFFFFFFFFFFFFFFFFFFFF AND MUL OR SWAP1 SSTORE POP POP JUMP JUMPDEST PUSH1 0x0 DUP3 PUSH20 0xFFFFFFFFFFFFFFFFFFFFFFFFFFFFFFFFFFFFFFFF AND PUSH1 0x2 PUSH1 0x0 DUP5 DUP2 MSTORE PUSH1 0x20 ADD SWAP1 DUP2 MSTORE PUSH1 0x20 ADD PUSH1 0x0 KECCAK256 PUSH1 0x0 SWAP1 SLOAD SWAP1 PUSH2 0x100 EXP SWAP1 DIV PUSH20 0xFFFFFFFFFFFFFFFFFFFFFFFFFFFFFFFFFFFFFFFF AND PUSH20 0xFFFFFFFFFFFFFFFFFFFFFFFFFFFFFFFFFFFFFFFF AND EQ SWAP1 POP SWAP3 SWAP2 POP POP JUMP JUMPDEST PUSH1 0x0 DUP1 PUSH1 0x0 SWAP1 SLOAD SWAP1 PUSH2 0x100 EXP SWAP1 DIV PUSH20 0xFFFFFFFFFFFFFFFFFFFFFFFFFFFFFFFFFFFFFFFF AND PUSH20 0xFFFFFFFFFFFFFFFFFFFFFFFFFFFFFFFFFFFFFFFF AND CALLER PUSH20 0xFFFFFFFFFFFFFFFFFFFFFFFFFFFFFFFFFFFFFFFF AND EQ PUSH2 0xF95 JUMPI PUSH1 0x0 DUP1 REVERT JUMPDEST PUSH1 0x0 PUSH1 0x40 MLOAD DUP1 PUSH1 0xA0 ADD PUSH1 0x40 MSTORE DUP1 DUP5 PUSH1 0x1 DUP2 GT ISZERO PUSH2 0xFB5 JUMPI PUSH2 0xFB4 PUSH2 0x1A32 JUMP JUMPDEST JUMPDEST PUSH1 0x1 DUP2 GT ISZERO PUSH2 0xFC7 JUMPI PUSH2 0xFC6 PUSH2 0x1A32 JUMP JUMPDEST JUMPDEST DUP2 MSTORE PUSH1 0x20 ADD TIMESTAMP DUP2 MSTORE PUSH1 0x20 ADD PUSH1 0x0 DUP2 MSTORE PUSH1 0x20 ADD PUSH1 0x1 PUSH1 0x2 DUP2 GT ISZERO PUSH2 0xFED JUMPI PUSH2 0xFEC PUSH2 0x1A32 JUMP JUMPDEST JUMPDEST DUP2 MSTORE PUSH1 0x20 ADD PUSH1 0x40 MLOAD DUP1 PUSH1 0x20 ADD PUSH1 0x40 MSTORE DUP1 PUSH1 0x0 DUP2 MSTORE POP DUP2 MSTORE POP SWAP1 POP PUSH1 0x1 DUP2 SWAP1 DUP1 PUSH1 0x1 DUP2 SLOAD ADD DUP1 DUP3 SSTORE DUP1 SWAP2 POP POP PUSH1 0x1 SWAP1 SUB SWAP1 PUSH1 0x0 MSTORE PUSH1 0x20 PUSH1 0x0 KECCAK256 SWAP1 PUSH1 0x5 MUL ADD PUSH1 0x0 SWAP1 SWAP2 SWAP1 SWAP2 SWAP1 SWAP2 POP PUSH1 0x0 DUP3 ADD MLOAD DUP2 PUSH1 0x0 ADD PUSH1 0x0 PUSH2 0x100 EXP DUP2 SLOAD DUP2 PUSH1 0xFF MUL NOT AND SWAP1 DUP4 PUSH1 0x1 DUP2 GT ISZERO PUSH2 0x105E JUMPI PUSH2 0x105D PUSH2 0x1A32 JUMP JUMPDEST JUMPDEST MUL OR SWAP1 SSTORE POP PUSH1 0x20 DUP3 ADD MLOAD DUP2 PUSH1 0x1 ADD SSTORE PUSH1 0x40 DUP3 ADD MLOAD DUP2 PUSH1 0x2 ADD SSTORE PUSH1 0x60 DUP3 ADD MLOAD DUP2 PUSH1 0x3 ADD PUSH1 0x0 PUSH2 0x100 EXP DUP2 SLOAD DUP2 PUSH1 0xFF MUL NOT AND SWAP1 DUP4 PUSH1 0x2 DUP2 GT ISZERO PUSH2 0x10A2 JUMPI PUSH2 0x10A1 PUSH2 0x1A32 JUMP JUMPDEST JUMPDEST MUL OR SWAP1 SSTORE POP PUSH1 0x80 DUP3 ADD MLOAD DUP2 PUSH1 0x4 ADD SWAP1 DUP1 MLOAD SWAP1 PUSH1 0x20 ADD SWAP1 PUSH2 0x10C3 SWAP3 SWAP2 SWAP1 PUSH2 0x1299 JUMP JUMPDEST POP POP POP PUSH1 0x0 PUSH1 0x1 DUP1 DUP1 SLOAD SWAP1 POP PUSH2 0x10D9 SWAP2 SWAP1 PUSH2 0x18A2 JUMP JUMPDEST SWAP1 POP PUSH2 0x10E7 PUSH1 0x0 DUP7 DUP4 PUSH2 0x10F2 JUMP JUMPDEST DUP1 SWAP3 POP POP POP SWAP3 SWAP2 POP POP JUMP JUMPDEST PUSH1 0x3 PUSH1 0x0 DUP4 PUSH20 0xFFFFFFFFFFFFFFFFFFFFFFFFFFFFFFFFFFFFFFFF AND PUSH20 0xFFFFFFFFFFFFFFFFFFFFFFFFFFFFFFFFFFFFFFFF AND DUP2 MSTORE PUSH1 0x20 ADD SWAP1 DUP2 MSTORE PUSH1 0x20 ADD PUSH1 0x0 KECCAK256 PUSH1 0x0 DUP2 SLOAD DUP1 SWAP3 SWAP2 SWAP1 PUSH2 0x1142 SWAP1 PUSH2 0x19BA JUMP JUMPDEST SWAP2 SWAP1 POP SSTORE POP DUP2 PUSH1 0x2 PUSH1 0x0 DUP4 DUP2 MSTORE PUSH1 0x20 ADD SWAP1 DUP2 MSTORE PUSH1 0x20 ADD PUSH1 0x0 KECCAK256 PUSH1 0x0 PUSH2 0x100 EXP DUP2 SLOAD DUP2 PUSH20 0xFFFFFFFFFFFFFFFFFFFFFFFFFFFFFFFFFFFFFFFF MUL NOT AND SWAP1 DUP4 PUSH20 0xFFFFFFFFFFFFFFFFFFFFFFFFFFFFFFFFFFFFFFFF AND MUL OR SWAP1 SSTORE POP PUSH1 0x0 PUSH20 0xFFFFFFFFFFFFFFFFFFFFFFFFFFFFFFFFFFFFFFFF AND DUP4 PUSH20 0xFFFFFFFFFFFFFFFFFFFFFFFFFFFFFFFFFFFFFFFF AND EQ PUSH2 0x1259 JUMPI PUSH1 0x3 PUSH1 0x0 DUP5 PUSH20 0xFFFFFFFFFFFFFFFFFFFFFFFFFFFFFFFFFFFFFFFF AND PUSH20 0xFFFFFFFFFFFFFFFFFFFFFFFFFFFFFFFFFFFFFFFF AND DUP2 MSTORE PUSH1 0x20 ADD SWAP1 DUP2 MSTORE PUSH1 0x20 ADD PUSH1 0x0 KECCAK256 PUSH1 0x0 DUP2 SLOAD DUP1 SWAP3 SWAP2 SWAP1 PUSH2 0x121D SWAP1 PUSH2 0x192D JUMP JUMPDEST SWAP2 SWAP1 POP SSTORE POP PUSH1 0x4 PUSH1 0x0 DUP3 DUP2 MSTORE PUSH1 0x20 ADD SWAP1 DUP2 MSTORE PUSH1 0x20 ADD PUSH1 0x0 KECCAK256 PUSH1 0x0 PUSH2 0x100 EXP DUP2 SLOAD SWAP1 PUSH20 0xFFFFFFFFFFFFFFFFFFFFFFFFFFFFFFFFFFFFFFFF MUL NOT AND SWAP1 SSTORE JUMPDEST PUSH32 0xDDF252AD1BE2C89B69C2B068FC378DAA952BA7F163C4A11628F55A4DF523B3EF DUP4 DUP4 DUP4 PUSH1 0x40 MLOAD PUSH2 0x128C SWAP4 SWAP3 SWAP2 SWAP1 PUSH2 0x172F JUMP JUMPDEST PUSH1 0x40 MLOAD DUP1 SWAP2 SUB SWAP1 LOG1 POP POP POP JUMP JUMPDEST DUP3 DUP1 SLOAD PUSH2 0x12A5 SWAP1 PUSH2 0x1957 JUMP JUMPDEST SWAP1 PUSH1 0x0 MSTORE PUSH1 0x20 PUSH1 0x0 KECCAK256 SWAP1 PUSH1 0x1F ADD PUSH1 0x20 SWAP1 DIV DUP2 ADD SWAP3 DUP3 PUSH2 0x12C7 JUMPI PUSH1 0x0 DUP6 SSTORE PUSH2 0x130E JUMP JUMPDEST DUP3 PUSH1 0x1F LT PUSH2 0x12E0 JUMPI DUP1 MLOAD PUSH1 0xFF NOT AND DUP4 DUP1 ADD OR DUP6 SSTORE PUSH2 0x130E JUMP JUMPDEST DUP3 DUP1 ADD PUSH1 0x1 ADD DUP6 SSTORE DUP3 ISZERO PUSH2 0x130E JUMPI SWAP2 DUP3 ADD JUMPDEST DUP3 DUP2 GT ISZERO PUSH2 0x130D JUMPI DUP3 MLOAD DUP3 SSTORE SWAP2 PUSH1 0x20 ADD SWAP2 SWAP1 PUSH1 0x1 ADD SWAP1 PUSH2 0x12F2 JUMP JUMPDEST JUMPDEST POP SWAP1 POP PUSH2 0x131B SWAP2 SWAP1 PUSH2 0x135F JUMP JUMPDEST POP SWAP1 JUMP JUMPDEST POP DUP1 SLOAD PUSH2 0x132B SWAP1 PUSH2 0x1957 JUMP JUMPDEST PUSH1 0x0 DUP3 SSTORE DUP1 PUSH1 0x1F LT PUSH2 0x133D JUMPI POP PUSH2 0x135C JUMP JUMPDEST PUSH1 0x1F ADD PUSH1 0x20 SWAP1 DIV SWAP1 PUSH1 0x0 MSTORE PUSH1 0x20 PUSH1 0x0 KECCAK256 SWAP1 DUP2 ADD SWAP1 PUSH2 0x135B SWAP2 SWAP1 PUSH2 0x135F JUMP JUMPDEST JUMPDEST POP JUMP JUMPDEST JUMPDEST DUP1 DUP3 GT ISZERO PUSH2 0x1378 JUMPI PUSH1 0x0 DUP2 PUSH1 0x0 SWAP1 SSTORE POP PUSH1 0x1 ADD PUSH2 0x1360 JUMP JUMPDEST POP SWAP1 JUMP JUMPDEST PUSH1 0x0 PUSH2 0x138F PUSH2 0x138A DUP5 PUSH2 0x17EA JUMP JUMPDEST PUSH2 0x17C5 JUMP JUMPDEST SWAP1 POP DUP3 DUP2 MSTORE PUSH1 0x20 DUP2 ADD DUP5 DUP5 DUP5 ADD GT ISZERO PUSH2 0x13AB JUMPI PUSH2 0x13AA PUSH2 0x1AF3 JUMP JUMPDEST JUMPDEST PUSH2 0x13B6 DUP5 DUP3 DUP6 PUSH2 0x191E JUMP JUMPDEST POP SWAP4 SWAP3 POP POP POP JUMP JUMPDEST PUSH1 0x0 PUSH2 0x13D1 PUSH2 0x13CC DUP5 PUSH2 0x181B JUMP JUMPDEST PUSH2 0x17C5 JUMP JUMPDEST SWAP1 POP DUP3 DUP2 MSTORE PUSH1 0x20 DUP2 ADD DUP5 DUP5 DUP5 ADD GT ISZERO PUSH2 0x13ED JUMPI PUSH2 0x13EC PUSH2 0x1AF3 JUMP JUMPDEST JUMPDEST PUSH2 0x13F8 DUP5 DUP3 DUP6 PUSH2 0x191E JUMP JUMPDEST POP SWAP4 SWAP3 POP POP POP JUMP JUMPDEST PUSH1 0x0 DUP2 CALLDATALOAD SWAP1 POP PUSH2 0x140F DUP2 PUSH2 0x1B13 JUMP JUMPDEST SWAP3 SWAP2 POP POP JUMP JUMPDEST PUSH1 0x0 DUP2 CALLDATALOAD SWAP1 POP PUSH2 0x1424 DUP2 PUSH2 0x1B2A JUMP JUMPDEST SWAP3 SWAP2 POP POP JUMP JUMPDEST PUSH1 0x0 DUP3 PUSH1 0x1F DUP4 ADD SLT PUSH2 0x143F JUMPI PUSH2 0x143E PUSH2 0x1AEE JUMP JUMPDEST JUMPDEST DUP2 CALLDATALOAD PUSH2 0x144F DUP5 DUP3 PUSH1 0x20 DUP7 ADD PUSH2 0x137C JUMP JUMPDEST SWAP2 POP POP SWAP3 SWAP2 POP POP JUMP JUMPDEST PUSH1 0x0 DUP3 PUSH1 0x1F DUP4 ADD SLT PUSH2 0x146D JUMPI PUSH2 0x146C PUSH2 0x1AEE JUMP JUMPDEST JUMPDEST DUP2 CALLDATALOAD PUSH2 0x147D DUP5 DUP3 PUSH1 0x20 DUP7 ADD PUSH2 0x13BE JUMP JUMPDEST SWAP2 POP POP SWAP3 SWAP2 POP POP JUMP JUMPDEST PUSH1 0x0 DUP2 CALLDATALOAD SWAP1 POP PUSH2 0x1495 DUP2 PUSH2 0x1B41 JUMP JUMPDEST SWAP3 SWAP2 POP POP JUMP JUMPDEST PUSH1 0x0 PUSH1 0x20 DUP3 DUP5 SUB SLT ISZERO PUSH2 0x14B1 JUMPI PUSH2 0x14B0 PUSH2 0x1AFD JUMP JUMPDEST JUMPDEST PUSH1 0x0 PUSH2 0x14BF DUP5 DUP3 DUP6 ADD PUSH2 0x1400 JUMP JUMPDEST SWAP2 POP POP SWAP3 SWAP2 POP POP JUMP JUMPDEST PUSH1 0x0 DUP1 PUSH1 0x40 DUP4 DUP6 SUB SLT ISZERO PUSH2 0x14DF JUMPI PUSH2 0x14DE PUSH2 0x1AFD JUMP JUMPDEST JUMPDEST PUSH1 0x0 PUSH2 0x14ED DUP6 DUP3 DUP7 ADD PUSH2 0x1400 JUMP JUMPDEST SWAP3 POP POP PUSH1 0x20 PUSH2 0x14FE DUP6 DUP3 DUP7 ADD PUSH2 0x1400 JUMP JUMPDEST SWAP2 POP POP SWAP3 POP SWAP3 SWAP1 POP JUMP JUMPDEST PUSH1 0x0 DUP1 PUSH1 0x0 PUSH1 0x60 DUP5 DUP7 SUB SLT ISZERO PUSH2 0x1521 JUMPI PUSH2 0x1520 PUSH2 0x1AFD JUMP JUMPDEST JUMPDEST PUSH1 0x0 PUSH2 0x152F DUP7 DUP3 DUP8 ADD PUSH2 0x1400 JUMP JUMPDEST SWAP4 POP POP PUSH1 0x20 PUSH2 0x1540 DUP7 DUP3 DUP8 ADD PUSH2 0x1400 JUMP JUMPDEST SWAP3 POP POP PUSH1 0x40 PUSH2 0x1551 DUP7 DUP3 DUP8 ADD PUSH2 0x1486 JUMP JUMPDEST SWAP2 POP POP SWAP3 POP SWAP3 POP SWAP3 JUMP JUMPDEST PUSH1 0x0 DUP1 PUSH1 0x0 DUP1 PUSH1 0x80 DUP6 DUP8 SUB SLT ISZERO PUSH2 0x1575 JUMPI PUSH2 0x1574 PUSH2 0x1AFD JUMP JUMPDEST JUMPDEST PUSH1 0x0 PUSH2 0x1583 DUP8 DUP3 DUP9 ADD PUSH2 0x1400 JUMP JUMPDEST SWAP5 POP POP PUSH1 0x20 PUSH2 0x1594 DUP8 DUP3 DUP9 ADD PUSH2 0x1400 JUMP JUMPDEST SWAP4 POP POP PUSH1 0x40 PUSH2 0x15A5 DUP8 DUP3 DUP9 ADD PUSH2 0x1486 JUMP JUMPDEST SWAP3 POP POP PUSH1 0x60 DUP6 ADD CALLDATALOAD PUSH8 0xFFFFFFFFFFFFFFFF DUP2 GT ISZERO PUSH2 0x15C6 JUMPI PUSH2 0x15C5 PUSH2 0x1AF8 JUMP JUMPDEST JUMPDEST PUSH2 0x15D2 DUP8 DUP3 DUP9 ADD PUSH2 0x142A JUMP JUMPDEST SWAP2 POP POP SWAP3 SWAP6 SWAP2 SWAP5 POP SWAP3 POP JUMP JUMPDEST PUSH1 0x0 DUP1 PUSH1 0x40 DUP4 DUP6 SUB SLT ISZERO PUSH2 0x15F5 JUMPI PUSH2 0x15F4 PUSH2 0x1AFD JUMP JUMPDEST JUMPDEST PUSH1 0x0 PUSH2 0x1603 DUP6 DUP3 DUP7 ADD PUSH2 0x1400 JUMP JUMPDEST SWAP3 POP POP PUSH1 0x20 PUSH2 0x1614 DUP6 DUP3 DUP7 ADD PUSH2 0x1415 JUMP JUMPDEST SWAP2 POP POP SWAP3 POP SWAP3 SWAP1 POP JUMP JUMPDEST PUSH1 0x0 DUP1 PUSH1 0x40 DUP4 DUP6 SUB SLT ISZERO PUSH2 0x1635 JUMPI PUSH2 0x1634 PUSH2 0x1AFD JUMP JUMPDEST JUMPDEST PUSH1 0x0 PUSH2 0x1643 DUP6 DUP3 DUP7 ADD PUSH2 0x1400 JUMP JUMPDEST SWAP3 POP POP PUSH1 0x20 PUSH2 0x1654 DUP6 DUP3 DUP7 ADD PUSH2 0x1486 JUMP JUMPDEST SWAP2 POP POP SWAP3 POP SWAP3 SWAP1 POP JUMP JUMPDEST PUSH1 0x0 PUSH1 0x20 DUP3 DUP5 SUB SLT ISZERO PUSH2 0x1674 JUMPI PUSH2 0x1673 PUSH2 0x1AFD JUMP JUMPDEST JUMPDEST PUSH1 0x0 PUSH2 0x1682 DUP5 DUP3 DUP6 ADD PUSH2 0x1486 JUMP JUMPDEST SWAP2 POP POP SWAP3 SWAP2 POP POP JUMP JUMPDEST PUSH1 0x0 DUP1 PUSH1 0x40 DUP4 DUP6 SUB SLT ISZERO PUSH2 0x16A2 JUMPI PUSH2 0x16A1 PUSH2 0x1AFD JUMP JUMPDEST JUMPDEST PUSH1 0x0 PUSH2 0x16B0 DUP6 DUP3 DUP7 ADD PUSH2 0x1486 JUMP JUMPDEST SWAP3 POP POP PUSH1 0x20 DUP4 ADD CALLDATALOAD PUSH8 0xFFFFFFFFFFFFFFFF DUP2 GT ISZERO PUSH2 0x16D1 JUMPI PUSH2 0x16D0 PUSH2 0x1AF8 JUMP JUMPDEST JUMPDEST PUSH2 0x16DD DUP6 DUP3 DUP7 ADD PUSH2 0x1458 JUMP JUMPDEST SWAP2 POP POP SWAP3 POP SWAP3 SWAP1 POP JUMP JUMPDEST PUSH2 0x16F0 DUP2 PUSH2 0x18D6 JUMP JUMPDEST DUP3 MSTORE POP POP JUMP JUMPDEST PUSH2 0x16FF DUP2 PUSH2 0x18E8 JUMP JUMPDEST DUP3 MSTORE POP POP JUMP JUMPDEST PUSH2 0x170E DUP2 PUSH2 0x1914 JUMP JUMPDEST DUP3 MSTORE POP POP JUMP JUMPDEST PUSH1 0x0 PUSH1 0x20 DUP3 ADD SWAP1 POP PUSH2 0x1729 PUSH1 0x0 DUP4 ADD DUP5 PUSH2 0x16E7 JUMP JUMPDEST SWAP3 SWAP2 POP POP JUMP JUMPDEST PUSH1 0x0 PUSH1 0x60 DUP3 ADD SWAP1 POP PUSH2 0x1744 PUSH1 0x0 DUP4 ADD DUP7 PUSH2 0x16E7 JUMP JUMPDEST PUSH2 0x1751 PUSH1 0x20 DUP4 ADD DUP6 PUSH2 0x16E7 JUMP JUMPDEST PUSH2 0x175E PUSH1 0x40 DUP4 ADD DUP5 PUSH2 0x1705 JUMP JUMPDEST SWAP5 SWAP4 POP POP POP POP JUMP JUMPDEST PUSH1 0x0 PUSH1 0x40 DUP3 ADD SWAP1 POP PUSH2 0x177B PUSH1 0x0 DUP4 ADD DUP6 PUSH2 0x16E7 JUMP JUMPDEST PUSH2 0x1788 PUSH1 0x20 DUP4 ADD DUP5 PUSH2 0x1705 JUMP JUMPDEST SWAP4 SWAP3 POP POP POP JUMP JUMPDEST PUSH1 0x0 PUSH1 0x20 DUP3 ADD SWAP1 POP PUSH2 0x17A4 PUSH1 0x0 DUP4 ADD DUP5 PUSH2 0x16F6 JUMP JUMPDEST SWAP3 SWAP2 POP POP JUMP JUMPDEST PUSH1 0x0 PUSH1 0x20 DUP3 ADD SWAP1 POP PUSH2 0x17BF PUSH1 0x0 DUP4 ADD DUP5 PUSH2 0x1705 JUMP JUMPDEST SWAP3 SWAP2 POP POP JUMP JUMPDEST PUSH1 0x0 PUSH2 0x17CF PUSH2 0x17E0 JUMP JUMPDEST SWAP1 POP PUSH2 0x17DB DUP3 DUP3 PUSH2 0x1989 JUMP JUMPDEST SWAP2 SWAP1 POP JUMP JUMPDEST PUSH1 0x0 PUSH1 0x40 MLOAD SWAP1 POP SWAP1 JUMP JUMPDEST PUSH1 0x0 PUSH8 0xFFFFFFFFFFFFFFFF DUP3 GT ISZERO PUSH2 0x1805 JUMPI PUSH2 0x1804 PUSH2 0x1ABF JUMP JUMPDEST JUMPDEST PUSH2 0x180E DUP3 PUSH2 0x1B02 JUMP JUMPDEST SWAP1 POP PUSH1 0x20 DUP2 ADD SWAP1 POP SWAP2 SWAP1 POP JUMP JUMPDEST PUSH1 0x0 PUSH8 0xFFFFFFFFFFFFFFFF DUP3 GT ISZERO PUSH2 0x1836 JUMPI PUSH2 0x1835 PUSH2 0x1ABF JUMP JUMPDEST JUMPDEST PUSH2 0x183F DUP3 PUSH2 0x1B02 JUMP JUMPDEST SWAP1 POP PUSH1 0x20 DUP2 ADD SWAP1 POP SWAP2 SWAP1 POP JUMP JUMPDEST PUSH1 0x0 PUSH2 0x1857 DUP3 PUSH2 0x1914 JUMP JUMPDEST SWAP2 POP PUSH2 0x1862 DUP4 PUSH2 0x1914 JUMP JUMPDEST SWAP3 POP DUP3 PUSH32 0xFFFFFFFFFFFFFFFFFFFFFFFFFFFFFFFFFFFFFFFFFFFFFFFFFFFFFFFFFFFFFFFF SUB DUP3 GT ISZERO PUSH2 0x1897 JUMPI PUSH2 0x1896 PUSH2 0x1A03 JUMP JUMPDEST JUMPDEST DUP3 DUP3 ADD SWAP1 POP SWAP3 SWAP2 POP POP JUMP JUMPDEST PUSH1 0x0 PUSH2 0x18AD DUP3 PUSH2 0x1914 JUMP JUMPDEST SWAP2 POP PUSH2 0x18B8 DUP4 PUSH2 0x1914 JUMP JUMPDEST SWAP3 POP DUP3 DUP3 LT ISZERO PUSH2 0x18CB JUMPI PUSH2 0x18CA PUSH2 0x1A03 JUMP JUMPDEST JUMPDEST DUP3 DUP3 SUB SWAP1 POP SWAP3 SWAP2 POP POP JUMP JUMPDEST PUSH1 0x0 PUSH2 0x18E1 DUP3 PUSH2 0x18F4 JUMP JUMPDEST SWAP1 POP SWAP2 SWAP1 POP JUMP JUMPDEST PUSH1 0x0 DUP2 ISZERO ISZERO SWAP1 POP SWAP2 SWAP1 POP JUMP JUMPDEST PUSH1 0x0 PUSH20 0xFFFFFFFFFFFFFFFFFFFFFFFFFFFFFFFFFFFFFFFF DUP3 AND SWAP1 POP SWAP2 SWAP1 POP JUMP JUMPDEST PUSH1 0x0 DUP2 SWAP1 POP SWAP2 SWAP1 POP JUMP JUMPDEST DUP3 DUP2 DUP4 CALLDATACOPY PUSH1 0x0 DUP4 DUP4 ADD MSTORE POP POP POP JUMP JUMPDEST PUSH1 0x0 PUSH2 0x1938 DUP3 PUSH2 0x1914 JUMP JUMPDEST SWAP2 POP PUSH1 0x0 DUP3 EQ ISZERO PUSH2 0x194C JUMPI PUSH2 0x194B PUSH2 0x1A03 JUMP JUMPDEST JUMPDEST PUSH1 0x1 DUP3 SUB SWAP1 POP SWAP2 SWAP1 POP JUMP JUMPDEST PUSH1 0x0 PUSH1 0x2 DUP3 DIV SWAP1 POP PUSH1 0x1 DUP3 AND DUP1 PUSH2 0x196F JUMPI PUSH1 0x7F DUP3 AND SWAP2 POP JUMPDEST PUSH1 0x20 DUP3 LT DUP2 EQ ISZERO PUSH2 0x1983 JUMPI PUSH2 0x1982 PUSH2 0x1A61 JUMP JUMPDEST JUMPDEST POP SWAP2 SWAP1 POP JUMP JUMPDEST PUSH2 0x1992 DUP3 PUSH2 0x1B02 JUMP JUMPDEST DUP2 ADD DUP2 DUP2 LT PUSH8 0xFFFFFFFFFFFFFFFF DUP3 GT OR ISZERO PUSH2 0x19B1 JUMPI PUSH2 0x19B0 PUSH2 0x1ABF JUMP JUMPDEST JUMPDEST DUP1 PUSH1 0x40 MSTORE POP POP POP JUMP JUMPDEST PUSH1 0x0 PUSH2 0x19C5 DUP3 PUSH2 0x1914 JUMP JUMPDEST SWAP2 POP PUSH32 0xFFFFFFFFFFFFFFFFFFFFFFFFFFFFFFFFFFFFFFFFFFFFFFFFFFFFFFFFFFFFFFFF DUP3 EQ ISZERO PUSH2 0x19F8 JUMPI PUSH2 0x19F7 PUSH2 0x1A03 JUMP JUMPDEST JUMPDEST PUSH1 0x1 DUP3 ADD SWAP1 POP SWAP2 SWAP1 POP JUMP JUMPDEST PUSH32 0x4E487B7100000000000000000000000000000000000000000000000000000000 PUSH1 0x0 MSTORE PUSH1 0x11 PUSH1 0x4 MSTORE PUSH1 0x24 PUSH1 0x0 REVERT JUMPDEST PUSH32 0x4E487B7100000000000000000000000000000000000000000000000000000000 PUSH1 0x0 MSTORE PUSH1 0x21 PUSH1 0x4 MSTORE PUSH1 0x24 PUSH1 0x0 REVERT JUMPDEST PUSH32 0x4E487B7100000000000000000000000000000000000000000000000000000000 PUSH1 0x0 MSTORE PUSH1 0x22 PUSH1 0x4 MSTORE PUSH1 0x24 PUSH1 0x0 REVERT JUMPDEST PUSH32 0x4E487B7100000000000000000000000000000000000000000000000000000000 PUSH1 0x0 MSTORE PUSH1 0x32 PUSH1 0x4 MSTORE PUSH1 0x24 PUSH1 0x0 REVERT JUMPDEST PUSH32 0x4E487B7100000000000000000000000000000000000000000000000000000000 PUSH1 0x0 MSTORE PUSH1 0x41 PUSH1 0x4 MSTORE PUSH1 0x24 PUSH1 0x0 REVERT JUMPDEST PUSH1 0x0 DUP1 REVERT JUMPDEST PUSH1 0x0 DUP1 REVERT JUMPDEST PUSH1 0x0 DUP1 REVERT JUMPDEST PUSH1 0x0 DUP1 REVERT JUMPDEST PUSH1 0x0 PUSH1 0x1F NOT PUSH1 0x1F DUP4 ADD AND SWAP1 POP SWAP2 SWAP1 POP JUMP JUMPDEST PUSH2 0x1B1C DUP2 PUSH2 0x18D6 JUMP JUMPDEST DUP2 EQ PUSH2 0x1B27 JUMPI PUSH1 0x0 DUP1 REVERT JUMPDEST POP JUMP JUMPDEST PUSH2 0x1B33 DUP2 PUSH2 0x18E8 JUMP JUMPDEST DUP2 EQ PUSH2 0x1B3E JUMPI PUSH1 0x0 DUP1 REVERT JUMPDEST POP JUMP JUMPDEST PUSH2 0x1B4A DUP2 PUSH2 0x1914 JUMP JUMPDEST DUP2 EQ PUSH2 0x1B55 JUMPI PUSH1 0x0 DUP1 REVERT JUMPDEST POP JUMP INVALID LOG2 PUSH5 0x6970667358 0x22 SLT KECCAK256 0xEC MSTORE DUP10 0xE2 0x2D 0xEE BLOCKHASH PUSH22 0x6B35CEDD43F08C6C3505B0E5386FA6E2EF0E121AF47 0x5D 0x26 PUSH5 0x736F6C6343 STOP ADDMOD SMOD STOP CALLER "
				},
				"gasEstimates": {
					"creation": {
						"codeDepositCost": "1410800",
						"executionCost": "25738",
						"totalCost": "1436538"
					},
					"external": {
						"activate(uint256,string)": "infinite",
						"approve(address,uint256)": "infinite",
						"balanceOf(address)": "2886",
						"burn(address,uint256)": "infinite",
						"getApproved(uint256)": "667",
						"giveLicense(address,uint256)": "infinite",
						"handleExpiredLicense(address,uint256)": "infinite",
						"isApprovedForAll(address,address)": "infinite",
						"isLicenseActive(address,uint256)": "infinite",
						"ownerOf(uint256)": "2926",
						"safeTransferFrom(address,address,uint256)": "infinite",
						"safeTransferFrom(address,address,uint256,bytes)": "infinite",
						"setApprovalForAll(address,bool)": "723",
						"tokenIndexToApproved(uint256)": "2861",
						"tokenIndexToOwner(uint256)": "2929",
						"totalSupply()": "2513",
						"transferFrom(address,address,uint256)": "infinite",
						"transferOwnership(address)": "26999"
					},
					"internal": {
						"_mint(address,uint256)": "infinite",
						"_owns(address,uint256)": "2268",
						"_transfer(address,address,uint256)": "infinite"
					}
				},
				"methodIdentifiers": {
					"activate(uint256,string)": "5690d0d9",
					"approve(address,uint256)": "095ea7b3",
					"balanceOf(address)": "70a08231",
					"burn(address,uint256)": "9dc29fac",
					"getApproved(uint256)": "081812fc",
					"giveLicense(address,uint256)": "21ea02f9",
					"handleExpiredLicense(address,uint256)": "e1721ec8",
					"isApprovedForAll(address,address)": "e985e9c5",
					"isLicenseActive(address,uint256)": "48c20f3d",
					"ownerOf(uint256)": "6352211e",
					"safeTransferFrom(address,address,uint256)": "42842e0e",
					"safeTransferFrom(address,address,uint256,bytes)": "b88d4fde",
					"setApprovalForAll(address,bool)": "a22cb465",
					"tokenIndexToApproved(uint256)": "a8bd9c32",
					"tokenIndexToOwner(uint256)": "1d36e06c",
					"totalSupply()": "18160ddd",
					"transferFrom(address,address,uint256)": "23b872dd",
					"transferOwnership(address)": "f2fde38b"
				}
			},
			"storageLayout": {
				"storage": [
					{
						"astId": 3,
						"contract": "contracts/Licence.sol:LicenseToken",
						"label": "owner",
						"offset": 0,
						"slot": "0",
						"type": "t_address"
					},
					{
						"astId": 65,
						"contract": "contracts/Licence.sol:LicenseToken",
						"label": "tokens",
						"offset": 0,
						"slot": "1",
						"type": "t_array(t_struct(LicenseInfo)61_storage)dyn_storage"
					},
					{
						"astId": 69,
						"contract": "contracts/Licence.sol:LicenseToken",
						"label": "tokenIndexToOwner",
						"offset": 0,
						"slot": "2",
						"type": "t_mapping(t_uint256,t_address)"
					},
					{
						"astId": 73,
						"contract": "contracts/Licence.sol:LicenseToken",
						"label": "ownershipTokenCount",
						"offset": 0,
						"slot": "3",
						"type": "t_mapping(t_address,t_uint256)"
					},
					{
						"astId": 77,
						"contract": "contracts/Licence.sol:LicenseToken",
						"label": "tokenIndexToApproved",
						"offset": 0,
						"slot": "4",
						"type": "t_mapping(t_uint256,t_address)"
					}
				],
				"types": {
					"t_address": {
						"encoding": "inplace",
						"label": "address",
						"numberOfBytes": "20"
					},
					"t_array(t_struct(LicenseInfo)61_storage)dyn_storage": {
						"base": "t_struct(LicenseInfo)61_storage",
						"encoding": "dynamic_array",
						"label": "struct LicenseToken.LicenseInfo[]",
						"numberOfBytes": "32"
					},
					"t_enum(LicenseState)45": {
						"encoding": "inplace",
						"label": "enum LicenseToken.LicenseState",
						"numberOfBytes": "1"
					},
					"t_enum(LicenseType)41": {
						"encoding": "inplace",
						"label": "enum LicenseToken.LicenseType",
						"numberOfBytes": "1"
					},
					"t_mapping(t_address,t_uint256)": {
						"encoding": "mapping",
						"key": "t_address",
						"label": "mapping(address => uint256)",
						"numberOfBytes": "32",
						"value": "t_uint256"
					},
					"t_mapping(t_uint256,t_address)": {
						"encoding": "mapping",
						"key": "t_uint256",
						"label": "mapping(uint256 => address)",
						"numberOfBytes": "32",
						"value": "t_address"
					},
					"t_string_storage": {
						"encoding": "bytes",
						"label": "string",
						"numberOfBytes": "32"
					},
					"t_struct(LicenseInfo)61_storage": {
						"encoding": "inplace",
						"label": "struct LicenseToken.LicenseInfo",
						"members": [
							{
								"astId": 51,
								"contract": "contracts/Licence.sol:LicenseToken",
								"label": "licenseType",
								"offset": 0,
								"slot": "0",
								"type": "t_enum(LicenseType)41"
							},
							{
								"astId": 53,
								"contract": "contracts/Licence.sol:LicenseToken",
								"label": "registeredOn",
								"offset": 0,
								"slot": "1",
								"type": "t_uint256"
							},
							{
								"astId": 55,
								"contract": "contracts/Licence.sol:LicenseToken",
								"label": "expiresOn",
								"offset": 0,
								"slot": "2",
								"type": "t_uint256"
							},
							{
								"astId": 58,
								"contract": "contracts/Licence.sol:LicenseToken",
								"label": "state",
								"offset": 0,
								"slot": "3",
								"type": "t_enum(LicenseState)45"
							},
							{
								"astId": 60,
								"contract": "contracts/Licence.sol:LicenseToken",
								"label": "deviceId",
								"offset": 0,
								"slot": "4",
								"type": "t_string_storage"
							}
						],
						"numberOfBytes": "160"
					},
					"t_uint256": {
						"encoding": "inplace",
						"label": "uint256",
						"numberOfBytes": "32"
					}
				}
			},
			"userdoc": {
				"kind": "user",
				"methods": {},
				"version": 1
			}
		}
	}
}