{
	"data": {
		"bytecode": {
			"linkReferences": {},
			"object": "608060405234801561001057600080fd5b506122b8806100206000396000f3fe60806040523480156200001157600080fd5b50600436106200006a5760003560e01c806333790845146200006f578063492cc76914620000a557806353ed514314620000c5578063b0aa139e14620000e7578063dfefadff1462000109578063ebdf86ca1462000143575b600080fd5b6200008d600480360381019062000087919062001112565b62000163565b6040516200009c9190620013f8565b60405180910390f35b620000c36004803603810190620000bd91906200103c565b620001a3565b005b620000cf6200024b565b604051620000de9190620013d4565b60405180910390f35b620000f1620004da565b604051620001009190620013d4565b60405180910390f35b62000127600480360381019062000121919062001112565b62000931565b6040516200013a95949392919062001362565b60405180910390f35b6200016160048036038101906200015b91906200108d565b62000b48565b005b600181815481106200017457600080fd5b906000526020600020016000915054906101000a900473ffffffffffffffffffffffffffffffffffffffff1681565b60018160013362278d00604051620001bb9062000ea4565b620001ca949392919062001469565b604051809103906000f080158015620001e7573d6000803e3d6000fd5b509080600181540180825580915050600190039060005260206000200160009091909190916101000a81548173ffffffffffffffffffffffffffffffffffffffff021916908373ffffffffffffffffffffffffffffffffffffffff16021790555050565b60606000805480602002602001604051908101604052809291908181526020016000905b82821015620004d157838290600052602060002090600502016040518060a00160405290816000820160009054906101000a900473ffffffffffffffffffffffffffffffffffffffff1673ffffffffffffffffffffffffffffffffffffffff1673ffffffffffffffffffffffffffffffffffffffff168152602001600182018054620002fb9062001725565b80601f0160208091040260200160405190810160405280929190818152602001828054620003299062001725565b80156200037a5780601f106200034e576101008083540402835291602001916200037a565b820191906000526020600020905b8154815290600101906020018083116200035c57829003601f168201915b50505050508152602001600282018054620003959062001725565b80601f0160208091040260200160405190810160405280929190818152602001828054620003c39062001725565b8015620004145780601f10620003e85761010080835404028352916020019162000414565b820191906000526020600020905b815481529060010190602001808311620003f657829003601f168201915b5050505050815260200160038201548152602001600482018054620004399062001725565b80601f0160208091040260200160405190810160405280929190818152602001828054620004679062001725565b8015620004b85780601f106200048c57610100808354040283529160200191620004b8565b820191906000526020600020905b8154815290600101906020018083116200049a57829003601f168201915b505050505081525050815260200190600101906200026f565b50505050905090565b60606000805b60008054905081101562000592573373ffffffffffffffffffffffffffffffffffffffff16600082815481106200051c576200051b620018a4565b5b906000526020600020906005020160000160009054906101000a900473ffffffffffffffffffffffffffffffffffffffff1673ffffffffffffffffffffffffffffffffffffffff1614156200057c578180620005789062001791565b9250505b8080620005899062001791565b915050620004e0565b5060008167ffffffffffffffff811115620005b257620005b1620018d3565b5b604051908082528060200260200182016040528015620005ef57816020015b620005db62000eb2565b815260200190600190039081620005d15790505b5090506000805b60008054905081101562000927573373ffffffffffffffffffffffffffffffffffffffff1660008281548110620006325762000631620018a4565b5b906000526020600020906005020160000160009054906101000a900473ffffffffffffffffffffffffffffffffffffffff1673ffffffffffffffffffffffffffffffffffffffff161415620009115760008181548110620006985762000697620018a4565b5b90600052602060002090600502016040518060a00160405290816000820160009054906101000a900473ffffffffffffffffffffffffffffffffffffffff1673ffffffffffffffffffffffffffffffffffffffff1673ffffffffffffffffffffffffffffffffffffffff168152602001600182018054620007199062001725565b80601f0160208091040260200160405190810160405280929190818152602001828054620007479062001725565b8015620007985780601f106200076c5761010080835404028352916020019162000798565b820191906000526020600020905b8154815290600101906020018083116200077a57829003601f168201915b50505050508152602001600282018054620007b39062001725565b80601f0160208091040260200160405190810160405280929190818152602001828054620007e19062001725565b8015620008325780601f10620008065761010080835404028352916020019162000832565b820191906000526020600020905b8154815290600101906020018083116200081457829003601f168201915b5050505050815260200160038201548152602001600482018054620008579062001725565b80601f0160208091040260200160405190810160405280929190818152602001828054620008859062001725565b8015620008d65780601f10620008aa57610100808354040283529160200191620008d6565b820191906000526020600020905b815481529060010190602001808311620008b857829003601f168201915b505050505081525050838381518110620008f557620008f4620018a4565b5b602002602001018190525081806200090d9062001791565b9250505b80806200091e9062001791565b915050620005f6565b5081935050505090565b600081815481106200094257600080fd5b90600052602060002090600502016000915090508060000160009054906101000a900473ffffffffffffffffffffffffffffffffffffffff16908060010180546200098d9062001725565b80601f0160208091040260200160405190810160405280929190818152602001828054620009bb9062001725565b801562000a0c5780601f10620009e05761010080835404028352916020019162000a0c565b820191906000526020600020905b815481529060010190602001808311620009ee57829003601f168201915b50505050509080600201805462000a239062001725565b80601f016020809104026020016040519081016040528092919081815260200182805462000a519062001725565b801562000aa25780601f1062000a765761010080835404028352916020019162000aa2565b820191906000526020600020905b81548152906001019060200180831162000a8457829003601f168201915b50505050509080600301549080600401805462000abf9062001725565b80601f016020809104026020016040519081016040528092919081815260200182805462000aed9062001725565b801562000b3e5780601f1062000b125761010080835404028352916020019162000b3e565b820191906000526020600020905b81548152906001019060200180831162000b2057829003601f168201915b5050505050905085565b600062000b68600160008054905062000b62919062001582565b62000d2a565b905060006040518060a001604052803373ffffffffffffffffffffffffffffffffffffffff16815260200185815260200184815260200142815260200183815250908060018154018082558091505060019003906000526020600020906005020160009091909190915060008201518160000160006101000a81548173ffffffffffffffffffffffffffffffffffffffff021916908373ffffffffffffffffffffffffffffffffffffffff160217905550602082015181600101908051906020019062000c3792919062000ef7565b50604082015181600201908051906020019062000c5692919062000ef7565b5060608201518160030155608082015181600401908051906020019062000c7f92919062000ef7565b505050600181600133600060405162000c989062000ea4565b62000ca7949392919062001415565b604051809103906000f08015801562000cc4573d6000803e3d6000fd5b509080600181540180825580915050600190039060005260206000200160009091909190916101000a81548173ffffffffffffffffffffffffffffffffffffffff021916908373ffffffffffffffffffffffffffffffffffffffff160217905550505050565b6060600082141562000d74576040518060400160405280600181526020017f3000000000000000000000000000000000000000000000000000000000000000815250905062000e9f565b600082905060005b6000821462000dac57808062000d929062001791565b915050600a8262000da49190620015df565b915062000d7c565b60008167ffffffffffffffff81111562000dcb5762000dca620018d3565b5b6040519080825280601f01601f19166020018201604052801562000dfe5781602001600182028036833780820191505090505b5090505b6000851462000e985760018262000e1a919062001617565b9150600a8562000e2b9190620017df565b603062000e39919062001582565b60f81b81838151811062000e525762000e51620018a4565b5b60200101907effffffffffffffffffffffffffffffffffffffffffffffffffffffffffffff1916908160001a905350600a8562000e909190620015df565b945062000e02565b8093505050505b919050565b610941806200194283390190565b6040518060a00160405280600073ffffffffffffffffffffffffffffffffffffffff168152602001606081526020016060815260200160008152602001606081525090565b82805462000f059062001725565b90600052602060002090601f01602090048101928262000f29576000855562000f75565b82601f1062000f4457805160ff191683800117855562000f75565b8280016001018555821562000f75579182015b8281111562000f7457825182559160200191906001019062000f57565b5b50905062000f84919062000f88565b5090565b5b8082111562000fa357600081600090555060010162000f89565b5090565b600062000fbe62000fb884620014e6565b620014bd565b90508281526020810184848401111562000fdd5762000fdc62001907565b5b62000fea848285620016e0565b509392505050565b600082601f8301126200100a576200100962001902565b5b81356200101c84826020860162000fa7565b91505092915050565b600081359050620010368162001927565b92915050565b60006020828403121562001055576200105462001911565b5b600082013567ffffffffffffffff8111156200107657620010756200190c565b5b620010848482850162000ff2565b91505092915050565b60008060408385031215620010a757620010a662001911565b5b600083013567ffffffffffffffff811115620010c857620010c76200190c565b5b620010d68582860162000ff2565b925050602083013567ffffffffffffffff811115620010fa57620010f96200190c565b5b620011088582860162000ff2565b9150509250929050565b6000602082840312156200112b576200112a62001911565b5b60006200113b8482850162001025565b91505092915050565b6000620011528383620012b2565b905092915050565b620011658162001652565b82525050565b620011768162001652565b82525050565b600062001189826200152c565b6200119581856200154f565b935083602082028501620011a9856200151c565b8060005b85811015620011eb5784840389528151620011c9858262001144565b9450620011d68362001542565b925060208a01995050600181019050620011ad565b50829750879550505050505092915050565b620012088162001690565b82525050565b6200121981620016b8565b82525050565b6200122a81620016cc565b82525050565b60006200123d8262001537565b62001249818562001560565b93506200125b818560208601620016ef565b620012668162001916565b840191505092915050565b60006200127e8262001537565b6200128a818562001571565b93506200129c818560208601620016ef565b620012a78162001916565b840191505092915050565b600060a083016000830151620012cc60008601826200115a565b5060208301518482036020860152620012e6828262001230565b9150506040830151848203604086015262001302828262001230565b915050606083015162001319606086018262001340565b506080830151848203608086015262001333828262001230565b9150508091505092915050565b6200134b8162001686565b82525050565b6200135c8162001686565b82525050565b600060a0820190506200137960008301886200116b565b81810360208301526200138d818762001271565b90508181036040830152620013a3818662001271565b9050620013b4606083018562001351565b8181036080830152620013c8818462001271565b90509695505050505050565b60006020820190508181036000830152620013f081846200117c565b905092915050565b60006020820190506200140f6000830184620011fd565b92915050565b6000608082019050818103600083015262001431818762001271565b90506200144260208301866200121f565b6200145160408301856200116b565b6200146060608301846200120e565b95945050505050565b6000608082019050818103600083015262001485818762001271565b90506200149660208301866200121f565b620014a560408301856200116b565b620014b4606083018462001351565b95945050505050565b6000620014c9620014dc565b9050620014d782826200175b565b919050565b6000604051905090565b600067ffffffffffffffff821115620015045762001503620018d3565b5b6200150f8262001916565b9050602081019050919050565b6000819050602082019050919050565b600081519050919050565b600081519050919050565b6000602082019050919050565b600082825260208201905092915050565b600082825260208201905092915050565b600082825260208201905092915050565b60006200158f8262001686565b91506200159c8362001686565b9250827fffffffffffffffffffffffffffffffffffffffffffffffffffffffffffffffff03821115620015d457620015d362001817565b5b828201905092915050565b6000620015ec8262001686565b9150620015f98362001686565b9250826200160c576200160b62001846565b5b828204905092915050565b6000620016248262001686565b9150620016318362001686565b92508282101562001647576200164662001817565b5b828203905092915050565b60006200165f8262001666565b9050919050565b600073ffffffffffffffffffffffffffffffffffffffff82169050919050565b6000819050919050565b60006200169d82620016a4565b9050919050565b6000620016b18262001666565b9050919050565b6000620016c58262001686565b9050919050565b6000620016d98262001686565b9050919050565b82818337600083830152505050565b60005b838110156200170f578082015181840152602081019050620016f2565b838111156200171f576000848401525b50505050565b600060028204905060018216806200173e57607f821691505b6020821081141562001755576200175462001875565b5b50919050565b620017668262001916565b810181811067ffffffffffffffff82111715620017885762001787620018d3565b5b80604052505050565b60006200179e8262001686565b91507fffffffffffffffffffffffffffffffffffffffffffffffffffffffffffffffff821415620017d457620017d362001817565b5b600182019050919050565b6000620017ec8262001686565b9150620017f98362001686565b9250826200180c576200180b62001846565b5b828206905092915050565b7f4e487b7100000000000000000000000000000000000000000000000000000000600052601160045260246000fd5b7f4e487b7100000000000000000000000000000000000000000000000000000000600052601260045260246000fd5b7f4e487b7100000000000000000000000000000000000000000000000000000000600052602260045260246000fd5b7f4e487b7100000000000000000000000000000000000000000000000000000000600052603260045260246000fd5b7f4e487b7100000000000000000000000000000000000000000000000000000000600052604160045260246000fd5b600080fd5b600080fd5b600080fd5b600080fd5b6000601f19601f8301169050919050565b620019328162001686565b81146200193e57600080fd5b5056fe60806040523480156200001157600080fd5b506040516200094138038062000941833981810160405281019062000037919062000224565b83600090805190602001906200004f929190620000c8565b50600081146200006d57804262000067919062000314565b62000070565b60005b6001819055508260028190555081600360006101000a81548173ffffffffffffffffffffffffffffffffffffffff021916908373ffffffffffffffffffffffffffffffffffffffff1602179055505050505062000537565b828054620000d690620003e5565b90600052602060002090601f016020900481019282620000fa576000855562000146565b82601f106200011557805160ff191683800117855562000146565b8280016001018555821562000146579182015b828111156200014557825182559160200191906001019062000128565b5b50905062000155919062000159565b5090565b5b80821115620001745760008160009055506001016200015a565b5090565b60006200018f6200018984620002de565b620002b5565b905082815260208101848484011115620001ae57620001ad620004e3565b5b620001bb848285620003af565b509392505050565b600081519050620001d48162000503565b92915050565b600082601f830112620001f257620001f1620004de565b5b81516200020484826020860162000178565b91505092915050565b6000815190506200021e816200051d565b92915050565b60008060008060808587031215620002415762000240620004ed565b5b600085015167ffffffffffffffff811115620002625762000261620004e8565b5b6200027087828801620001da565b945050602062000283878288016200020d565b93505060406200029687828801620001c3565b9250506060620002a9878288016200020d565b91505092959194509250565b6000620002c1620002d4565b9050620002cf82826200041b565b919050565b6000604051905090565b600067ffffffffffffffff821115620002fc57620002fb620004af565b5b6200030782620004f2565b9050602081019050919050565b60006200032182620003a5565b91506200032e83620003a5565b9250827fffffffffffffffffffffffffffffffffffffffffffffffffffffffffffffffff0382111562000366576200036562000451565b5b828201905092915050565b60006200037e8262000385565b9050919050565b600073ffffffffffffffffffffffffffffffffffffffff82169050919050565b6000819050919050565b60005b83811015620003cf578082015181840152602081019050620003b2565b83811115620003df576000848401525b50505050565b60006002820490506001821680620003fe57607f821691505b6020821081141562000415576200041462000480565b5b50919050565b6200042682620004f2565b810181811067ffffffffffffffff82111715620004485762000447620004af565b5b80604052505050565b7f4e487b7100000000000000000000000000000000000000000000000000000000600052601160045260246000fd5b7f4e487b7100000000000000000000000000000000000000000000000000000000600052602260045260246000fd5b7f4e487b7100000000000000000000000000000000000000000000000000000000600052604160045260246000fd5b600080fd5b600080fd5b600080fd5b600080fd5b6000601f19601f8301169050919050565b6200050e8162000371565b81146200051a57600080fd5b50565b6200052881620003a5565b81146200053457600080fd5b50565b6103fa80620005476000396000f3fe608060405234801561001057600080fd5b50600436106100575760003560e01c80632f13b60c1461005c5780634c2067c71461007a5780638da5cb5b14610098578063c1991219146100b6578063e6f1969c146100d4575b600080fd5b6100646100f2565b6040516100719190610263565b60405180910390f35b610082610122565b60405161008f91906102a0565b60405180910390f35b6100a0610128565b6040516100ad9190610248565b60405180910390f35b6100be61014e565b6040516100cb91906102a0565b60405180910390f35b6100dc610154565b6040516100e9919061027e565b60405180910390f35b6000806001541415610107576000905061011f565b42600154101561011a5760006002819055505b600190505b90565b60015481565b600360009054906101000a900473ffffffffffffffffffffffffffffffffffffffff1681565b60025481565b6000805461016190610352565b80601f016020809104026020016040519081016040528092919081815260200182805461018d90610352565b80156101da5780601f106101af576101008083540402835291602001916101da565b820191906000526020600020905b8154815290600101906020018083116101bd57829003601f168201915b505050505081565b6101eb816102d7565b82525050565b6101fa816102e9565b82525050565b600061020b826102bb565b61021581856102c6565b935061022581856020860161031f565b61022e816103b3565b840191505092915050565b61024281610315565b82525050565b600060208201905061025d60008301846101e2565b92915050565b600060208201905061027860008301846101f1565b92915050565b600060208201905081810360008301526102988184610200565b905092915050565b60006020820190506102b56000830184610239565b92915050565b600081519050919050565b600082825260208201905092915050565b60006102e2826102f5565b9050919050565b60008115159050919050565b600073ffffffffffffffffffffffffffffffffffffffff82169050919050565b6000819050919050565b60005b8381101561033d578082015181840152602081019050610322565b8381111561034c576000848401525b50505050565b6000600282049050600182168061036a57607f821691505b6020821081141561037e5761037d610384565b5b50919050565b7f4e487b7100000000000000000000000000000000000000000000000000000000600052602260045260246000fd5b6000601f19601f830116905091905056fea2646970667358221220d294eb1ca356f43eb82ae05204dfc54bfb08b26bcc26147b7858f9fd64d70f1064736f6c63430008060033a2646970667358221220e53b2263d0bc43c11d8f32670ebfb27e11a4cb11da166cc52e035acf403088c764736f6c63430008060033",
			"opcodes": "PUSH1 0x80 PUSH1 0x40 MSTORE CALLVALUE DUP1 ISZERO PUSH2 0x10 JUMPI PUSH1 0x0 DUP1 REVERT JUMPDEST POP PUSH2 0x22B8 DUP1 PUSH2 0x20 PUSH1 0x0 CODECOPY PUSH1 0x0 RETURN INVALID PUSH1 0x80 PUSH1 0x40 MSTORE CALLVALUE DUP1 ISZERO PUSH3 0x11 JUMPI PUSH1 0x0 DUP1 REVERT JUMPDEST POP PUSH1 0x4 CALLDATASIZE LT PUSH3 0x6A JUMPI PUSH1 0x0 CALLDATALOAD PUSH1 0xE0 SHR DUP1 PUSH4 0x33790845 EQ PUSH3 0x6F JUMPI DUP1 PUSH4 0x492CC769 EQ PUSH3 0xA5 JUMPI DUP1 PUSH4 0x53ED5143 EQ PUSH3 0xC5 JUMPI DUP1 PUSH4 0xB0AA139E EQ PUSH3 0xE7 JUMPI DUP1 PUSH4 0xDFEFADFF EQ PUSH3 0x109 JUMPI DUP1 PUSH4 0xEBDF86CA EQ PUSH3 0x143 JUMPI JUMPDEST PUSH1 0x0 DUP1 REVERT JUMPDEST PUSH3 0x8D PUSH1 0x4 DUP1 CALLDATASIZE SUB DUP2 ADD SWAP1 PUSH3 0x87 SWAP2 SWAP1 PUSH3 0x1112 JUMP JUMPDEST PUSH3 0x163 JUMP JUMPDEST PUSH1 0x40 MLOAD PUSH3 0x9C SWAP2 SWAP1 PUSH3 0x13F8 JUMP JUMPDEST PUSH1 0x40 MLOAD DUP1 SWAP2 SUB SWAP1 RETURN JUMPDEST PUSH3 0xC3 PUSH1 0x4 DUP1 CALLDATASIZE SUB DUP2 ADD SWAP1 PUSH3 0xBD SWAP2 SWAP1 PUSH3 0x103C JUMP JUMPDEST PUSH3 0x1A3 JUMP JUMPDEST STOP JUMPDEST PUSH3 0xCF PUSH3 0x24B JUMP JUMPDEST PUSH1 0x40 MLOAD PUSH3 0xDE SWAP2 SWAP1 PUSH3 0x13D4 JUMP JUMPDEST PUSH1 0x40 MLOAD DUP1 SWAP2 SUB SWAP1 RETURN JUMPDEST PUSH3 0xF1 PUSH3 0x4DA JUMP JUMPDEST PUSH1 0x40 MLOAD PUSH3 0x100 SWAP2 SWAP1 PUSH3 0x13D4 JUMP JUMPDEST PUSH1 0x40 MLOAD DUP1 SWAP2 SUB SWAP1 RETURN JUMPDEST PUSH3 0x127 PUSH1 0x4 DUP1 CALLDATASIZE SUB DUP2 ADD SWAP1 PUSH3 0x121 SWAP2 SWAP1 PUSH3 0x1112 JUMP JUMPDEST PUSH3 0x931 JUMP JUMPDEST PUSH1 0x40 MLOAD PUSH3 0x13A SWAP6 SWAP5 SWAP4 SWAP3 SWAP2 SWAP1 PUSH3 0x1362 JUMP JUMPDEST PUSH1 0x40 MLOAD DUP1 SWAP2 SUB SWAP1 RETURN JUMPDEST PUSH3 0x161 PUSH1 0x4 DUP1 CALLDATASIZE SUB DUP2 ADD SWAP1 PUSH3 0x15B SWAP2 SWAP1 PUSH3 0x108D JUMP JUMPDEST PUSH3 0xB48 JUMP JUMPDEST STOP JUMPDEST PUSH1 0x1 DUP2 DUP2 SLOAD DUP2 LT PUSH3 0x174 JUMPI PUSH1 0x0 DUP1 REVERT JUMPDEST SWAP1 PUSH1 0x0 MSTORE PUSH1 0x20 PUSH1 0x0 KECCAK256 ADD PUSH1 0x0 SWAP2 POP SLOAD SWAP1 PUSH2 0x100 EXP SWAP1 DIV PUSH20 0xFFFFFFFFFFFFFFFFFFFFFFFFFFFFFFFFFFFFFFFF AND DUP2 JUMP JUMPDEST PUSH1 0x1 DUP2 PUSH1 0x1 CALLER PUSH3 0x278D00 PUSH1 0x40 MLOAD PUSH3 0x1BB SWAP1 PUSH3 0xEA4 JUMP JUMPDEST PUSH3 0x1CA SWAP5 SWAP4 SWAP3 SWAP2 SWAP1 PUSH3 0x1469 JUMP JUMPDEST PUSH1 0x40 MLOAD DUP1 SWAP2 SUB SWAP1 PUSH1 0x0 CREATE DUP1 ISZERO DUP1 ISZERO PUSH3 0x1E7 JUMPI RETURNDATASIZE PUSH1 0x0 DUP1 RETURNDATACOPY RETURNDATASIZE PUSH1 0x0 REVERT JUMPDEST POP SWAP1 DUP1 PUSH1 0x1 DUP2 SLOAD ADD DUP1 DUP3 SSTORE DUP1 SWAP2 POP POP PUSH1 0x1 SWAP1 SUB SWAP1 PUSH1 0x0 MSTORE PUSH1 0x20 PUSH1 0x0 KECCAK256 ADD PUSH1 0x0 SWAP1 SWAP2 SWAP1 SWAP2 SWAP1 SWAP2 PUSH2 0x100 EXP DUP2 SLOAD DUP2 PUSH20 0xFFFFFFFFFFFFFFFFFFFFFFFFFFFFFFFFFFFFFFFF MUL NOT AND SWAP1 DUP4 PUSH20 0xFFFFFFFFFFFFFFFFFFFFFFFFFFFFFFFFFFFFFFFF AND MUL OR SWAP1 SSTORE POP POP JUMP JUMPDEST PUSH1 0x60 PUSH1 0x0 DUP1 SLOAD DUP1 PUSH1 0x20 MUL PUSH1 0x20 ADD PUSH1 0x40 MLOAD SWAP1 DUP2 ADD PUSH1 0x40 MSTORE DUP1 SWAP3 SWAP2 SWAP1 DUP2 DUP2 MSTORE PUSH1 0x20 ADD PUSH1 0x0 SWAP1 JUMPDEST DUP3 DUP3 LT ISZERO PUSH3 0x4D1 JUMPI DUP4 DUP3 SWAP1 PUSH1 0x0 MSTORE PUSH1 0x20 PUSH1 0x0 KECCAK256 SWAP1 PUSH1 0x5 MUL ADD PUSH1 0x40 MLOAD DUP1 PUSH1 0xA0 ADD PUSH1 0x40 MSTORE SWAP1 DUP2 PUSH1 0x0 DUP3 ADD PUSH1 0x0 SWAP1 SLOAD SWAP1 PUSH2 0x100 EXP SWAP1 DIV PUSH20 0xFFFFFFFFFFFFFFFFFFFFFFFFFFFFFFFFFFFFFFFF AND PUSH20 0xFFFFFFFFFFFFFFFFFFFFFFFFFFFFFFFFFFFFFFFF AND PUSH20 0xFFFFFFFFFFFFFFFFFFFFFFFFFFFFFFFFFFFFFFFF AND DUP2 MSTORE PUSH1 0x20 ADD PUSH1 0x1 DUP3 ADD DUP1 SLOAD PUSH3 0x2FB SWAP1 PUSH3 0x1725 JUMP JUMPDEST DUP1 PUSH1 0x1F ADD PUSH1 0x20 DUP1 SWAP2 DIV MUL PUSH1 0x20 ADD PUSH1 0x40 MLOAD SWAP1 DUP2 ADD PUSH1 0x40 MSTORE DUP1 SWAP3 SWAP2 SWAP1 DUP2 DUP2 MSTORE PUSH1 0x20 ADD DUP3 DUP1 SLOAD PUSH3 0x329 SWAP1 PUSH3 0x1725 JUMP JUMPDEST DUP1 ISZERO PUSH3 0x37A JUMPI DUP1 PUSH1 0x1F LT PUSH3 0x34E JUMPI PUSH2 0x100 DUP1 DUP4 SLOAD DIV MUL DUP4 MSTORE SWAP2 PUSH1 0x20 ADD SWAP2 PUSH3 0x37A JUMP JUMPDEST DUP3 ADD SWAP2 SWAP1 PUSH1 0x0 MSTORE PUSH1 0x20 PUSH1 0x0 KECCAK256 SWAP1 JUMPDEST DUP2 SLOAD DUP2 MSTORE SWAP1 PUSH1 0x1 ADD SWAP1 PUSH1 0x20 ADD DUP1 DUP4 GT PUSH3 0x35C JUMPI DUP3 SWAP1 SUB PUSH1 0x1F AND DUP3 ADD SWAP2 JUMPDEST POP POP POP POP POP DUP2 MSTORE PUSH1 0x20 ADD PUSH1 0x2 DUP3 ADD DUP1 SLOAD PUSH3 0x395 SWAP1 PUSH3 0x1725 JUMP JUMPDEST DUP1 PUSH1 0x1F ADD PUSH1 0x20 DUP1 SWAP2 DIV MUL PUSH1 0x20 ADD PUSH1 0x40 MLOAD SWAP1 DUP2 ADD PUSH1 0x40 MSTORE DUP1 SWAP3 SWAP2 SWAP1 DUP2 DUP2 MSTORE PUSH1 0x20 ADD DUP3 DUP1 SLOAD PUSH3 0x3C3 SWAP1 PUSH3 0x1725 JUMP JUMPDEST DUP1 ISZERO PUSH3 0x414 JUMPI DUP1 PUSH1 0x1F LT PUSH3 0x3E8 JUMPI PUSH2 0x100 DUP1 DUP4 SLOAD DIV MUL DUP4 MSTORE SWAP2 PUSH1 0x20 ADD SWAP2 PUSH3 0x414 JUMP JUMPDEST DUP3 ADD SWAP2 SWAP1 PUSH1 0x0 MSTORE PUSH1 0x20 PUSH1 0x0 KECCAK256 SWAP1 JUMPDEST DUP2 SLOAD DUP2 MSTORE SWAP1 PUSH1 0x1 ADD SWAP1 PUSH1 0x20 ADD DUP1 DUP4 GT PUSH3 0x3F6 JUMPI DUP3 SWAP1 SUB PUSH1 0x1F AND DUP3 ADD SWAP2 JUMPDEST POP POP POP POP POP DUP2 MSTORE PUSH1 0x20 ADD PUSH1 0x3 DUP3 ADD SLOAD DUP2 MSTORE PUSH1 0x20 ADD PUSH1 0x4 DUP3 ADD DUP1 SLOAD PUSH3 0x439 SWAP1 PUSH3 0x1725 JUMP JUMPDEST DUP1 PUSH1 0x1F ADD PUSH1 0x20 DUP1 SWAP2 DIV MUL PUSH1 0x20 ADD PUSH1 0x40 MLOAD SWAP1 DUP2 ADD PUSH1 0x40 MSTORE DUP1 SWAP3 SWAP2 SWAP1 DUP2 DUP2 MSTORE PUSH1 0x20 ADD DUP3 DUP1 SLOAD PUSH3 0x467 SWAP1 PUSH3 0x1725 JUMP JUMPDEST DUP1 ISZERO PUSH3 0x4B8 JUMPI DUP1 PUSH1 0x1F LT PUSH3 0x48C JUMPI PUSH2 0x100 DUP1 DUP4 SLOAD DIV MUL DUP4 MSTORE SWAP2 PUSH1 0x20 ADD SWAP2 PUSH3 0x4B8 JUMP JUMPDEST DUP3 ADD SWAP2 SWAP1 PUSH1 0x0 MSTORE PUSH1 0x20 PUSH1 0x0 KECCAK256 SWAP1 JUMPDEST DUP2 SLOAD DUP2 MSTORE SWAP1 PUSH1 0x1 ADD SWAP1 PUSH1 0x20 ADD DUP1 DUP4 GT PUSH3 0x49A JUMPI DUP3 SWAP1 SUB PUSH1 0x1F AND DUP3 ADD SWAP2 JUMPDEST POP POP POP POP POP DUP2 MSTORE POP POP DUP2 MSTORE PUSH1 0x20 ADD SWAP1 PUSH1 0x1 ADD SWAP1 PUSH3 0x26F JUMP JUMPDEST POP POP POP POP SWAP1 POP SWAP1 JUMP JUMPDEST PUSH1 0x60 PUSH1 0x0 DUP1 JUMPDEST PUSH1 0x0 DUP1 SLOAD SWAP1 POP DUP2 LT ISZERO PUSH3 0x592 JUMPI CALLER PUSH20 0xFFFFFFFFFFFFFFFFFFFFFFFFFFFFFFFFFFFFFFFF AND PUSH1 0x0 DUP3 DUP2 SLOAD DUP2 LT PUSH3 0x51C JUMPI PUSH3 0x51B PUSH3 0x18A4 JUMP JUMPDEST JUMPDEST SWAP1 PUSH1 0x0 MSTORE PUSH1 0x20 PUSH1 0x0 KECCAK256 SWAP1 PUSH1 0x5 MUL ADD PUSH1 0x0 ADD PUSH1 0x0 SWAP1 SLOAD SWAP1 PUSH2 0x100 EXP SWAP1 DIV PUSH20 0xFFFFFFFFFFFFFFFFFFFFFFFFFFFFFFFFFFFFFFFF AND PUSH20 0xFFFFFFFFFFFFFFFFFFFFFFFFFFFFFFFFFFFFFFFF AND EQ ISZERO PUSH3 0x57C JUMPI DUP2 DUP1 PUSH3 0x578 SWAP1 PUSH3 0x1791 JUMP JUMPDEST SWAP3 POP POP JUMPDEST DUP1 DUP1 PUSH3 0x589 SWAP1 PUSH3 0x1791 JUMP JUMPDEST SWAP2 POP POP PUSH3 0x4E0 JUMP JUMPDEST POP PUSH1 0x0 DUP2 PUSH8 0xFFFFFFFFFFFFFFFF DUP2 GT ISZERO PUSH3 0x5B2 JUMPI PUSH3 0x5B1 PUSH3 0x18D3 JUMP JUMPDEST JUMPDEST PUSH1 0x40 MLOAD SWAP1 DUP1 DUP3 MSTORE DUP1 PUSH1 0x20 MUL PUSH1 0x20 ADD DUP3 ADD PUSH1 0x40 MSTORE DUP1 ISZERO PUSH3 0x5EF JUMPI DUP2 PUSH1 0x20 ADD JUMPDEST PUSH3 0x5DB PUSH3 0xEB2 JUMP JUMPDEST DUP2 MSTORE PUSH1 0x20 ADD SWAP1 PUSH1 0x1 SWAP1 SUB SWAP1 DUP2 PUSH3 0x5D1 JUMPI SWAP1 POP JUMPDEST POP SWAP1 POP PUSH1 0x0 DUP1 JUMPDEST PUSH1 0x0 DUP1 SLOAD SWAP1 POP DUP2 LT ISZERO PUSH3 0x927 JUMPI CALLER PUSH20 0xFFFFFFFFFFFFFFFFFFFFFFFFFFFFFFFFFFFFFFFF AND PUSH1 0x0 DUP3 DUP2 SLOAD DUP2 LT PUSH3 0x632 JUMPI PUSH3 0x631 PUSH3 0x18A4 JUMP JUMPDEST JUMPDEST SWAP1 PUSH1 0x0 MSTORE PUSH1 0x20 PUSH1 0x0 KECCAK256 SWAP1 PUSH1 0x5 MUL ADD PUSH1 0x0 ADD PUSH1 0x0 SWAP1 SLOAD SWAP1 PUSH2 0x100 EXP SWAP1 DIV PUSH20 0xFFFFFFFFFFFFFFFFFFFFFFFFFFFFFFFFFFFFFFFF AND PUSH20 0xFFFFFFFFFFFFFFFFFFFFFFFFFFFFFFFFFFFFFFFF AND EQ ISZERO PUSH3 0x911 JUMPI PUSH1 0x0 DUP2 DUP2 SLOAD DUP2 LT PUSH3 0x698 JUMPI PUSH3 0x697 PUSH3 0x18A4 JUMP JUMPDEST JUMPDEST SWAP1 PUSH1 0x0 MSTORE PUSH1 0x20 PUSH1 0x0 KECCAK256 SWAP1 PUSH1 0x5 MUL ADD PUSH1 0x40 MLOAD DUP1 PUSH1 0xA0 ADD PUSH1 0x40 MSTORE SWAP1 DUP2 PUSH1 0x0 DUP3 ADD PUSH1 0x0 SWAP1 SLOAD SWAP1 PUSH2 0x100 EXP SWAP1 DIV PUSH20 0xFFFFFFFFFFFFFFFFFFFFFFFFFFFFFFFFFFFFFFFF AND PUSH20 0xFFFFFFFFFFFFFFFFFFFFFFFFFFFFFFFFFFFFFFFF AND PUSH20 0xFFFFFFFFFFFFFFFFFFFFFFFFFFFFFFFFFFFFFFFF AND DUP2 MSTORE PUSH1 0x20 ADD PUSH1 0x1 DUP3 ADD DUP1 SLOAD PUSH3 0x719 SWAP1 PUSH3 0x1725 JUMP JUMPDEST DUP1 PUSH1 0x1F ADD PUSH1 0x20 DUP1 SWAP2 DIV MUL PUSH1 0x20 ADD PUSH1 0x40 MLOAD SWAP1 DUP2 ADD PUSH1 0x40 MSTORE DUP1 SWAP3 SWAP2 SWAP1 DUP2 DUP2 MSTORE PUSH1 0x20 ADD DUP3 DUP1 SLOAD PUSH3 0x747 SWAP1 PUSH3 0x1725 JUMP JUMPDEST DUP1 ISZERO PUSH3 0x798 JUMPI DUP1 PUSH1 0x1F LT PUSH3 0x76C JUMPI PUSH2 0x100 DUP1 DUP4 SLOAD DIV MUL DUP4 MSTORE SWAP2 PUSH1 0x20 ADD SWAP2 PUSH3 0x798 JUMP JUMPDEST DUP3 ADD SWAP2 SWAP1 PUSH1 0x0 MSTORE PUSH1 0x20 PUSH1 0x0 KECCAK256 SWAP1 JUMPDEST DUP2 SLOAD DUP2 MSTORE SWAP1 PUSH1 0x1 ADD SWAP1 PUSH1 0x20 ADD DUP1 DUP4 GT PUSH3 0x77A JUMPI DUP3 SWAP1 SUB PUSH1 0x1F AND DUP3 ADD SWAP2 JUMPDEST POP POP POP POP POP DUP2 MSTORE PUSH1 0x20 ADD PUSH1 0x2 DUP3 ADD DUP1 SLOAD PUSH3 0x7B3 SWAP1 PUSH3 0x1725 JUMP JUMPDEST DUP1 PUSH1 0x1F ADD PUSH1 0x20 DUP1 SWAP2 DIV MUL PUSH1 0x20 ADD PUSH1 0x40 MLOAD SWAP1 DUP2 ADD PUSH1 0x40 MSTORE DUP1 SWAP3 SWAP2 SWAP1 DUP2 DUP2 MSTORE PUSH1 0x20 ADD DUP3 DUP1 SLOAD PUSH3 0x7E1 SWAP1 PUSH3 0x1725 JUMP JUMPDEST DUP1 ISZERO PUSH3 0x832 JUMPI DUP1 PUSH1 0x1F LT PUSH3 0x806 JUMPI PUSH2 0x100 DUP1 DUP4 SLOAD DIV MUL DUP4 MSTORE SWAP2 PUSH1 0x20 ADD SWAP2 PUSH3 0x832 JUMP JUMPDEST DUP3 ADD SWAP2 SWAP1 PUSH1 0x0 MSTORE PUSH1 0x20 PUSH1 0x0 KECCAK256 SWAP1 JUMPDEST DUP2 SLOAD DUP2 MSTORE SWAP1 PUSH1 0x1 ADD SWAP1 PUSH1 0x20 ADD DUP1 DUP4 GT PUSH3 0x814 JUMPI DUP3 SWAP1 SUB PUSH1 0x1F AND DUP3 ADD SWAP2 JUMPDEST POP POP POP POP POP DUP2 MSTORE PUSH1 0x20 ADD PUSH1 0x3 DUP3 ADD SLOAD DUP2 MSTORE PUSH1 0x20 ADD PUSH1 0x4 DUP3 ADD DUP1 SLOAD PUSH3 0x857 SWAP1 PUSH3 0x1725 JUMP JUMPDEST DUP1 PUSH1 0x1F ADD PUSH1 0x20 DUP1 SWAP2 DIV MUL PUSH1 0x20 ADD PUSH1 0x40 MLOAD SWAP1 DUP2 ADD PUSH1 0x40 MSTORE DUP1 SWAP3 SWAP2 SWAP1 DUP2 DUP2 MSTORE PUSH1 0x20 ADD DUP3 DUP1 SLOAD PUSH3 0x885 SWAP1 PUSH3 0x1725 JUMP JUMPDEST DUP1 ISZERO PUSH3 0x8D6 JUMPI DUP1 PUSH1 0x1F LT PUSH3 0x8AA JUMPI PUSH2 0x100 DUP1 DUP4 SLOAD DIV MUL DUP4 MSTORE SWAP2 PUSH1 0x20 ADD SWAP2 PUSH3 0x8D6 JUMP JUMPDEST DUP3 ADD SWAP2 SWAP1 PUSH1 0x0 MSTORE PUSH1 0x20 PUSH1 0x0 KECCAK256 SWAP1 JUMPDEST DUP2 SLOAD DUP2 MSTORE SWAP1 PUSH1 0x1 ADD SWAP1 PUSH1 0x20 ADD DUP1 DUP4 GT PUSH3 0x8B8 JUMPI DUP3 SWAP1 SUB PUSH1 0x1F AND DUP3 ADD SWAP2 JUMPDEST POP POP POP POP POP DUP2 MSTORE POP POP DUP4 DUP4 DUP2 MLOAD DUP2 LT PUSH3 0x8F5 JUMPI PUSH3 0x8F4 PUSH3 0x18A4 JUMP JUMPDEST JUMPDEST PUSH1 0x20 MUL PUSH1 0x20 ADD ADD DUP2 SWAP1 MSTORE POP DUP2 DUP1 PUSH3 0x90D SWAP1 PUSH3 0x1791 JUMP JUMPDEST SWAP3 POP POP JUMPDEST DUP1 DUP1 PUSH3 0x91E SWAP1 PUSH3 0x1791 JUMP JUMPDEST SWAP2 POP POP PUSH3 0x5F6 JUMP JUMPDEST POP DUP2 SWAP4 POP POP POP POP SWAP1 JUMP JUMPDEST PUSH1 0x0 DUP2 DUP2 SLOAD DUP2 LT PUSH3 0x942 JUMPI PUSH1 0x0 DUP1 REVERT JUMPDEST SWAP1 PUSH1 0x0 MSTORE PUSH1 0x20 PUSH1 0x0 KECCAK256 SWAP1 PUSH1 0x5 MUL ADD PUSH1 0x0 SWAP2 POP SWAP1 POP DUP1 PUSH1 0x0 ADD PUSH1 0x0 SWAP1 SLOAD SWAP1 PUSH2 0x100 EXP SWAP1 DIV PUSH20 0xFFFFFFFFFFFFFFFFFFFFFFFFFFFFFFFFFFFFFFFF AND SWAP1 DUP1 PUSH1 0x1 ADD DUP1 SLOAD PUSH3 0x98D SWAP1 PUSH3 0x1725 JUMP JUMPDEST DUP1 PUSH1 0x1F ADD PUSH1 0x20 DUP1 SWAP2 DIV MUL PUSH1 0x20 ADD PUSH1 0x40 MLOAD SWAP1 DUP2 ADD PUSH1 0x40 MSTORE DUP1 SWAP3 SWAP2 SWAP1 DUP2 DUP2 MSTORE PUSH1 0x20 ADD DUP3 DUP1 SLOAD PUSH3 0x9BB SWAP1 PUSH3 0x1725 JUMP JUMPDEST DUP1 ISZERO PUSH3 0xA0C JUMPI DUP1 PUSH1 0x1F LT PUSH3 0x9E0 JUMPI PUSH2 0x100 DUP1 DUP4 SLOAD DIV MUL DUP4 MSTORE SWAP2 PUSH1 0x20 ADD SWAP2 PUSH3 0xA0C JUMP JUMPDEST DUP3 ADD SWAP2 SWAP1 PUSH1 0x0 MSTORE PUSH1 0x20 PUSH1 0x0 KECCAK256 SWAP1 JUMPDEST DUP2 SLOAD DUP2 MSTORE SWAP1 PUSH1 0x1 ADD SWAP1 PUSH1 0x20 ADD DUP1 DUP4 GT PUSH3 0x9EE JUMPI DUP3 SWAP1 SUB PUSH1 0x1F AND DUP3 ADD SWAP2 JUMPDEST POP POP POP POP POP SWAP1 DUP1 PUSH1 0x2 ADD DUP1 SLOAD PUSH3 0xA23 SWAP1 PUSH3 0x1725 JUMP JUMPDEST DUP1 PUSH1 0x1F ADD PUSH1 0x20 DUP1 SWAP2 DIV MUL PUSH1 0x20 ADD PUSH1 0x40 MLOAD SWAP1 DUP2 ADD PUSH1 0x40 MSTORE DUP1 SWAP3 SWAP2 SWAP1 DUP2 DUP2 MSTORE PUSH1 0x20 ADD DUP3 DUP1 SLOAD PUSH3 0xA51 SWAP1 PUSH3 0x1725 JUMP JUMPDEST DUP1 ISZERO PUSH3 0xAA2 JUMPI DUP1 PUSH1 0x1F LT PUSH3 0xA76 JUMPI PUSH2 0x100 DUP1 DUP4 SLOAD DIV MUL DUP4 MSTORE SWAP2 PUSH1 0x20 ADD SWAP2 PUSH3 0xAA2 JUMP JUMPDEST DUP3 ADD SWAP2 SWAP1 PUSH1 0x0 MSTORE PUSH1 0x20 PUSH1 0x0 KECCAK256 SWAP1 JUMPDEST DUP2 SLOAD DUP2 MSTORE SWAP1 PUSH1 0x1 ADD SWAP1 PUSH1 0x20 ADD DUP1 DUP4 GT PUSH3 0xA84 JUMPI DUP3 SWAP1 SUB PUSH1 0x1F AND DUP3 ADD SWAP2 JUMPDEST POP POP POP POP POP SWAP1 DUP1 PUSH1 0x3 ADD SLOAD SWAP1 DUP1 PUSH1 0x4 ADD DUP1 SLOAD PUSH3 0xABF SWAP1 PUSH3 0x1725 JUMP JUMPDEST DUP1 PUSH1 0x1F ADD PUSH1 0x20 DUP1 SWAP2 DIV MUL PUSH1 0x20 ADD PUSH1 0x40 MLOAD SWAP1 DUP2 ADD PUSH1 0x40 MSTORE DUP1 SWAP3 SWAP2 SWAP1 DUP2 DUP2 MSTORE PUSH1 0x20 ADD DUP3 DUP1 SLOAD PUSH3 0xAED SWAP1 PUSH3 0x1725 JUMP JUMPDEST DUP1 ISZERO PUSH3 0xB3E JUMPI DUP1 PUSH1 0x1F LT PUSH3 0xB12 JUMPI PUSH2 0x100 DUP1 DUP4 SLOAD DIV MUL DUP4 MSTORE SWAP2 PUSH1 0x20 ADD SWAP2 PUSH3 0xB3E JUMP JUMPDEST DUP3 ADD SWAP2 SWAP1 PUSH1 0x0 MSTORE PUSH1 0x20 PUSH1 0x0 KECCAK256 SWAP1 JUMPDEST DUP2 SLOAD DUP2 MSTORE SWAP1 PUSH1 0x1 ADD SWAP1 PUSH1 0x20 ADD DUP1 DUP4 GT PUSH3 0xB20 JUMPI DUP3 SWAP1 SUB PUSH1 0x1F AND DUP3 ADD SWAP2 JUMPDEST POP POP POP POP POP SWAP1 POP DUP6 JUMP JUMPDEST PUSH1 0x0 PUSH3 0xB68 PUSH1 0x1 PUSH1 0x0 DUP1 SLOAD SWAP1 POP PUSH3 0xB62 SWAP2 SWAP1 PUSH3 0x1582 JUMP JUMPDEST PUSH3 0xD2A JUMP JUMPDEST SWAP1 POP PUSH1 0x0 PUSH1 0x40 MLOAD DUP1 PUSH1 0xA0 ADD PUSH1 0x40 MSTORE DUP1 CALLER PUSH20 0xFFFFFFFFFFFFFFFFFFFFFFFFFFFFFFFFFFFFFFFF AND DUP2 MSTORE PUSH1 0x20 ADD DUP6 DUP2 MSTORE PUSH1 0x20 ADD DUP5 DUP2 MSTORE PUSH1 0x20 ADD TIMESTAMP DUP2 MSTORE PUSH1 0x20 ADD DUP4 DUP2 MSTORE POP SWAP1 DUP1 PUSH1 0x1 DUP2 SLOAD ADD DUP1 DUP3 SSTORE DUP1 SWAP2 POP POP PUSH1 0x1 SWAP1 SUB SWAP1 PUSH1 0x0 MSTORE PUSH1 0x20 PUSH1 0x0 KECCAK256 SWAP1 PUSH1 0x5 MUL ADD PUSH1 0x0 SWAP1 SWAP2 SWAP1 SWAP2 SWAP1 SWAP2 POP PUSH1 0x0 DUP3 ADD MLOAD DUP2 PUSH1 0x0 ADD PUSH1 0x0 PUSH2 0x100 EXP DUP2 SLOAD DUP2 PUSH20 0xFFFFFFFFFFFFFFFFFFFFFFFFFFFFFFFFFFFFFFFF MUL NOT AND SWAP1 DUP4 PUSH20 0xFFFFFFFFFFFFFFFFFFFFFFFFFFFFFFFFFFFFFFFF AND MUL OR SWAP1 SSTORE POP PUSH1 0x20 DUP3 ADD MLOAD DUP2 PUSH1 0x1 ADD SWAP1 DUP1 MLOAD SWAP1 PUSH1 0x20 ADD SWAP1 PUSH3 0xC37 SWAP3 SWAP2 SWAP1 PUSH3 0xEF7 JUMP JUMPDEST POP PUSH1 0x40 DUP3 ADD MLOAD DUP2 PUSH1 0x2 ADD SWAP1 DUP1 MLOAD SWAP1 PUSH1 0x20 ADD SWAP1 PUSH3 0xC56 SWAP3 SWAP2 SWAP1 PUSH3 0xEF7 JUMP JUMPDEST POP PUSH1 0x60 DUP3 ADD MLOAD DUP2 PUSH1 0x3 ADD SSTORE PUSH1 0x80 DUP3 ADD MLOAD DUP2 PUSH1 0x4 ADD SWAP1 DUP1 MLOAD SWAP1 PUSH1 0x20 ADD SWAP1 PUSH3 0xC7F SWAP3 SWAP2 SWAP1 PUSH3 0xEF7 JUMP JUMPDEST POP POP POP PUSH1 0x1 DUP2 PUSH1 0x1 CALLER PUSH1 0x0 PUSH1 0x40 MLOAD PUSH3 0xC98 SWAP1 PUSH3 0xEA4 JUMP JUMPDEST PUSH3 0xCA7 SWAP5 SWAP4 SWAP3 SWAP2 SWAP1 PUSH3 0x1415 JUMP JUMPDEST PUSH1 0x40 MLOAD DUP1 SWAP2 SUB SWAP1 PUSH1 0x0 CREATE DUP1 ISZERO DUP1 ISZERO PUSH3 0xCC4 JUMPI RETURNDATASIZE PUSH1 0x0 DUP1 RETURNDATACOPY RETURNDATASIZE PUSH1 0x0 REVERT JUMPDEST POP SWAP1 DUP1 PUSH1 0x1 DUP2 SLOAD ADD DUP1 DUP3 SSTORE DUP1 SWAP2 POP POP PUSH1 0x1 SWAP1 SUB SWAP1 PUSH1 0x0 MSTORE PUSH1 0x20 PUSH1 0x0 KECCAK256 ADD PUSH1 0x0 SWAP1 SWAP2 SWAP1 SWAP2 SWAP1 SWAP2 PUSH2 0x100 EXP DUP2 SLOAD DUP2 PUSH20 0xFFFFFFFFFFFFFFFFFFFFFFFFFFFFFFFFFFFFFFFF MUL NOT AND SWAP1 DUP4 PUSH20 0xFFFFFFFFFFFFFFFFFFFFFFFFFFFFFFFFFFFFFFFF AND MUL OR SWAP1 SSTORE POP POP POP POP JUMP JUMPDEST PUSH1 0x60 PUSH1 0x0 DUP3 EQ ISZERO PUSH3 0xD74 JUMPI PUSH1 0x40 MLOAD DUP1 PUSH1 0x40 ADD PUSH1 0x40 MSTORE DUP1 PUSH1 0x1 DUP2 MSTORE PUSH1 0x20 ADD PUSH32 0x3000000000000000000000000000000000000000000000000000000000000000 DUP2 MSTORE POP SWAP1 POP PUSH3 0xE9F JUMP JUMPDEST PUSH1 0x0 DUP3 SWAP1 POP PUSH1 0x0 JUMPDEST PUSH1 0x0 DUP3 EQ PUSH3 0xDAC JUMPI DUP1 DUP1 PUSH3 0xD92 SWAP1 PUSH3 0x1791 JUMP JUMPDEST SWAP2 POP POP PUSH1 0xA DUP3 PUSH3 0xDA4 SWAP2 SWAP1 PUSH3 0x15DF JUMP JUMPDEST SWAP2 POP PUSH3 0xD7C JUMP JUMPDEST PUSH1 0x0 DUP2 PUSH8 0xFFFFFFFFFFFFFFFF DUP2 GT ISZERO PUSH3 0xDCB JUMPI PUSH3 0xDCA PUSH3 0x18D3 JUMP JUMPDEST JUMPDEST PUSH1 0x40 MLOAD SWAP1 DUP1 DUP3 MSTORE DUP1 PUSH1 0x1F ADD PUSH1 0x1F NOT AND PUSH1 0x20 ADD DUP3 ADD PUSH1 0x40 MSTORE DUP1 ISZERO PUSH3 0xDFE JUMPI DUP2 PUSH1 0x20 ADD PUSH1 0x1 DUP3 MUL DUP1 CALLDATASIZE DUP4 CALLDATACOPY DUP1 DUP3 ADD SWAP2 POP POP SWAP1 POP JUMPDEST POP SWAP1 POP JUMPDEST PUSH1 0x0 DUP6 EQ PUSH3 0xE98 JUMPI PUSH1 0x1 DUP3 PUSH3 0xE1A SWAP2 SWAP1 PUSH3 0x1617 JUMP JUMPDEST SWAP2 POP PUSH1 0xA DUP6 PUSH3 0xE2B SWAP2 SWAP1 PUSH3 0x17DF JUMP JUMPDEST PUSH1 0x30 PUSH3 0xE39 SWAP2 SWAP1 PUSH3 0x1582 JUMP JUMPDEST PUSH1 0xF8 SHL DUP2 DUP4 DUP2 MLOAD DUP2 LT PUSH3 0xE52 JUMPI PUSH3 0xE51 PUSH3 0x18A4 JUMP JUMPDEST JUMPDEST PUSH1 0x20 ADD ADD SWAP1 PUSH31 0xFFFFFFFFFFFFFFFFFFFFFFFFFFFFFFFFFFFFFFFFFFFFFFFFFFFFFFFFFFFFFF NOT AND SWAP1 DUP2 PUSH1 0x0 BYTE SWAP1 MSTORE8 POP PUSH1 0xA DUP6 PUSH3 0xE90 SWAP2 SWAP1 PUSH3 0x15DF JUMP JUMPDEST SWAP5 POP PUSH3 0xE02 JUMP JUMPDEST DUP1 SWAP4 POP POP POP POP JUMPDEST SWAP2 SWAP1 POP JUMP JUMPDEST PUSH2 0x941 DUP1 PUSH3 0x1942 DUP4 CODECOPY ADD SWAP1 JUMP JUMPDEST PUSH1 0x40 MLOAD DUP1 PUSH1 0xA0 ADD PUSH1 0x40 MSTORE DUP1 PUSH1 0x0 PUSH20 0xFFFFFFFFFFFFFFFFFFFFFFFFFFFFFFFFFFFFFFFF AND DUP2 MSTORE PUSH1 0x20 ADD PUSH1 0x60 DUP2 MSTORE PUSH1 0x20 ADD PUSH1 0x60 DUP2 MSTORE PUSH1 0x20 ADD PUSH1 0x0 DUP2 MSTORE PUSH1 0x20 ADD PUSH1 0x60 DUP2 MSTORE POP SWAP1 JUMP JUMPDEST DUP3 DUP1 SLOAD PUSH3 0xF05 SWAP1 PUSH3 0x1725 JUMP JUMPDEST SWAP1 PUSH1 0x0 MSTORE PUSH1 0x20 PUSH1 0x0 KECCAK256 SWAP1 PUSH1 0x1F ADD PUSH1 0x20 SWAP1 DIV DUP2 ADD SWAP3 DUP3 PUSH3 0xF29 JUMPI PUSH1 0x0 DUP6 SSTORE PUSH3 0xF75 JUMP JUMPDEST DUP3 PUSH1 0x1F LT PUSH3 0xF44 JUMPI DUP1 MLOAD PUSH1 0xFF NOT AND DUP4 DUP1 ADD OR DUP6 SSTORE PUSH3 0xF75 JUMP JUMPDEST DUP3 DUP1 ADD PUSH1 0x1 ADD DUP6 SSTORE DUP3 ISZERO PUSH3 0xF75 JUMPI SWAP2 DUP3 ADD JUMPDEST DUP3 DUP2 GT ISZERO PUSH3 0xF74 JUMPI DUP3 MLOAD DUP3 SSTORE SWAP2 PUSH1 0x20 ADD SWAP2 SWAP1 PUSH1 0x1 ADD SWAP1 PUSH3 0xF57 JUMP JUMPDEST JUMPDEST POP SWAP1 POP PUSH3 0xF84 SWAP2 SWAP1 PUSH3 0xF88 JUMP JUMPDEST POP SWAP1 JUMP JUMPDEST JUMPDEST DUP1 DUP3 GT ISZERO PUSH3 0xFA3 JUMPI PUSH1 0x0 DUP2 PUSH1 0x0 SWAP1 SSTORE POP PUSH1 0x1 ADD PUSH3 0xF89 JUMP JUMPDEST POP SWAP1 JUMP JUMPDEST PUSH1 0x0 PUSH3 0xFBE PUSH3 0xFB8 DUP5 PUSH3 0x14E6 JUMP JUMPDEST PUSH3 0x14BD JUMP JUMPDEST SWAP1 POP DUP3 DUP2 MSTORE PUSH1 0x20 DUP2 ADD DUP5 DUP5 DUP5 ADD GT ISZERO PUSH3 0xFDD JUMPI PUSH3 0xFDC PUSH3 0x1907 JUMP JUMPDEST JUMPDEST PUSH3 0xFEA DUP5 DUP3 DUP6 PUSH3 0x16E0 JUMP JUMPDEST POP SWAP4 SWAP3 POP POP POP JUMP JUMPDEST PUSH1 0x0 DUP3 PUSH1 0x1F DUP4 ADD SLT PUSH3 0x100A JUMPI PUSH3 0x1009 PUSH3 0x1902 JUMP JUMPDEST JUMPDEST DUP2 CALLDATALOAD PUSH3 0x101C DUP5 DUP3 PUSH1 0x20 DUP7 ADD PUSH3 0xFA7 JUMP JUMPDEST SWAP2 POP POP SWAP3 SWAP2 POP POP JUMP JUMPDEST PUSH1 0x0 DUP2 CALLDATALOAD SWAP1 POP PUSH3 0x1036 DUP2 PUSH3 0x1927 JUMP JUMPDEST SWAP3 SWAP2 POP POP JUMP JUMPDEST PUSH1 0x0 PUSH1 0x20 DUP3 DUP5 SUB SLT ISZERO PUSH3 0x1055 JUMPI PUSH3 0x1054 PUSH3 0x1911 JUMP JUMPDEST JUMPDEST PUSH1 0x0 DUP3 ADD CALLDATALOAD PUSH8 0xFFFFFFFFFFFFFFFF DUP2 GT ISZERO PUSH3 0x1076 JUMPI PUSH3 0x1075 PUSH3 0x190C JUMP JUMPDEST JUMPDEST PUSH3 0x1084 DUP5 DUP3 DUP6 ADD PUSH3 0xFF2 JUMP JUMPDEST SWAP2 POP POP SWAP3 SWAP2 POP POP JUMP JUMPDEST PUSH1 0x0 DUP1 PUSH1 0x40 DUP4 DUP6 SUB SLT ISZERO PUSH3 0x10A7 JUMPI PUSH3 0x10A6 PUSH3 0x1911 JUMP JUMPDEST JUMPDEST PUSH1 0x0 DUP4 ADD CALLDATALOAD PUSH8 0xFFFFFFFFFFFFFFFF DUP2 GT ISZERO PUSH3 0x10C8 JUMPI PUSH3 0x10C7 PUSH3 0x190C JUMP JUMPDEST JUMPDEST PUSH3 0x10D6 DUP6 DUP3 DUP7 ADD PUSH3 0xFF2 JUMP JUMPDEST SWAP3 POP POP PUSH1 0x20 DUP4 ADD CALLDATALOAD PUSH8 0xFFFFFFFFFFFFFFFF DUP2 GT ISZERO PUSH3 0x10FA JUMPI PUSH3 0x10F9 PUSH3 0x190C JUMP JUMPDEST JUMPDEST PUSH3 0x1108 DUP6 DUP3 DUP7 ADD PUSH3 0xFF2 JUMP JUMPDEST SWAP2 POP POP SWAP3 POP SWAP3 SWAP1 POP JUMP JUMPDEST PUSH1 0x0 PUSH1 0x20 DUP3 DUP5 SUB SLT ISZERO PUSH3 0x112B JUMPI PUSH3 0x112A PUSH3 0x1911 JUMP JUMPDEST JUMPDEST PUSH1 0x0 PUSH3 0x113B DUP5 DUP3 DUP6 ADD PUSH3 0x1025 JUMP JUMPDEST SWAP2 POP POP SWAP3 SWAP2 POP POP JUMP JUMPDEST PUSH1 0x0 PUSH3 0x1152 DUP4 DUP4 PUSH3 0x12B2 JUMP JUMPDEST SWAP1 POP SWAP3 SWAP2 POP POP JUMP JUMPDEST PUSH3 0x1165 DUP2 PUSH3 0x1652 JUMP JUMPDEST DUP3 MSTORE POP POP JUMP JUMPDEST PUSH3 0x1176 DUP2 PUSH3 0x1652 JUMP JUMPDEST DUP3 MSTORE POP POP JUMP JUMPDEST PUSH1 0x0 PUSH3 0x1189 DUP3 PUSH3 0x152C JUMP JUMPDEST PUSH3 0x1195 DUP2 DUP6 PUSH3 0x154F JUMP JUMPDEST SWAP4 POP DUP4 PUSH1 0x20 DUP3 MUL DUP6 ADD PUSH3 0x11A9 DUP6 PUSH3 0x151C JUMP JUMPDEST DUP1 PUSH1 0x0 JUMPDEST DUP6 DUP2 LT ISZERO PUSH3 0x11EB JUMPI DUP5 DUP5 SUB DUP10 MSTORE DUP2 MLOAD PUSH3 0x11C9 DUP6 DUP3 PUSH3 0x1144 JUMP JUMPDEST SWAP5 POP PUSH3 0x11D6 DUP4 PUSH3 0x1542 JUMP JUMPDEST SWAP3 POP PUSH1 0x20 DUP11 ADD SWAP10 POP POP PUSH1 0x1 DUP2 ADD SWAP1 POP PUSH3 0x11AD JUMP JUMPDEST POP DUP3 SWAP8 POP DUP8 SWAP6 POP POP POP POP POP POP SWAP3 SWAP2 POP POP JUMP JUMPDEST PUSH3 0x1208 DUP2 PUSH3 0x1690 JUMP JUMPDEST DUP3 MSTORE POP POP JUMP JUMPDEST PUSH3 0x1219 DUP2 PUSH3 0x16B8 JUMP JUMPDEST DUP3 MSTORE POP POP JUMP JUMPDEST PUSH3 0x122A DUP2 PUSH3 0x16CC JUMP JUMPDEST DUP3 MSTORE POP POP JUMP JUMPDEST PUSH1 0x0 PUSH3 0x123D DUP3 PUSH3 0x1537 JUMP JUMPDEST PUSH3 0x1249 DUP2 DUP6 PUSH3 0x1560 JUMP JUMPDEST SWAP4 POP PUSH3 0x125B DUP2 DUP6 PUSH1 0x20 DUP7 ADD PUSH3 0x16EF JUMP JUMPDEST PUSH3 0x1266 DUP2 PUSH3 0x1916 JUMP JUMPDEST DUP5 ADD SWAP2 POP POP SWAP3 SWAP2 POP POP JUMP JUMPDEST PUSH1 0x0 PUSH3 0x127E DUP3 PUSH3 0x1537 JUMP JUMPDEST PUSH3 0x128A DUP2 DUP6 PUSH3 0x1571 JUMP JUMPDEST SWAP4 POP PUSH3 0x129C DUP2 DUP6 PUSH1 0x20 DUP7 ADD PUSH3 0x16EF JUMP JUMPDEST PUSH3 0x12A7 DUP2 PUSH3 0x1916 JUMP JUMPDEST DUP5 ADD SWAP2 POP POP SWAP3 SWAP2 POP POP JUMP JUMPDEST PUSH1 0x0 PUSH1 0xA0 DUP4 ADD PUSH1 0x0 DUP4 ADD MLOAD PUSH3 0x12CC PUSH1 0x0 DUP7 ADD DUP3 PUSH3 0x115A JUMP JUMPDEST POP PUSH1 0x20 DUP4 ADD MLOAD DUP5 DUP3 SUB PUSH1 0x20 DUP7 ADD MSTORE PUSH3 0x12E6 DUP3 DUP3 PUSH3 0x1230 JUMP JUMPDEST SWAP2 POP POP PUSH1 0x40 DUP4 ADD MLOAD DUP5 DUP3 SUB PUSH1 0x40 DUP7 ADD MSTORE PUSH3 0x1302 DUP3 DUP3 PUSH3 0x1230 JUMP JUMPDEST SWAP2 POP POP PUSH1 0x60 DUP4 ADD MLOAD PUSH3 0x1319 PUSH1 0x60 DUP7 ADD DUP3 PUSH3 0x1340 JUMP JUMPDEST POP PUSH1 0x80 DUP4 ADD MLOAD DUP5 DUP3 SUB PUSH1 0x80 DUP7 ADD MSTORE PUSH3 0x1333 DUP3 DUP3 PUSH3 0x1230 JUMP JUMPDEST SWAP2 POP POP DUP1 SWAP2 POP POP SWAP3 SWAP2 POP POP JUMP JUMPDEST PUSH3 0x134B DUP2 PUSH3 0x1686 JUMP JUMPDEST DUP3 MSTORE POP POP JUMP JUMPDEST PUSH3 0x135C DUP2 PUSH3 0x1686 JUMP JUMPDEST DUP3 MSTORE POP POP JUMP JUMPDEST PUSH1 0x0 PUSH1 0xA0 DUP3 ADD SWAP1 POP PUSH3 0x1379 PUSH1 0x0 DUP4 ADD DUP9 PUSH3 0x116B JUMP JUMPDEST DUP2 DUP2 SUB PUSH1 0x20 DUP4 ADD MSTORE PUSH3 0x138D DUP2 DUP8 PUSH3 0x1271 JUMP JUMPDEST SWAP1 POP DUP2 DUP2 SUB PUSH1 0x40 DUP4 ADD MSTORE PUSH3 0x13A3 DUP2 DUP7 PUSH3 0x1271 JUMP JUMPDEST SWAP1 POP PUSH3 0x13B4 PUSH1 0x60 DUP4 ADD DUP6 PUSH3 0x1351 JUMP JUMPDEST DUP2 DUP2 SUB PUSH1 0x80 DUP4 ADD MSTORE PUSH3 0x13C8 DUP2 DUP5 PUSH3 0x1271 JUMP JUMPDEST SWAP1 POP SWAP7 SWAP6 POP POP POP POP POP POP JUMP JUMPDEST PUSH1 0x0 PUSH1 0x20 DUP3 ADD SWAP1 POP DUP2 DUP2 SUB PUSH1 0x0 DUP4 ADD MSTORE PUSH3 0x13F0 DUP2 DUP5 PUSH3 0x117C JUMP JUMPDEST SWAP1 POP SWAP3 SWAP2 POP POP JUMP JUMPDEST PUSH1 0x0 PUSH1 0x20 DUP3 ADD SWAP1 POP PUSH3 0x140F PUSH1 0x0 DUP4 ADD DUP5 PUSH3 0x11FD JUMP JUMPDEST SWAP3 SWAP2 POP POP JUMP JUMPDEST PUSH1 0x0 PUSH1 0x80 DUP3 ADD SWAP1 POP DUP2 DUP2 SUB PUSH1 0x0 DUP4 ADD MSTORE PUSH3 0x1431 DUP2 DUP8 PUSH3 0x1271 JUMP JUMPDEST SWAP1 POP PUSH3 0x1442 PUSH1 0x20 DUP4 ADD DUP7 PUSH3 0x121F JUMP JUMPDEST PUSH3 0x1451 PUSH1 0x40 DUP4 ADD DUP6 PUSH3 0x116B JUMP JUMPDEST PUSH3 0x1460 PUSH1 0x60 DUP4 ADD DUP5 PUSH3 0x120E JUMP JUMPDEST SWAP6 SWAP5 POP POP POP POP POP JUMP JUMPDEST PUSH1 0x0 PUSH1 0x80 DUP3 ADD SWAP1 POP DUP2 DUP2 SUB PUSH1 0x0 DUP4 ADD MSTORE PUSH3 0x1485 DUP2 DUP8 PUSH3 0x1271 JUMP JUMPDEST SWAP1 POP PUSH3 0x1496 PUSH1 0x20 DUP4 ADD DUP7 PUSH3 0x121F JUMP JUMPDEST PUSH3 0x14A5 PUSH1 0x40 DUP4 ADD DUP6 PUSH3 0x116B JUMP JUMPDEST PUSH3 0x14B4 PUSH1 0x60 DUP4 ADD DUP5 PUSH3 0x1351 JUMP JUMPDEST SWAP6 SWAP5 POP POP POP POP POP JUMP JUMPDEST PUSH1 0x0 PUSH3 0x14C9 PUSH3 0x14DC JUMP JUMPDEST SWAP1 POP PUSH3 0x14D7 DUP3 DUP3 PUSH3 0x175B JUMP JUMPDEST SWAP2 SWAP1 POP JUMP JUMPDEST PUSH1 0x0 PUSH1 0x40 MLOAD SWAP1 POP SWAP1 JUMP JUMPDEST PUSH1 0x0 PUSH8 0xFFFFFFFFFFFFFFFF DUP3 GT ISZERO PUSH3 0x1504 JUMPI PUSH3 0x1503 PUSH3 0x18D3 JUMP JUMPDEST JUMPDEST PUSH3 0x150F DUP3 PUSH3 0x1916 JUMP JUMPDEST SWAP1 POP PUSH1 0x20 DUP2 ADD SWAP1 POP SWAP2 SWAP1 POP JUMP JUMPDEST PUSH1 0x0 DUP2 SWAP1 POP PUSH1 0x20 DUP3 ADD SWAP1 POP SWAP2 SWAP1 POP JUMP JUMPDEST PUSH1 0x0 DUP2 MLOAD SWAP1 POP SWAP2 SWAP1 POP JUMP JUMPDEST PUSH1 0x0 DUP2 MLOAD SWAP1 POP SWAP2 SWAP1 POP JUMP JUMPDEST PUSH1 0x0 PUSH1 0x20 DUP3 ADD SWAP1 POP SWAP2 SWAP1 POP JUMP JUMPDEST PUSH1 0x0 DUP3 DUP3 MSTORE PUSH1 0x20 DUP3 ADD SWAP1 POP SWAP3 SWAP2 POP POP JUMP JUMPDEST PUSH1 0x0 DUP3 DUP3 MSTORE PUSH1 0x20 DUP3 ADD SWAP1 POP SWAP3 SWAP2 POP POP JUMP JUMPDEST PUSH1 0x0 DUP3 DUP3 MSTORE PUSH1 0x20 DUP3 ADD SWAP1 POP SWAP3 SWAP2 POP POP JUMP JUMPDEST PUSH1 0x0 PUSH3 0x158F DUP3 PUSH3 0x1686 JUMP JUMPDEST SWAP2 POP PUSH3 0x159C DUP4 PUSH3 0x1686 JUMP JUMPDEST SWAP3 POP DUP3 PUSH32 0xFFFFFFFFFFFFFFFFFFFFFFFFFFFFFFFFFFFFFFFFFFFFFFFFFFFFFFFFFFFFFFFF SUB DUP3 GT ISZERO PUSH3 0x15D4 JUMPI PUSH3 0x15D3 PUSH3 0x1817 JUMP JUMPDEST JUMPDEST DUP3 DUP3 ADD SWAP1 POP SWAP3 SWAP2 POP POP JUMP JUMPDEST PUSH1 0x0 PUSH3 0x15EC DUP3 PUSH3 0x1686 JUMP JUMPDEST SWAP2 POP PUSH3 0x15F9 DUP4 PUSH3 0x1686 JUMP JUMPDEST SWAP3 POP DUP3 PUSH3 0x160C JUMPI PUSH3 0x160B PUSH3 0x1846 JUMP JUMPDEST JUMPDEST DUP3 DUP3 DIV SWAP1 POP SWAP3 SWAP2 POP POP JUMP JUMPDEST PUSH1 0x0 PUSH3 0x1624 DUP3 PUSH3 0x1686 JUMP JUMPDEST SWAP2 POP PUSH3 0x1631 DUP4 PUSH3 0x1686 JUMP JUMPDEST SWAP3 POP DUP3 DUP3 LT ISZERO PUSH3 0x1647 JUMPI PUSH3 0x1646 PUSH3 0x1817 JUMP JUMPDEST JUMPDEST DUP3 DUP3 SUB SWAP1 POP SWAP3 SWAP2 POP POP JUMP JUMPDEST PUSH1 0x0 PUSH3 0x165F DUP3 PUSH3 0x1666 JUMP JUMPDEST SWAP1 POP SWAP2 SWAP1 POP JUMP JUMPDEST PUSH1 0x0 PUSH20 0xFFFFFFFFFFFFFFFFFFFFFFFFFFFFFFFFFFFFFFFF DUP3 AND SWAP1 POP SWAP2 SWAP1 POP JUMP JUMPDEST PUSH1 0x0 DUP2 SWAP1 POP SWAP2 SWAP1 POP JUMP JUMPDEST PUSH1 0x0 PUSH3 0x169D DUP3 PUSH3 0x16A4 JUMP JUMPDEST SWAP1 POP SWAP2 SWAP1 POP JUMP JUMPDEST PUSH1 0x0 PUSH3 0x16B1 DUP3 PUSH3 0x1666 JUMP JUMPDEST SWAP1 POP SWAP2 SWAP1 POP JUMP JUMPDEST PUSH1 0x0 PUSH3 0x16C5 DUP3 PUSH3 0x1686 JUMP JUMPDEST SWAP1 POP SWAP2 SWAP1 POP JUMP JUMPDEST PUSH1 0x0 PUSH3 0x16D9 DUP3 PUSH3 0x1686 JUMP JUMPDEST SWAP1 POP SWAP2 SWAP1 POP JUMP JUMPDEST DUP3 DUP2 DUP4 CALLDATACOPY PUSH1 0x0 DUP4 DUP4 ADD MSTORE POP POP POP JUMP JUMPDEST PUSH1 0x0 JUMPDEST DUP4 DUP2 LT ISZERO PUSH3 0x170F JUMPI DUP1 DUP3 ADD MLOAD DUP2 DUP5 ADD MSTORE PUSH1 0x20 DUP2 ADD SWAP1 POP PUSH3 0x16F2 JUMP JUMPDEST DUP4 DUP2 GT ISZERO PUSH3 0x171F JUMPI PUSH1 0x0 DUP5 DUP5 ADD MSTORE JUMPDEST POP POP POP POP JUMP JUMPDEST PUSH1 0x0 PUSH1 0x2 DUP3 DIV SWAP1 POP PUSH1 0x1 DUP3 AND DUP1 PUSH3 0x173E JUMPI PUSH1 0x7F DUP3 AND SWAP2 POP JUMPDEST PUSH1 0x20 DUP3 LT DUP2 EQ ISZERO PUSH3 0x1755 JUMPI PUSH3 0x1754 PUSH3 0x1875 JUMP JUMPDEST JUMPDEST POP SWAP2 SWAP1 POP JUMP JUMPDEST PUSH3 0x1766 DUP3 PUSH3 0x1916 JUMP JUMPDEST DUP2 ADD DUP2 DUP2 LT PUSH8 0xFFFFFFFFFFFFFFFF DUP3 GT OR ISZERO PUSH3 0x1788 JUMPI PUSH3 0x1787 PUSH3 0x18D3 JUMP JUMPDEST JUMPDEST DUP1 PUSH1 0x40 MSTORE POP POP POP JUMP JUMPDEST PUSH1 0x0 PUSH3 0x179E DUP3 PUSH3 0x1686 JUMP JUMPDEST SWAP2 POP PUSH32 0xFFFFFFFFFFFFFFFFFFFFFFFFFFFFFFFFFFFFFFFFFFFFFFFFFFFFFFFFFFFFFFFF DUP3 EQ ISZERO PUSH3 0x17D4 JUMPI PUSH3 0x17D3 PUSH3 0x1817 JUMP JUMPDEST JUMPDEST PUSH1 0x1 DUP3 ADD SWAP1 POP SWAP2 SWAP1 POP JUMP JUMPDEST PUSH1 0x0 PUSH3 0x17EC DUP3 PUSH3 0x1686 JUMP JUMPDEST SWAP2 POP PUSH3 0x17F9 DUP4 PUSH3 0x1686 JUMP JUMPDEST SWAP3 POP DUP3 PUSH3 0x180C JUMPI PUSH3 0x180B PUSH3 0x1846 JUMP JUMPDEST JUMPDEST DUP3 DUP3 MOD SWAP1 POP SWAP3 SWAP2 POP POP JUMP JUMPDEST PUSH32 0x4E487B7100000000000000000000000000000000000000000000000000000000 PUSH1 0x0 MSTORE PUSH1 0x11 PUSH1 0x4 MSTORE PUSH1 0x24 PUSH1 0x0 REVERT JUMPDEST PUSH32 0x4E487B7100000000000000000000000000000000000000000000000000000000 PUSH1 0x0 MSTORE PUSH1 0x12 PUSH1 0x4 MSTORE PUSH1 0x24 PUSH1 0x0 REVERT JUMPDEST PUSH32 0x4E487B7100000000000000000000000000000000000000000000000000000000 PUSH1 0x0 MSTORE PUSH1 0x22 PUSH1 0x4 MSTORE PUSH1 0x24 PUSH1 0x0 REVERT JUMPDEST PUSH32 0x4E487B7100000000000000000000000000000000000000000000000000000000 PUSH1 0x0 MSTORE PUSH1 0x32 PUSH1 0x4 MSTORE PUSH1 0x24 PUSH1 0x0 REVERT JUMPDEST PUSH32 0x4E487B7100000000000000000000000000000000000000000000000000000000 PUSH1 0x0 MSTORE PUSH1 0x41 PUSH1 0x4 MSTORE PUSH1 0x24 PUSH1 0x0 REVERT JUMPDEST PUSH1 0x0 DUP1 REVERT JUMPDEST PUSH1 0x0 DUP1 REVERT JUMPDEST PUSH1 0x0 DUP1 REVERT JUMPDEST PUSH1 0x0 DUP1 REVERT JUMPDEST PUSH1 0x0 PUSH1 0x1F NOT PUSH1 0x1F DUP4 ADD AND SWAP1 POP SWAP2 SWAP1 POP JUMP JUMPDEST PUSH3 0x1932 DUP2 PUSH3 0x1686 JUMP JUMPDEST DUP2 EQ PUSH3 0x193E JUMPI PUSH1 0x0 DUP1 REVERT JUMPDEST POP JUMP INVALID PUSH1 0x80 PUSH1 0x40 MSTORE CALLVALUE DUP1 ISZERO PUSH3 0x11 JUMPI PUSH1 0x0 DUP1 REVERT JUMPDEST POP PUSH1 0x40 MLOAD PUSH3 0x941 CODESIZE SUB DUP1 PUSH3 0x941 DUP4 CODECOPY DUP2 DUP2 ADD PUSH1 0x40 MSTORE DUP2 ADD SWAP1 PUSH3 0x37 SWAP2 SWAP1 PUSH3 0x224 JUMP JUMPDEST DUP4 PUSH1 0x0 SWAP1 DUP1 MLOAD SWAP1 PUSH1 0x20 ADD SWAP1 PUSH3 0x4F SWAP3 SWAP2 SWAP1 PUSH3 0xC8 JUMP JUMPDEST POP PUSH1 0x0 DUP2 EQ PUSH3 0x6D JUMPI DUP1 TIMESTAMP PUSH3 0x67 SWAP2 SWAP1 PUSH3 0x314 JUMP JUMPDEST PUSH3 0x70 JUMP JUMPDEST PUSH1 0x0 JUMPDEST PUSH1 0x1 DUP2 SWAP1 SSTORE POP DUP3 PUSH1 0x2 DUP2 SWAP1 SSTORE POP DUP2 PUSH1 0x3 PUSH1 0x0 PUSH2 0x100 EXP DUP2 SLOAD DUP2 PUSH20 0xFFFFFFFFFFFFFFFFFFFFFFFFFFFFFFFFFFFFFFFF MUL NOT AND SWAP1 DUP4 PUSH20 0xFFFFFFFFFFFFFFFFFFFFFFFFFFFFFFFFFFFFFFFF AND MUL OR SWAP1 SSTORE POP POP POP POP POP PUSH3 0x537 JUMP JUMPDEST DUP3 DUP1 SLOAD PUSH3 0xD6 SWAP1 PUSH3 0x3E5 JUMP JUMPDEST SWAP1 PUSH1 0x0 MSTORE PUSH1 0x20 PUSH1 0x0 KECCAK256 SWAP1 PUSH1 0x1F ADD PUSH1 0x20 SWAP1 DIV DUP2 ADD SWAP3 DUP3 PUSH3 0xFA JUMPI PUSH1 0x0 DUP6 SSTORE PUSH3 0x146 JUMP JUMPDEST DUP3 PUSH1 0x1F LT PUSH3 0x115 JUMPI DUP1 MLOAD PUSH1 0xFF NOT AND DUP4 DUP1 ADD OR DUP6 SSTORE PUSH3 0x146 JUMP JUMPDEST DUP3 DUP1 ADD PUSH1 0x1 ADD DUP6 SSTORE DUP3 ISZERO PUSH3 0x146 JUMPI SWAP2 DUP3 ADD JUMPDEST DUP3 DUP2 GT ISZERO PUSH3 0x145 JUMPI DUP3 MLOAD DUP3 SSTORE SWAP2 PUSH1 0x20 ADD SWAP2 SWAP1 PUSH1 0x1 ADD SWAP1 PUSH3 0x128 JUMP JUMPDEST JUMPDEST POP SWAP1 POP PUSH3 0x155 SWAP2 SWAP1 PUSH3 0x159 JUMP JUMPDEST POP SWAP1 JUMP JUMPDEST JUMPDEST DUP1 DUP3 GT ISZERO PUSH3 0x174 JUMPI PUSH1 0x0 DUP2 PUSH1 0x0 SWAP1 SSTORE POP PUSH1 0x1 ADD PUSH3 0x15A JUMP JUMPDEST POP SWAP1 JUMP JUMPDEST PUSH1 0x0 PUSH3 0x18F PUSH3 0x189 DUP5 PUSH3 0x2DE JUMP JUMPDEST PUSH3 0x2B5 JUMP JUMPDEST SWAP1 POP DUP3 DUP2 MSTORE PUSH1 0x20 DUP2 ADD DUP5 DUP5 DUP5 ADD GT ISZERO PUSH3 0x1AE JUMPI PUSH3 0x1AD PUSH3 0x4E3 JUMP JUMPDEST JUMPDEST PUSH3 0x1BB DUP5 DUP3 DUP6 PUSH3 0x3AF JUMP JUMPDEST POP SWAP4 SWAP3 POP POP POP JUMP JUMPDEST PUSH1 0x0 DUP2 MLOAD SWAP1 POP PUSH3 0x1D4 DUP2 PUSH3 0x503 JUMP JUMPDEST SWAP3 SWAP2 POP POP JUMP JUMPDEST PUSH1 0x0 DUP3 PUSH1 0x1F DUP4 ADD SLT PUSH3 0x1F2 JUMPI PUSH3 0x1F1 PUSH3 0x4DE JUMP JUMPDEST JUMPDEST DUP2 MLOAD PUSH3 0x204 DUP5 DUP3 PUSH1 0x20 DUP7 ADD PUSH3 0x178 JUMP JUMPDEST SWAP2 POP POP SWAP3 SWAP2 POP POP JUMP JUMPDEST PUSH1 0x0 DUP2 MLOAD SWAP1 POP PUSH3 0x21E DUP2 PUSH3 0x51D JUMP JUMPDEST SWAP3 SWAP2 POP POP JUMP JUMPDEST PUSH1 0x0 DUP1 PUSH1 0x0 DUP1 PUSH1 0x80 DUP6 DUP8 SUB SLT ISZERO PUSH3 0x241 JUMPI PUSH3 0x240 PUSH3 0x4ED JUMP JUMPDEST JUMPDEST PUSH1 0x0 DUP6 ADD MLOAD PUSH8 0xFFFFFFFFFFFFFFFF DUP2 GT ISZERO PUSH3 0x262 JUMPI PUSH3 0x261 PUSH3 0x4E8 JUMP JUMPDEST JUMPDEST PUSH3 0x270 DUP8 DUP3 DUP9 ADD PUSH3 0x1DA JUMP JUMPDEST SWAP5 POP POP PUSH1 0x20 PUSH3 0x283 DUP8 DUP3 DUP9 ADD PUSH3 0x20D JUMP JUMPDEST SWAP4 POP POP PUSH1 0x40 PUSH3 0x296 DUP8 DUP3 DUP9 ADD PUSH3 0x1C3 JUMP JUMPDEST SWAP3 POP POP PUSH1 0x60 PUSH3 0x2A9 DUP8 DUP3 DUP9 ADD PUSH3 0x20D JUMP JUMPDEST SWAP2 POP POP SWAP3 SWAP6 SWAP2 SWAP5 POP SWAP3 POP JUMP JUMPDEST PUSH1 0x0 PUSH3 0x2C1 PUSH3 0x2D4 JUMP JUMPDEST SWAP1 POP PUSH3 0x2CF DUP3 DUP3 PUSH3 0x41B JUMP JUMPDEST SWAP2 SWAP1 POP JUMP JUMPDEST PUSH1 0x0 PUSH1 0x40 MLOAD SWAP1 POP SWAP1 JUMP JUMPDEST PUSH1 0x0 PUSH8 0xFFFFFFFFFFFFFFFF DUP3 GT ISZERO PUSH3 0x2FC JUMPI PUSH3 0x2FB PUSH3 0x4AF JUMP JUMPDEST JUMPDEST PUSH3 0x307 DUP3 PUSH3 0x4F2 JUMP JUMPDEST SWAP1 POP PUSH1 0x20 DUP2 ADD SWAP1 POP SWAP2 SWAP1 POP JUMP JUMPDEST PUSH1 0x0 PUSH3 0x321 DUP3 PUSH3 0x3A5 JUMP JUMPDEST SWAP2 POP PUSH3 0x32E DUP4 PUSH3 0x3A5 JUMP JUMPDEST SWAP3 POP DUP3 PUSH32 0xFFFFFFFFFFFFFFFFFFFFFFFFFFFFFFFFFFFFFFFFFFFFFFFFFFFFFFFFFFFFFFFF SUB DUP3 GT ISZERO PUSH3 0x366 JUMPI PUSH3 0x365 PUSH3 0x451 JUMP JUMPDEST JUMPDEST DUP3 DUP3 ADD SWAP1 POP SWAP3 SWAP2 POP POP JUMP JUMPDEST PUSH1 0x0 PUSH3 0x37E DUP3 PUSH3 0x385 JUMP JUMPDEST SWAP1 POP SWAP2 SWAP1 POP JUMP JUMPDEST PUSH1 0x0 PUSH20 0xFFFFFFFFFFFFFFFFFFFFFFFFFFFFFFFFFFFFFFFF DUP3 AND SWAP1 POP SWAP2 SWAP1 POP JUMP JUMPDEST PUSH1 0x0 DUP2 SWAP1 POP SWAP2 SWAP1 POP JUMP JUMPDEST PUSH1 0x0 JUMPDEST DUP4 DUP2 LT ISZERO PUSH3 0x3CF JUMPI DUP1 DUP3 ADD MLOAD DUP2 DUP5 ADD MSTORE PUSH1 0x20 DUP2 ADD SWAP1 POP PUSH3 0x3B2 JUMP JUMPDEST DUP4 DUP2 GT ISZERO PUSH3 0x3DF JUMPI PUSH1 0x0 DUP5 DUP5 ADD MSTORE JUMPDEST POP POP POP POP JUMP JUMPDEST PUSH1 0x0 PUSH1 0x2 DUP3 DIV SWAP1 POP PUSH1 0x1 DUP3 AND DUP1 PUSH3 0x3FE JUMPI PUSH1 0x7F DUP3 AND SWAP2 POP JUMPDEST PUSH1 0x20 DUP3 LT DUP2 EQ ISZERO PUSH3 0x415 JUMPI PUSH3 0x414 PUSH3 0x480 JUMP JUMPDEST JUMPDEST POP SWAP2 SWAP1 POP JUMP JUMPDEST PUSH3 0x426 DUP3 PUSH3 0x4F2 JUMP JUMPDEST DUP2 ADD DUP2 DUP2 LT PUSH8 0xFFFFFFFFFFFFFFFF DUP3 GT OR ISZERO PUSH3 0x448 JUMPI PUSH3 0x447 PUSH3 0x4AF JUMP JUMPDEST JUMPDEST DUP1 PUSH1 0x40 MSTORE POP POP POP JUMP JUMPDEST PUSH32 0x4E487B7100000000000000000000000000000000000000000000000000000000 PUSH1 0x0 MSTORE PUSH1 0x11 PUSH1 0x4 MSTORE PUSH1 0x24 PUSH1 0x0 REVERT JUMPDEST PUSH32 0x4E487B7100000000000000000000000000000000000000000000000000000000 PUSH1 0x0 MSTORE PUSH1 0x22 PUSH1 0x4 MSTORE PUSH1 0x24 PUSH1 0x0 REVERT JUMPDEST PUSH32 0x4E487B7100000000000000000000000000000000000000000000000000000000 PUSH1 0x0 MSTORE PUSH1 0x41 PUSH1 0x4 MSTORE PUSH1 0x24 PUSH1 0x0 REVERT JUMPDEST PUSH1 0x0 DUP1 REVERT JUMPDEST PUSH1 0x0 DUP1 REVERT JUMPDEST PUSH1 0x0 DUP1 REVERT JUMPDEST PUSH1 0x0 DUP1 REVERT JUMPDEST PUSH1 0x0 PUSH1 0x1F NOT PUSH1 0x1F DUP4 ADD AND SWAP1 POP SWAP2 SWAP1 POP JUMP JUMPDEST PUSH3 0x50E DUP2 PUSH3 0x371 JUMP JUMPDEST DUP2 EQ PUSH3 0x51A JUMPI PUSH1 0x0 DUP1 REVERT JUMPDEST POP JUMP JUMPDEST PUSH3 0x528 DUP2 PUSH3 0x3A5 JUMP JUMPDEST DUP2 EQ PUSH3 0x534 JUMPI PUSH1 0x0 DUP1 REVERT JUMPDEST POP JUMP JUMPDEST PUSH2 0x3FA DUP1 PUSH3 0x547 PUSH1 0x0 CODECOPY PUSH1 0x0 RETURN INVALID PUSH1 0x80 PUSH1 0x40 MSTORE CALLVALUE DUP1 ISZERO PUSH2 0x10 JUMPI PUSH1 0x0 DUP1 REVERT JUMPDEST POP PUSH1 0x4 CALLDATASIZE LT PUSH2 0x57 JUMPI PUSH1 0x0 CALLDATALOAD PUSH1 0xE0 SHR DUP1 PUSH4 0x2F13B60C EQ PUSH2 0x5C JUMPI DUP1 PUSH4 0x4C2067C7 EQ PUSH2 0x7A JUMPI DUP1 PUSH4 0x8DA5CB5B EQ PUSH2 0x98 JUMPI DUP1 PUSH4 0xC1991219 EQ PUSH2 0xB6 JUMPI DUP1 PUSH4 0xE6F1969C EQ PUSH2 0xD4 JUMPI JUMPDEST PUSH1 0x0 DUP1 REVERT JUMPDEST PUSH2 0x64 PUSH2 0xF2 JUMP JUMPDEST PUSH1 0x40 MLOAD PUSH2 0x71 SWAP2 SWAP1 PUSH2 0x263 JUMP JUMPDEST PUSH1 0x40 MLOAD DUP1 SWAP2 SUB SWAP1 RETURN JUMPDEST PUSH2 0x82 PUSH2 0x122 JUMP JUMPDEST PUSH1 0x40 MLOAD PUSH2 0x8F SWAP2 SWAP1 PUSH2 0x2A0 JUMP JUMPDEST PUSH1 0x40 MLOAD DUP1 SWAP2 SUB SWAP1 RETURN JUMPDEST PUSH2 0xA0 PUSH2 0x128 JUMP JUMPDEST PUSH1 0x40 MLOAD PUSH2 0xAD SWAP2 SWAP1 PUSH2 0x248 JUMP JUMPDEST PUSH1 0x40 MLOAD DUP1 SWAP2 SUB SWAP1 RETURN JUMPDEST PUSH2 0xBE PUSH2 0x14E JUMP JUMPDEST PUSH1 0x40 MLOAD PUSH2 0xCB SWAP2 SWAP1 PUSH2 0x2A0 JUMP JUMPDEST PUSH1 0x40 MLOAD DUP1 SWAP2 SUB SWAP1 RETURN JUMPDEST PUSH2 0xDC PUSH2 0x154 JUMP JUMPDEST PUSH1 0x40 MLOAD PUSH2 0xE9 SWAP2 SWAP1 PUSH2 0x27E JUMP JUMPDEST PUSH1 0x40 MLOAD DUP1 SWAP2 SUB SWAP1 RETURN JUMPDEST PUSH1 0x0 DUP1 PUSH1 0x1 SLOAD EQ ISZERO PUSH2 0x107 JUMPI PUSH1 0x0 SWAP1 POP PUSH2 0x11F JUMP JUMPDEST TIMESTAMP PUSH1 0x1 SLOAD LT ISZERO PUSH2 0x11A JUMPI PUSH1 0x0 PUSH1 0x2 DUP2 SWAP1 SSTORE POP JUMPDEST PUSH1 0x1 SWAP1 POP JUMPDEST SWAP1 JUMP JUMPDEST PUSH1 0x1 SLOAD DUP2 JUMP JUMPDEST PUSH1 0x3 PUSH1 0x0 SWAP1 SLOAD SWAP1 PUSH2 0x100 EXP SWAP1 DIV PUSH20 0xFFFFFFFFFFFFFFFFFFFFFFFFFFFFFFFFFFFFFFFF AND DUP2 JUMP JUMPDEST PUSH1 0x2 SLOAD DUP2 JUMP JUMPDEST PUSH1 0x0 DUP1 SLOAD PUSH2 0x161 SWAP1 PUSH2 0x352 JUMP JUMPDEST DUP1 PUSH1 0x1F ADD PUSH1 0x20 DUP1 SWAP2 DIV MUL PUSH1 0x20 ADD PUSH1 0x40 MLOAD SWAP1 DUP2 ADD PUSH1 0x40 MSTORE DUP1 SWAP3 SWAP2 SWAP1 DUP2 DUP2 MSTORE PUSH1 0x20 ADD DUP3 DUP1 SLOAD PUSH2 0x18D SWAP1 PUSH2 0x352 JUMP JUMPDEST DUP1 ISZERO PUSH2 0x1DA JUMPI DUP1 PUSH1 0x1F LT PUSH2 0x1AF JUMPI PUSH2 0x100 DUP1 DUP4 SLOAD DIV MUL DUP4 MSTORE SWAP2 PUSH1 0x20 ADD SWAP2 PUSH2 0x1DA JUMP JUMPDEST DUP3 ADD SWAP2 SWAP1 PUSH1 0x0 MSTORE PUSH1 0x20 PUSH1 0x0 KECCAK256 SWAP1 JUMPDEST DUP2 SLOAD DUP2 MSTORE SWAP1 PUSH1 0x1 ADD SWAP1 PUSH1 0x20 ADD DUP1 DUP4 GT PUSH2 0x1BD JUMPI DUP3 SWAP1 SUB PUSH1 0x1F AND DUP3 ADD SWAP2 JUMPDEST POP POP POP POP POP DUP2 JUMP JUMPDEST PUSH2 0x1EB DUP2 PUSH2 0x2D7 JUMP JUMPDEST DUP3 MSTORE POP POP JUMP JUMPDEST PUSH2 0x1FA DUP2 PUSH2 0x2E9 JUMP JUMPDEST DUP3 MSTORE POP POP JUMP JUMPDEST PUSH1 0x0 PUSH2 0x20B DUP3 PUSH2 0x2BB JUMP JUMPDEST PUSH2 0x215 DUP2 DUP6 PUSH2 0x2C6 JUMP JUMPDEST SWAP4 POP PUSH2 0x225 DUP2 DUP6 PUSH1 0x20 DUP7 ADD PUSH2 0x31F JUMP JUMPDEST PUSH2 0x22E DUP2 PUSH2 0x3B3 JUMP JUMPDEST DUP5 ADD SWAP2 POP POP SWAP3 SWAP2 POP POP JUMP JUMPDEST PUSH2 0x242 DUP2 PUSH2 0x315 JUMP JUMPDEST DUP3 MSTORE POP POP JUMP JUMPDEST PUSH1 0x0 PUSH1 0x20 DUP3 ADD SWAP1 POP PUSH2 0x25D PUSH1 0x0 DUP4 ADD DUP5 PUSH2 0x1E2 JUMP JUMPDEST SWAP3 SWAP2 POP POP JUMP JUMPDEST PUSH1 0x0 PUSH1 0x20 DUP3 ADD SWAP1 POP PUSH2 0x278 PUSH1 0x0 DUP4 ADD DUP5 PUSH2 0x1F1 JUMP JUMPDEST SWAP3 SWAP2 POP POP JUMP JUMPDEST PUSH1 0x0 PUSH1 0x20 DUP3 ADD SWAP1 POP DUP2 DUP2 SUB PUSH1 0x0 DUP4 ADD MSTORE PUSH2 0x298 DUP2 DUP5 PUSH2 0x200 JUMP JUMPDEST SWAP1 POP SWAP3 SWAP2 POP POP JUMP JUMPDEST PUSH1 0x0 PUSH1 0x20 DUP3 ADD SWAP1 POP PUSH2 0x2B5 PUSH1 0x0 DUP4 ADD DUP5 PUSH2 0x239 JUMP JUMPDEST SWAP3 SWAP2 POP POP JUMP JUMPDEST PUSH1 0x0 DUP2 MLOAD SWAP1 POP SWAP2 SWAP1 POP JUMP JUMPDEST PUSH1 0x0 DUP3 DUP3 MSTORE PUSH1 0x20 DUP3 ADD SWAP1 POP SWAP3 SWAP2 POP POP JUMP JUMPDEST PUSH1 0x0 PUSH2 0x2E2 DUP3 PUSH2 0x2F5 JUMP JUMPDEST SWAP1 POP SWAP2 SWAP1 POP JUMP JUMPDEST PUSH1 0x0 DUP2 ISZERO ISZERO SWAP1 POP SWAP2 SWAP1 POP JUMP JUMPDEST PUSH1 0x0 PUSH20 0xFFFFFFFFFFFFFFFFFFFFFFFFFFFFFFFFFFFFFFFF DUP3 AND SWAP1 POP SWAP2 SWAP1 POP JUMP JUMPDEST PUSH1 0x0 DUP2 SWAP1 POP SWAP2 SWAP1 POP JUMP JUMPDEST PUSH1 0x0 JUMPDEST DUP4 DUP2 LT ISZERO PUSH2 0x33D JUMPI DUP1 DUP3 ADD MLOAD DUP2 DUP5 ADD MSTORE PUSH1 0x20 DUP2 ADD SWAP1 POP PUSH2 0x322 JUMP JUMPDEST DUP4 DUP2 GT ISZERO PUSH2 0x34C JUMPI PUSH1 0x0 DUP5 DUP5 ADD MSTORE JUMPDEST POP POP POP POP JUMP JUMPDEST PUSH1 0x0 PUSH1 0x2 DUP3 DIV SWAP1 POP PUSH1 0x1 DUP3 AND DUP1 PUSH2 0x36A JUMPI PUSH1 0x7F DUP3 AND SWAP2 POP JUMPDEST PUSH1 0x20 DUP3 LT DUP2 EQ ISZERO PUSH2 0x37E JUMPI PUSH2 0x37D PUSH2 0x384 JUMP JUMPDEST JUMPDEST POP SWAP2 SWAP1 POP JUMP JUMPDEST PUSH32 0x4E487B7100000000000000000000000000000000000000000000000000000000 PUSH1 0x0 MSTORE PUSH1 0x22 PUSH1 0x4 MSTORE PUSH1 0x24 PUSH1 0x0 REVERT JUMPDEST PUSH1 0x0 PUSH1 0x1F NOT PUSH1 0x1F DUP4 ADD AND SWAP1 POP SWAP2 SWAP1 POP JUMP INVALID LOG2 PUSH5 0x6970667358 0x22 SLT KECCAK256 0xD2 SWAP5 0xEB SHR LOG3 JUMP DELEGATECALL RETURNDATACOPY 0xB8 0x2A 0xE0 MSTORE DIV 0xDF 0xC5 0x4B 0xFB ADDMOD 0xB2 PUSH12 0xCC26147B7858F9FD64D70F10 PUSH5 0x736F6C6343 STOP ADDMOD MOD STOP CALLER LOG2 PUSH5 0x6970667358 0x22 SLT KECCAK256 0xE5 EXTCODESIZE 0x22 PUSH4 0xD0BC43C1 SAR DUP16 ORIGIN PUSH8 0xEBFB27E11A4CB11 0xDA AND PUSH13 0xC52E035ACF403088C764736F6C PUSH4 0x43000806 STOP CALLER "
		},
		"gasEstimates": {
			"creation": {
				"codeDepositCost": "1777600",
				"executionCost": "1869",
				"totalCost": "1779469"
			},
			"external": {
				"add(string,string)": "infinite",
				"applications(uint256)": "infinite",
				"buy(string)": "infinite",
				"getAll()": "infinite",
				"getAllbyOwnerAddress()": "infinite",
				"licenses(uint256)": "4977"
			},
			"internal": {
				"toString(uint256)": "infinite"
			}
		},
		"methodIdentifiers": {
			"add(string,string)": "ebdf86ca",
			"applications(uint256)": "dfefadff",
			"buy(string)": "492cc769",
			"getAll()": "53ed5143",
			"getAllbyOwnerAddress()": "b0aa139e",
			"licenses(uint256)": "33790845"
		}
	},
	"abi": [
		{
			"inputs": [
				{
					"internalType": "string",
					"name": "_content_hash",
					"type": "string"
				},
				{
					"internalType": "string",
					"name": "_name",
					"type": "string"
				}
			],
			"name": "add",
			"outputs": [],
			"stateMutability": "nonpayable",
			"type": "function"
		},
		{
			"inputs": [
				{
					"internalType": "uint256",
					"name": "",
					"type": "uint256"
				}
			],
			"name": "applications",
			"outputs": [
				{
					"internalType": "address",
					"name": "owner",
					"type": "address"
				},
				{
					"internalType": "string",
					"name": "content_hash",
					"type": "string"
				},
				{
					"internalType": "string",
					"name": "name",
					"type": "string"
				},
				{
					"internalType": "uint256",
					"name": "date",
					"type": "uint256"
				},
				{
					"internalType": "string",
					"name": "id",
					"type": "string"
				}
			],
			"stateMutability": "view",
			"type": "function"
		},
		{
			"inputs": [
				{
					"internalType": "string",
					"name": "idApplication",
					"type": "string"
				}
			],
			"name": "buy",
			"outputs": [],
			"stateMutability": "nonpayable",
			"type": "function"
		},
		{
			"inputs": [],
			"name": "getAll",
			"outputs": [
				{
					"components": [
						{
							"internalType": "address",
							"name": "owner",
							"type": "address"
						},
						{
							"internalType": "string",
							"name": "content_hash",
							"type": "string"
						},
						{
							"internalType": "string",
							"name": "name",
							"type": "string"
						},
						{
							"internalType": "uint256",
							"name": "date",
							"type": "uint256"
						},
						{
							"internalType": "string",
							"name": "id",
							"type": "string"
						}
					],
					"internalType": "struct Application.ApplicationInfo[]",
					"name": "",
					"type": "tuple[]"
				}
			],
			"stateMutability": "view",
			"type": "function"
		},
		{
			"inputs": [],
			"name": "getAllbyOwnerAddress",
			"outputs": [
				{
					"components": [
						{
							"internalType": "address",
							"name": "owner",
							"type": "address"
						},
						{
							"internalType": "string",
							"name": "content_hash",
							"type": "string"
						},
						{
							"internalType": "string",
							"name": "name",
							"type": "string"
						},
						{
							"internalType": "uint256",
							"name": "date",
							"type": "uint256"
						},
						{
							"internalType": "string",
							"name": "id",
							"type": "string"
						}
					],
					"internalType": "struct Application.ApplicationInfo[]",
					"name": "",
					"type": "tuple[]"
				}
			],
			"stateMutability": "view",
			"type": "function"
		},
		{
			"inputs": [
				{
					"internalType": "uint256",
					"name": "",
					"type": "uint256"
				}
			],
			"name": "licenses",
			"outputs": [
				{
					"internalType": "contract License",
					"name": "",
					"type": "address"
				}
			],
			"stateMutability": "view",
			"type": "function"
		}
	]
}