{
	"data": {
		"bytecode": {
			"linkReferences": {},
			"object": "60806040523480156200001157600080fd5b506040516200094138038062000941833981810160405281019062000037919062000224565b83600090805190602001906200004f929190620000c8565b50600081146200006d57804262000067919062000314565b62000070565b60005b6001819055508260028190555081600360006101000a81548173ffffffffffffffffffffffffffffffffffffffff021916908373ffffffffffffffffffffffffffffffffffffffff1602179055505050505062000537565b828054620000d690620003e5565b90600052602060002090601f016020900481019282620000fa576000855562000146565b82601f106200011557805160ff191683800117855562000146565b8280016001018555821562000146579182015b828111156200014557825182559160200191906001019062000128565b5b50905062000155919062000159565b5090565b5b80821115620001745760008160009055506001016200015a565b5090565b60006200018f6200018984620002de565b620002b5565b905082815260208101848484011115620001ae57620001ad620004e3565b5b620001bb848285620003af565b509392505050565b600081519050620001d48162000503565b92915050565b600082601f830112620001f257620001f1620004de565b5b81516200020484826020860162000178565b91505092915050565b6000815190506200021e816200051d565b92915050565b60008060008060808587031215620002415762000240620004ed565b5b600085015167ffffffffffffffff811115620002625762000261620004e8565b5b6200027087828801620001da565b945050602062000283878288016200020d565b93505060406200029687828801620001c3565b9250506060620002a9878288016200020d565b91505092959194509250565b6000620002c1620002d4565b9050620002cf82826200041b565b919050565b6000604051905090565b600067ffffffffffffffff821115620002fc57620002fb620004af565b5b6200030782620004f2565b9050602081019050919050565b60006200032182620003a5565b91506200032e83620003a5565b9250827fffffffffffffffffffffffffffffffffffffffffffffffffffffffffffffffff0382111562000366576200036562000451565b5b828201905092915050565b60006200037e8262000385565b9050919050565b600073ffffffffffffffffffffffffffffffffffffffff82169050919050565b6000819050919050565b60005b83811015620003cf578082015181840152602081019050620003b2565b83811115620003df576000848401525b50505050565b60006002820490506001821680620003fe57607f821691505b6020821081141562000415576200041462000480565b5b50919050565b6200042682620004f2565b810181811067ffffffffffffffff82111715620004485762000447620004af565b5b80604052505050565b7f4e487b7100000000000000000000000000000000000000000000000000000000600052601160045260246000fd5b7f4e487b7100000000000000000000000000000000000000000000000000000000600052602260045260246000fd5b7f4e487b7100000000000000000000000000000000000000000000000000000000600052604160045260246000fd5b600080fd5b600080fd5b600080fd5b600080fd5b6000601f19601f8301169050919050565b6200050e8162000371565b81146200051a57600080fd5b50565b6200052881620003a5565b81146200053457600080fd5b50565b6103fa80620005476000396000f3fe608060405234801561001057600080fd5b50600436106100575760003560e01c80632f13b60c1461005c5780634c2067c71461007a5780638da5cb5b14610098578063c1991219146100b6578063e6f1969c146100d4575b600080fd5b6100646100f2565b6040516100719190610263565b60405180910390f35b610082610122565b60405161008f91906102a0565b60405180910390f35b6100a0610128565b6040516100ad9190610248565b60405180910390f35b6100be61014e565b6040516100cb91906102a0565b60405180910390f35b6100dc610154565b6040516100e9919061027e565b60405180910390f35b6000806001541415610107576000905061011f565b42600154101561011a5760006002819055505b600190505b90565b60015481565b600360009054906101000a900473ffffffffffffffffffffffffffffffffffffffff1681565b60025481565b6000805461016190610352565b80601f016020809104026020016040519081016040528092919081815260200182805461018d90610352565b80156101da5780601f106101af576101008083540402835291602001916101da565b820191906000526020600020905b8154815290600101906020018083116101bd57829003601f168201915b505050505081565b6101eb816102d7565b82525050565b6101fa816102e9565b82525050565b600061020b826102bb565b61021581856102c6565b935061022581856020860161031f565b61022e816103b3565b840191505092915050565b61024281610315565b82525050565b600060208201905061025d60008301846101e2565b92915050565b600060208201905061027860008301846101f1565b92915050565b600060208201905081810360008301526102988184610200565b905092915050565b60006020820190506102b56000830184610239565b92915050565b600081519050919050565b600082825260208201905092915050565b60006102e2826102f5565b9050919050565b60008115159050919050565b600073ffffffffffffffffffffffffffffffffffffffff82169050919050565b6000819050919050565b60005b8381101561033d578082015181840152602081019050610322565b8381111561034c576000848401525b50505050565b6000600282049050600182168061036a57607f821691505b6020821081141561037e5761037d610384565b5b50919050565b7f4e487b7100000000000000000000000000000000000000000000000000000000600052602260045260246000fd5b6000601f19601f830116905091905056fea2646970667358221220d294eb1ca356f43eb82ae05204dfc54bfb08b26bcc26147b7858f9fd64d70f1064736f6c63430008060033",
			"opcodes": "PUSH1 0x80 PUSH1 0x40 MSTORE CALLVALUE DUP1 ISZERO PUSH3 0x11 JUMPI PUSH1 0x0 DUP1 REVERT JUMPDEST POP PUSH1 0x40 MLOAD PUSH3 0x941 CODESIZE SUB DUP1 PUSH3 0x941 DUP4 CODECOPY DUP2 DUP2 ADD PUSH1 0x40 MSTORE DUP2 ADD SWAP1 PUSH3 0x37 SWAP2 SWAP1 PUSH3 0x224 JUMP JUMPDEST DUP4 PUSH1 0x0 SWAP1 DUP1 MLOAD SWAP1 PUSH1 0x20 ADD SWAP1 PUSH3 0x4F SWAP3 SWAP2 SWAP1 PUSH3 0xC8 JUMP JUMPDEST POP PUSH1 0x0 DUP2 EQ PUSH3 0x6D JUMPI DUP1 TIMESTAMP PUSH3 0x67 SWAP2 SWAP1 PUSH3 0x314 JUMP JUMPDEST PUSH3 0x70 JUMP JUMPDEST PUSH1 0x0 JUMPDEST PUSH1 0x1 DUP2 SWAP1 SSTORE POP DUP3 PUSH1 0x2 DUP2 SWAP1 SSTORE POP DUP2 PUSH1 0x3 PUSH1 0x0 PUSH2 0x100 EXP DUP2 SLOAD DUP2 PUSH20 0xFFFFFFFFFFFFFFFFFFFFFFFFFFFFFFFFFFFFFFFF MUL NOT AND SWAP1 DUP4 PUSH20 0xFFFFFFFFFFFFFFFFFFFFFFFFFFFFFFFFFFFFFFFF AND MUL OR SWAP1 SSTORE POP POP POP POP POP PUSH3 0x537 JUMP JUMPDEST DUP3 DUP1 SLOAD PUSH3 0xD6 SWAP1 PUSH3 0x3E5 JUMP JUMPDEST SWAP1 PUSH1 0x0 MSTORE PUSH1 0x20 PUSH1 0x0 KECCAK256 SWAP1 PUSH1 0x1F ADD PUSH1 0x20 SWAP1 DIV DUP2 ADD SWAP3 DUP3 PUSH3 0xFA JUMPI PUSH1 0x0 DUP6 SSTORE PUSH3 0x146 JUMP JUMPDEST DUP3 PUSH1 0x1F LT PUSH3 0x115 JUMPI DUP1 MLOAD PUSH1 0xFF NOT AND DUP4 DUP1 ADD OR DUP6 SSTORE PUSH3 0x146 JUMP JUMPDEST DUP3 DUP1 ADD PUSH1 0x1 ADD DUP6 SSTORE DUP3 ISZERO PUSH3 0x146 JUMPI SWAP2 DUP3 ADD JUMPDEST DUP3 DUP2 GT ISZERO PUSH3 0x145 JUMPI DUP3 MLOAD DUP3 SSTORE SWAP2 PUSH1 0x20 ADD SWAP2 SWAP1 PUSH1 0x1 ADD SWAP1 PUSH3 0x128 JUMP JUMPDEST JUMPDEST POP SWAP1 POP PUSH3 0x155 SWAP2 SWAP1 PUSH3 0x159 JUMP JUMPDEST POP SWAP1 JUMP JUMPDEST JUMPDEST DUP1 DUP3 GT ISZERO PUSH3 0x174 JUMPI PUSH1 0x0 DUP2 PUSH1 0x0 SWAP1 SSTORE POP PUSH1 0x1 ADD PUSH3 0x15A JUMP JUMPDEST POP SWAP1 JUMP JUMPDEST PUSH1 0x0 PUSH3 0x18F PUSH3 0x189 DUP5 PUSH3 0x2DE JUMP JUMPDEST PUSH3 0x2B5 JUMP JUMPDEST SWAP1 POP DUP3 DUP2 MSTORE PUSH1 0x20 DUP2 ADD DUP5 DUP5 DUP5 ADD GT ISZERO PUSH3 0x1AE JUMPI PUSH3 0x1AD PUSH3 0x4E3 JUMP JUMPDEST JUMPDEST PUSH3 0x1BB DUP5 DUP3 DUP6 PUSH3 0x3AF JUMP JUMPDEST POP SWAP4 SWAP3 POP POP POP JUMP JUMPDEST PUSH1 0x0 DUP2 MLOAD SWAP1 POP PUSH3 0x1D4 DUP2 PUSH3 0x503 JUMP JUMPDEST SWAP3 SWAP2 POP POP JUMP JUMPDEST PUSH1 0x0 DUP3 PUSH1 0x1F DUP4 ADD SLT PUSH3 0x1F2 JUMPI PUSH3 0x1F1 PUSH3 0x4DE JUMP JUMPDEST JUMPDEST DUP2 MLOAD PUSH3 0x204 DUP5 DUP3 PUSH1 0x20 DUP7 ADD PUSH3 0x178 JUMP JUMPDEST SWAP2 POP POP SWAP3 SWAP2 POP POP JUMP JUMPDEST PUSH1 0x0 DUP2 MLOAD SWAP1 POP PUSH3 0x21E DUP2 PUSH3 0x51D JUMP JUMPDEST SWAP3 SWAP2 POP POP JUMP JUMPDEST PUSH1 0x0 DUP1 PUSH1 0x0 DUP1 PUSH1 0x80 DUP6 DUP8 SUB SLT ISZERO PUSH3 0x241 JUMPI PUSH3 0x240 PUSH3 0x4ED JUMP JUMPDEST JUMPDEST PUSH1 0x0 DUP6 ADD MLOAD PUSH8 0xFFFFFFFFFFFFFFFF DUP2 GT ISZERO PUSH3 0x262 JUMPI PUSH3 0x261 PUSH3 0x4E8 JUMP JUMPDEST JUMPDEST PUSH3 0x270 DUP8 DUP3 DUP9 ADD PUSH3 0x1DA JUMP JUMPDEST SWAP5 POP POP PUSH1 0x20 PUSH3 0x283 DUP8 DUP3 DUP9 ADD PUSH3 0x20D JUMP JUMPDEST SWAP4 POP POP PUSH1 0x40 PUSH3 0x296 DUP8 DUP3 DUP9 ADD PUSH3 0x1C3 JUMP JUMPDEST SWAP3 POP POP PUSH1 0x60 PUSH3 0x2A9 DUP8 DUP3 DUP9 ADD PUSH3 0x20D JUMP JUMPDEST SWAP2 POP POP SWAP3 SWAP6 SWAP2 SWAP5 POP SWAP3 POP JUMP JUMPDEST PUSH1 0x0 PUSH3 0x2C1 PUSH3 0x2D4 JUMP JUMPDEST SWAP1 POP PUSH3 0x2CF DUP3 DUP3 PUSH3 0x41B JUMP JUMPDEST SWAP2 SWAP1 POP JUMP JUMPDEST PUSH1 0x0 PUSH1 0x40 MLOAD SWAP1 POP SWAP1 JUMP JUMPDEST PUSH1 0x0 PUSH8 0xFFFFFFFFFFFFFFFF DUP3 GT ISZERO PUSH3 0x2FC JUMPI PUSH3 0x2FB PUSH3 0x4AF JUMP JUMPDEST JUMPDEST PUSH3 0x307 DUP3 PUSH3 0x4F2 JUMP JUMPDEST SWAP1 POP PUSH1 0x20 DUP2 ADD SWAP1 POP SWAP2 SWAP1 POP JUMP JUMPDEST PUSH1 0x0 PUSH3 0x321 DUP3 PUSH3 0x3A5 JUMP JUMPDEST SWAP2 POP PUSH3 0x32E DUP4 PUSH3 0x3A5 JUMP JUMPDEST SWAP3 POP DUP3 PUSH32 0xFFFFFFFFFFFFFFFFFFFFFFFFFFFFFFFFFFFFFFFFFFFFFFFFFFFFFFFFFFFFFFFF SUB DUP3 GT ISZERO PUSH3 0x366 JUMPI PUSH3 0x365 PUSH3 0x451 JUMP JUMPDEST JUMPDEST DUP3 DUP3 ADD SWAP1 POP SWAP3 SWAP2 POP POP JUMP JUMPDEST PUSH1 0x0 PUSH3 0x37E DUP3 PUSH3 0x385 JUMP JUMPDEST SWAP1 POP SWAP2 SWAP1 POP JUMP JUMPDEST PUSH1 0x0 PUSH20 0xFFFFFFFFFFFFFFFFFFFFFFFFFFFFFFFFFFFFFFFF DUP3 AND SWAP1 POP SWAP2 SWAP1 POP JUMP JUMPDEST PUSH1 0x0 DUP2 SWAP1 POP SWAP2 SWAP1 POP JUMP JUMPDEST PUSH1 0x0 JUMPDEST DUP4 DUP2 LT ISZERO PUSH3 0x3CF JUMPI DUP1 DUP3 ADD MLOAD DUP2 DUP5 ADD MSTORE PUSH1 0x20 DUP2 ADD SWAP1 POP PUSH3 0x3B2 JUMP JUMPDEST DUP4 DUP2 GT ISZERO PUSH3 0x3DF JUMPI PUSH1 0x0 DUP5 DUP5 ADD MSTORE JUMPDEST POP POP POP POP JUMP JUMPDEST PUSH1 0x0 PUSH1 0x2 DUP3 DIV SWAP1 POP PUSH1 0x1 DUP3 AND DUP1 PUSH3 0x3FE JUMPI PUSH1 0x7F DUP3 AND SWAP2 POP JUMPDEST PUSH1 0x20 DUP3 LT DUP2 EQ ISZERO PUSH3 0x415 JUMPI PUSH3 0x414 PUSH3 0x480 JUMP JUMPDEST JUMPDEST POP SWAP2 SWAP1 POP JUMP JUMPDEST PUSH3 0x426 DUP3 PUSH3 0x4F2 JUMP JUMPDEST DUP2 ADD DUP2 DUP2 LT PUSH8 0xFFFFFFFFFFFFFFFF DUP3 GT OR ISZERO PUSH3 0x448 JUMPI PUSH3 0x447 PUSH3 0x4AF JUMP JUMPDEST JUMPDEST DUP1 PUSH1 0x40 MSTORE POP POP POP JUMP JUMPDEST PUSH32 0x4E487B7100000000000000000000000000000000000000000000000000000000 PUSH1 0x0 MSTORE PUSH1 0x11 PUSH1 0x4 MSTORE PUSH1 0x24 PUSH1 0x0 REVERT JUMPDEST PUSH32 0x4E487B7100000000000000000000000000000000000000000000000000000000 PUSH1 0x0 MSTORE PUSH1 0x22 PUSH1 0x4 MSTORE PUSH1 0x24 PUSH1 0x0 REVERT JUMPDEST PUSH32 0x4E487B7100000000000000000000000000000000000000000000000000000000 PUSH1 0x0 MSTORE PUSH1 0x41 PUSH1 0x4 MSTORE PUSH1 0x24 PUSH1 0x0 REVERT JUMPDEST PUSH1 0x0 DUP1 REVERT JUMPDEST PUSH1 0x0 DUP1 REVERT JUMPDEST PUSH1 0x0 DUP1 REVERT JUMPDEST PUSH1 0x0 DUP1 REVERT JUMPDEST PUSH1 0x0 PUSH1 0x1F NOT PUSH1 0x1F DUP4 ADD AND SWAP1 POP SWAP2 SWAP1 POP JUMP JUMPDEST PUSH3 0x50E DUP2 PUSH3 0x371 JUMP JUMPDEST DUP2 EQ PUSH3 0x51A JUMPI PUSH1 0x0 DUP1 REVERT JUMPDEST POP JUMP JUMPDEST PUSH3 0x528 DUP2 PUSH3 0x3A5 JUMP JUMPDEST DUP2 EQ PUSH3 0x534 JUMPI PUSH1 0x0 DUP1 REVERT JUMPDEST POP JUMP JUMPDEST PUSH2 0x3FA DUP1 PUSH3 0x547 PUSH1 0x0 CODECOPY PUSH1 0x0 RETURN INVALID PUSH1 0x80 PUSH1 0x40 MSTORE CALLVALUE DUP1 ISZERO PUSH2 0x10 JUMPI PUSH1 0x0 DUP1 REVERT JUMPDEST POP PUSH1 0x4 CALLDATASIZE LT PUSH2 0x57 JUMPI PUSH1 0x0 CALLDATALOAD PUSH1 0xE0 SHR DUP1 PUSH4 0x2F13B60C EQ PUSH2 0x5C JUMPI DUP1 PUSH4 0x4C2067C7 EQ PUSH2 0x7A JUMPI DUP1 PUSH4 0x8DA5CB5B EQ PUSH2 0x98 JUMPI DUP1 PUSH4 0xC1991219 EQ PUSH2 0xB6 JUMPI DUP1 PUSH4 0xE6F1969C EQ PUSH2 0xD4 JUMPI JUMPDEST PUSH1 0x0 DUP1 REVERT JUMPDEST PUSH2 0x64 PUSH2 0xF2 JUMP JUMPDEST PUSH1 0x40 MLOAD PUSH2 0x71 SWAP2 SWAP1 PUSH2 0x263 JUMP JUMPDEST PUSH1 0x40 MLOAD DUP1 SWAP2 SUB SWAP1 RETURN JUMPDEST PUSH2 0x82 PUSH2 0x122 JUMP JUMPDEST PUSH1 0x40 MLOAD PUSH2 0x8F SWAP2 SWAP1 PUSH2 0x2A0 JUMP JUMPDEST PUSH1 0x40 MLOAD DUP1 SWAP2 SUB SWAP1 RETURN JUMPDEST PUSH2 0xA0 PUSH2 0x128 JUMP JUMPDEST PUSH1 0x40 MLOAD PUSH2 0xAD SWAP2 SWAP1 PUSH2 0x248 JUMP JUMPDEST PUSH1 0x40 MLOAD DUP1 SWAP2 SUB SWAP1 RETURN JUMPDEST PUSH2 0xBE PUSH2 0x14E JUMP JUMPDEST PUSH1 0x40 MLOAD PUSH2 0xCB SWAP2 SWAP1 PUSH2 0x2A0 JUMP JUMPDEST PUSH1 0x40 MLOAD DUP1 SWAP2 SUB SWAP1 RETURN JUMPDEST PUSH2 0xDC PUSH2 0x154 JUMP JUMPDEST PUSH1 0x40 MLOAD PUSH2 0xE9 SWAP2 SWAP1 PUSH2 0x27E JUMP JUMPDEST PUSH1 0x40 MLOAD DUP1 SWAP2 SUB SWAP1 RETURN JUMPDEST PUSH1 0x0 DUP1 PUSH1 0x1 SLOAD EQ ISZERO PUSH2 0x107 JUMPI PUSH1 0x0 SWAP1 POP PUSH2 0x11F JUMP JUMPDEST TIMESTAMP PUSH1 0x1 SLOAD LT ISZERO PUSH2 0x11A JUMPI PUSH1 0x0 PUSH1 0x2 DUP2 SWAP1 SSTORE POP JUMPDEST PUSH1 0x1 SWAP1 POP JUMPDEST SWAP1 JUMP JUMPDEST PUSH1 0x1 SLOAD DUP2 JUMP JUMPDEST PUSH1 0x3 PUSH1 0x0 SWAP1 SLOAD SWAP1 PUSH2 0x100 EXP SWAP1 DIV PUSH20 0xFFFFFFFFFFFFFFFFFFFFFFFFFFFFFFFFFFFFFFFF AND DUP2 JUMP JUMPDEST PUSH1 0x2 SLOAD DUP2 JUMP JUMPDEST PUSH1 0x0 DUP1 SLOAD PUSH2 0x161 SWAP1 PUSH2 0x352 JUMP JUMPDEST DUP1 PUSH1 0x1F ADD PUSH1 0x20 DUP1 SWAP2 DIV MUL PUSH1 0x20 ADD PUSH1 0x40 MLOAD SWAP1 DUP2 ADD PUSH1 0x40 MSTORE DUP1 SWAP3 SWAP2 SWAP1 DUP2 DUP2 MSTORE PUSH1 0x20 ADD DUP3 DUP1 SLOAD PUSH2 0x18D SWAP1 PUSH2 0x352 JUMP JUMPDEST DUP1 ISZERO PUSH2 0x1DA JUMPI DUP1 PUSH1 0x1F LT PUSH2 0x1AF JUMPI PUSH2 0x100 DUP1 DUP4 SLOAD DIV MUL DUP4 MSTORE SWAP2 PUSH1 0x20 ADD SWAP2 PUSH2 0x1DA JUMP JUMPDEST DUP3 ADD SWAP2 SWAP1 PUSH1 0x0 MSTORE PUSH1 0x20 PUSH1 0x0 KECCAK256 SWAP1 JUMPDEST DUP2 SLOAD DUP2 MSTORE SWAP1 PUSH1 0x1 ADD SWAP1 PUSH1 0x20 ADD DUP1 DUP4 GT PUSH2 0x1BD JUMPI DUP3 SWAP1 SUB PUSH1 0x1F AND DUP3 ADD SWAP2 JUMPDEST POP POP POP POP POP DUP2 JUMP JUMPDEST PUSH2 0x1EB DUP2 PUSH2 0x2D7 JUMP JUMPDEST DUP3 MSTORE POP POP JUMP JUMPDEST PUSH2 0x1FA DUP2 PUSH2 0x2E9 JUMP JUMPDEST DUP3 MSTORE POP POP JUMP JUMPDEST PUSH1 0x0 PUSH2 0x20B DUP3 PUSH2 0x2BB JUMP JUMPDEST PUSH2 0x215 DUP2 DUP6 PUSH2 0x2C6 JUMP JUMPDEST SWAP4 POP PUSH2 0x225 DUP2 DUP6 PUSH1 0x20 DUP7 ADD PUSH2 0x31F JUMP JUMPDEST PUSH2 0x22E DUP2 PUSH2 0x3B3 JUMP JUMPDEST DUP5 ADD SWAP2 POP POP SWAP3 SWAP2 POP POP JUMP JUMPDEST PUSH2 0x242 DUP2 PUSH2 0x315 JUMP JUMPDEST DUP3 MSTORE POP POP JUMP JUMPDEST PUSH1 0x0 PUSH1 0x20 DUP3 ADD SWAP1 POP PUSH2 0x25D PUSH1 0x0 DUP4 ADD DUP5 PUSH2 0x1E2 JUMP JUMPDEST SWAP3 SWAP2 POP POP JUMP JUMPDEST PUSH1 0x0 PUSH1 0x20 DUP3 ADD SWAP1 POP PUSH2 0x278 PUSH1 0x0 DUP4 ADD DUP5 PUSH2 0x1F1 JUMP JUMPDEST SWAP3 SWAP2 POP POP JUMP JUMPDEST PUSH1 0x0 PUSH1 0x20 DUP3 ADD SWAP1 POP DUP2 DUP2 SUB PUSH1 0x0 DUP4 ADD MSTORE PUSH2 0x298 DUP2 DUP5 PUSH2 0x200 JUMP JUMPDEST SWAP1 POP SWAP3 SWAP2 POP POP JUMP JUMPDEST PUSH1 0x0 PUSH1 0x20 DUP3 ADD SWAP1 POP PUSH2 0x2B5 PUSH1 0x0 DUP4 ADD DUP5 PUSH2 0x239 JUMP JUMPDEST SWAP3 SWAP2 POP POP JUMP JUMPDEST PUSH1 0x0 DUP2 MLOAD SWAP1 POP SWAP2 SWAP1 POP JUMP JUMPDEST PUSH1 0x0 DUP3 DUP3 MSTORE PUSH1 0x20 DUP3 ADD SWAP1 POP SWAP3 SWAP2 POP POP JUMP JUMPDEST PUSH1 0x0 PUSH2 0x2E2 DUP3 PUSH2 0x2F5 JUMP JUMPDEST SWAP1 POP SWAP2 SWAP1 POP JUMP JUMPDEST PUSH1 0x0 DUP2 ISZERO ISZERO SWAP1 POP SWAP2 SWAP1 POP JUMP JUMPDEST PUSH1 0x0 PUSH20 0xFFFFFFFFFFFFFFFFFFFFFFFFFFFFFFFFFFFFFFFF DUP3 AND SWAP1 POP SWAP2 SWAP1 POP JUMP JUMPDEST PUSH1 0x0 DUP2 SWAP1 POP SWAP2 SWAP1 POP JUMP JUMPDEST PUSH1 0x0 JUMPDEST DUP4 DUP2 LT ISZERO PUSH2 0x33D JUMPI DUP1 DUP3 ADD MLOAD DUP2 DUP5 ADD MSTORE PUSH1 0x20 DUP2 ADD SWAP1 POP PUSH2 0x322 JUMP JUMPDEST DUP4 DUP2 GT ISZERO PUSH2 0x34C JUMPI PUSH1 0x0 DUP5 DUP5 ADD MSTORE JUMPDEST POP POP POP POP JUMP JUMPDEST PUSH1 0x0 PUSH1 0x2 DUP3 DIV SWAP1 POP PUSH1 0x1 DUP3 AND DUP1 PUSH2 0x36A JUMPI PUSH1 0x7F DUP3 AND SWAP2 POP JUMPDEST PUSH1 0x20 DUP3 LT DUP2 EQ ISZERO PUSH2 0x37E JUMPI PUSH2 0x37D PUSH2 0x384 JUMP JUMPDEST JUMPDEST POP SWAP2 SWAP1 POP JUMP JUMPDEST PUSH32 0x4E487B7100000000000000000000000000000000000000000000000000000000 PUSH1 0x0 MSTORE PUSH1 0x22 PUSH1 0x4 MSTORE PUSH1 0x24 PUSH1 0x0 REVERT JUMPDEST PUSH1 0x0 PUSH1 0x1F NOT PUSH1 0x1F DUP4 ADD AND SWAP1 POP SWAP2 SWAP1 POP JUMP INVALID LOG2 PUSH5 0x6970667358 0x22 SLT KECCAK256 0xD2 SWAP5 0xEB SHR LOG3 JUMP DELEGATECALL RETURNDATACOPY 0xB8 0x2A 0xE0 MSTORE DIV 0xDF 0xC5 0x4B 0xFB ADDMOD 0xB2 PUSH12 0xCC26147B7858F9FD64D70F10 PUSH5 0x736F6C6343 STOP ADDMOD MOD STOP CALLER "
		},
		"gasEstimates": {
			"creation": {
				"codeDepositCost": "203600",
				"executionCost": "infinite",
				"totalCost": "infinite"
			},
			"external": {
				"expired()": "2429",
				"idApplication()": "infinite",
				"isExpired()": "9587",
				"owner()": "2536",
				"valid()": "2473"
			}
		},
		"methodIdentifiers": {
			"expired()": "4c2067c7",
			"idApplication()": "e6f1969c",
			"isExpired()": "2f13b60c",
			"owner()": "8da5cb5b",
			"valid()": "c1991219"
		}
	},
	"abi": [
		{
			"inputs": [
				{
					"internalType": "string",
					"name": "_idApplication",
					"type": "string"
				},
				{
					"internalType": "uint256",
					"name": "_valid",
					"type": "uint256"
				},
				{
					"internalType": "address",
					"name": "_owner",
					"type": "address"
				},
				{
					"internalType": "uint256",
					"name": "_expired",
					"type": "uint256"
				}
			],
			"stateMutability": "nonpayable",
			"type": "constructor"
		},
		{
			"inputs": [],
			"name": "expired",
			"outputs": [
				{
					"internalType": "uint256",
					"name": "",
					"type": "uint256"
				}
			],
			"stateMutability": "view",
			"type": "function"
		},
		{
			"inputs": [],
			"name": "idApplication",
			"outputs": [
				{
					"internalType": "string",
					"name": "",
					"type": "string"
				}
			],
			"stateMutability": "view",
			"type": "function"
		},
		{
			"inputs": [],
			"name": "isExpired",
			"outputs": [
				{
					"internalType": "bool",
					"name": "",
					"type": "bool"
				}
			],
			"stateMutability": "nonpayable",
			"type": "function"
		},
		{
			"inputs": [],
			"name": "owner",
			"outputs": [
				{
					"internalType": "address",
					"name": "",
					"type": "address"
				}
			],
			"stateMutability": "view",
			"type": "function"
		},
		{
			"inputs": [],
			"name": "valid",
			"outputs": [
				{
					"internalType": "uint256",
					"name": "",
					"type": "uint256"
				}
			],
			"stateMutability": "view",
			"type": "function"
		}
	]
}